:020000041000EA
:10000000002008205D0100101301001015010010F0
:100010001101001011010010110100101101001058
:100020001101001011010010110100101701001042
:100030001101001011010010190100101B01001026
:100040001D0100101D0100101D0100101D010010F8
:100050001D0100101D0100101D0100101D010010E8
:100060001D0100101D0100101D0100101D010010D8
:100070001D0100101D0100101D0100101D010010C8
:100080001D0100101D0100101D0100101D010010B8
:100090001D0100101D0100101D0100101D010010A8
:1000A0001D0100101D0100101D0100101D01001098
:1000B0001D0100101D0100101D0100101D01001088
:1000C0001D0100101D0100101D0100101D01001078
:1000D0001D0100101D0100101D0100101D01001068
:1000E0001D0100101D0100101D0100101D01001058
:1000F0001D0100101D0100101D0100101D01001048
:100100001D0100101D0100101D0100101D01001037
:1001100000BE00BE00BE00BE00BE00BEEFF3058004
:10012000103800BEF2EB8871A0E40010C0E40010AB
:10013000A801001090A31AE7D3DEFFFF42012110AF
:10014000FF01000010000100793512AB4FF00000F4
:100150002049086006C881F3088810474FF05040D6
:10016000006810B14FF00000F2E70FA40ECC002998
:1001700002D000F015F8F9E71749184A002000E00E
:1001800001C19142FCD1002080F30A8814498847BC
:10019000144988471449884700BEFDE701C901C2D8
:1001A0009A42FBD3704700BFC0E40010100100204A
:1001B000981D0020480101100000082000000820C0
:1001C0004801011000100820001008200000000065
:1001D0007047000008ED00E0981D0020942D0020DD
:1001E00059430010290600101D430010F8B500BF48
:1001F0000348044B834202D0034B03B118477047B6
:10020000981D0020981D002000000000064B0749A3
:10021000C91A891048BF0131491003D0044B0BB1F2
:1002200001481847704700BF981D0020981D002006
:100230000000000010B5064C237843B9FFF7D8FF43
:10024000044B13B10448AFF300800123237010BDA9
:100250002820002000000000C4D9001008B5044B7D
:100260001BB104490448AFF30080BDE80840CDE766
:10027000000000002C200020C4D90010022210B57C
:1002800082B011244FF000038DF805008DF80610A0
:100290008DF8042043EC4040032201A904480DF0EE
:1002A00067FB4FF0010343EC404002B010BD00BFBC
:1002B000000008402DE9F04F00268FB0082B1C46A7
:1002C0000B968DF82C3028BF082305460127894658
:1002D0000DF12D0011461A460193CDE90C66CDF8BB
:1002E00028908DF8357008F02DFEBD4214BF822392
:1002F00081238DF8133015BF41233123402530254C
:10030000029301F00DFF4FF0FF376FF0004610F53C
:10031000FA6B41F1000A5F4576EB0A013CBFBB4630
:10032000B2464FF003084FF00107394ECDF80C905C
:1003300009E001F0F5FEBBEB00006AEB01010128CA
:1003400071F100015BDB00234FF011098DF814807F
:100350008DF815508DF8163043EC4090032330464D
:1003600006AA05A90DF0ECFA47EC40909DF81A108A
:1003700011F00801DDD1DDE902398DF819300223D1
:100380008DF818309DF835305FFA89F2002B39D19D
:1003900055011A46C9F3C7039146EDB2002063F335
:1003A000070065F30F2069F31740019D62F31F609A
:1003B000CDF81A002A4604F00F040DF12D010DF1BD
:1003C0001F008DF81E404FF0000608F0BBFD112401
:1003D00046EC40402A46073206A9D2B20C480DF03E
:1003E000C7FA4FF0010545EC404046EC4040012281
:1003F0000DF1130106480DF0BBFA45EC40400FB07B
:10040000BDE8F08F0B460825C9F30729C6E700BFF2
:10041000000008402DE9F04FA022002587B01126EA
:1004200004468DF810208DF8145045EC40600122F0
:1004300004A97A480DF09CFA0123294605AA7748B9
:100440000DF08EFA4FF0010343EC40609DF814006C
:1004500010F0010340F0D48010F0020000F0B980E9
:100460007521009374237622CDE901314FF0730A90
:100470004FF0720B7123039200264FF003091125F0
:10048000B0468DF811308DF812608DF8109046EC62
:10049000405062484B4605AA04A90DF051FA4FF0AE
:1004A000010747EC40508DF811B08DF810909DF881
:1004B00016B08DF8126046EC405058484B4605AADD
:1004C00004A90DF03DFA47EC40508DF811A08DF8CD
:1004D00010909DF816A08DF8126046EC40504F48E1
:1004E0004B4605AA04A90DF02BFA47EC4050019B9E
:1004F0008DF810908DF811309DF816308DF812603F
:10050000019346EC405045484B4605AA04A90DF01E
:1005100017FA47EC4050029B8DF812608DF81130AD
:100520009DF816608DF8109048EC40503B484B46C3
:1005300005AA04A90DF004FA47EC40500AF008039C
:10054000002B14BF0123002363739DF8163003F0C2
:100550000F03237140D14FEA5A1242EACB022260C4
:1005600023B34FF003094FF001081E1D039B2644DF
:100570002A4F0434A3EB040A00230AEB04021125DA
:100580008DF811208DF810908DF8123043EC40500A
:100590000323384605AA04A90DF0D2F948EC4050CF
:1005A0009DF8163004F8013FB442E5D1009B13B327
:1005B0001B4B112405934FF0000343EC40400422F1
:1005C00005A916480DF0D4F94FF0010343EC404063
:1005D000012007B0BDE8F08F019A46EA02264FEAF3
:1005E0000A4202F440324FEA5A1A32434AEACB0A2C
:1005F00042EA8A42B3E70B4B11240593009BDCE7E8
:1006000065236622CDE902326423019301234FF072
:10061000630A00934FF0620B61232DE7000008404E
:10062000052C0100052C02002DE9F04F2DED028B69
:10063000BDB003F0FBFF42F2107001F0E3FCBA49D9
:10064000BA4806F093FC0121122000F001FE0121BE
:10065000132000F0FDFD0121102000F0F9FD112014
:1006600000F014FE11244FF0010545EC444045EC28
:10067000404000212020FFF701FE00212120FFF74C
:10068000FDFD00212220FFF7F9FD00212320FFF7C7
:10069000F5FD00212420FFF7F1FD00212520FFF7C3
:1006A000EDFD00212620FFF7E9FD00212720FFF7BF
:1006B000E5FD9F4804F044F8C0224FF000038DF898
:1006C000702043EC404001221CA998480DF050F9DD
:1006D00045EC40400A2001F095FC80210F20FFF7F7
:1006E000CDFD00212A20FFF7C9FDD1212920FFF7E8
:1006F000C5FD81212820FFF7C1FD00210F20FFF754
:10070000BDFD60210846FFF7B9FD60217020FFF7AD
:10071000B5FD002701F004FD9FED818BDFF840B2AD
:10072000002003F085FF831C13D00D28F8D00A2881
:10073000DBF8003000F01A817E2B8FBF00237D4A4A
:10074000D05401330020CBF8003003F071FF831C3C
:10075000EBD101F0E5FC04464FF0000C764BDFF8DE
:10076000E8E1D3E90423A21A744D61EB0303744852
:1007700096457CEB03032E7800780D4680F28F833C
:1007800006236D4A137000236E490A69A41A4A6948
:1007900065EB02056C4AA242AB4180F2EC82062373
:1007A000684A1370694C14A8FFF734FE002800F063
:1007B000B3809DF85D3073B1614B149E1A7842F49A
:1007C00024539E4200F031845C4B1B7843F4245345
:1007D0009E4200F02A84002643F203031125ADF85F
:1007E0004C308DF84E6046EC405003231CAA13A9F0
:1007F0004E480DF0A5F84FF0010848EC405044F287
:1008000003039DF872A08DF84E60ADF84C3046ECB5
:10081000405003231CAA13A944480DF091F848EC5A
:1008200040509DF87220CAF3C003C2F3C00000908C
:100830005146474804F006F842F603538DF84E60DF
:10084000ADF84C3046EC405003231CAA13A937489E
:100850000DF076F848EC40503E489DF8721003F0D9
:10086000F1FF01F05DFC002900F06F824FF47A7215
:1008700000230DF05DF80546DFF8E8A0DFF8E8900A
:10088000089501F04DFC002936D04FF47A72002310
:100890000DF04EF841F28732089BC31A934282D87A
:1008A0001CA8FFF7B7FD00B39DF874509DF87D10AC
:1008B000484600290CBF214651462B461C9A03F09E
:1008C000C1FF55B11DAB9846234E1D4418F8011FBA
:1008D000304603F0B7FFA845F8D10A2003F0EEFE3A
:1008E0001CA8FFF797FD0028DED10A2001F08AFB43
:1008F00001F016FC0029C8D1184AA2FB0023089A6F
:10090000C2EB931341F287329342C9D914A8FFF77F
:1009100081FD00287FF44DAF0A2001F073FBFFE654
:10092000000000000000144040420F00000008409A
:10093000D0D90010B02C002028160020401600202E
:10094000411600201016002000E1F505CCD900105A
:1009500098DB0010D4DB001004DC0010D34D6210D3
:10096000342D0020C8D90010E8DB00100024904A84
:100970008F49D4541CA8802206F072FB2022214605
:1009800014A88DF8EF40CBF8004006F09BFB1CABA1
:100990001E4613F8012B202AFAD0092AF8D0002A83
:1009A00000F0748107223046824906F013FD0028CA
:1009B00040F01E8104460625BA463A46B946A0468E
:1009C0002646089706978DF850507B4B1978B14210
:1009D00000F08F81794B1978B14200F05E81784840
:1009E0001CA9023D099203F02DFF099A062D00F281
:1009F0000884DFE815F080006B004100CF001B0089
:100A000011008A006F4C0423E2602370089201F009
:100A100087FBC4E90401089A10460CF085FF0246E2
:100A20000B466948314603F00DFF79E60024624B1E
:100A300013AA19780423084641F480711394FFF730
:100A400039FC5E4B13AA19780423084641F48071DF
:100A50001394FFF72FFC06235C4C5A4D23702B7028
:100A600001F05EFBC4E9040101F05AFBC5E9040191
:100A7000574803F065FE53E600244F4D4F4E29784A
:100A800013AA0846012341F4A0618DF84C40FFF7FA
:100A900011FC317813AA0846012341F4A0618DF8B6
:100AA0004C40FFF707FC214633782A78494803F089
:100AB000C9FE35E6434D0322C5F80490A5F8088029
:100AC0006C812A7001F02CFBC5E9040148460CF04A
:100AD0002BFFCDE9008402460B463F48314603F028
:100AE000B1FE1DE6374C0222C4F80490227001F0DA
:100AF00017FBC4E9040148460CF016FF02460B46FA
:100B00003648314603F09EFE0AE6DFED357A9DED6C
:100B1000087AB4EEE77AF1EE10FA274B93F80080EA
:100B200040F2128301F0FCFA234B1B78434500F09E
:100B30002383224B1B78434500F0508306980CF02A
:100B4000F3FE02460B465046CDE906230CF0ECFEC0
:100B50000246089891468A460CF0E6FEDDE9062337
:100B600004460D468DED048B4146CDE9009ACDE952
:100B700002451C4803F066FEDDE90623CDE9024587
:100B8000CDE9009A0C48314600780490164803F0ED
:100B900059FEC5E500233046139313AA042346F4F7
:100BA0008071FFF787FB3146104803F04BFEB7E535
:100BB000B02C0020BCDA00104116002040160020A6
:100BC0000CDC00101016002094DA0010281600200B
:100BD000B8DA0010C4DA00107CDA001068DA00100D
:100BE000CDCCCC3D0CDB001050DB0010A8DA00109F
:100BF00000243046B4490CAB0BAACDE90B4406F0F7
:100C0000B3FA022800F0A6803046B0490DAB0BAA1B
:100C10000D9706F0A9FA0228054600F0F6810EAB02
:100C200001930FAB00933046A9490DAB0BAA0E9769
:100C30000F9706F099FA042800F055823046A5492E
:100C40000BAA06F091FA012800F070823046A24902
:100C500010AB0BAA109706F087FA022800F0AC82BE
:100C600013AB019312AB009330469C4911AB0BAA16
:100C700011971297139706F077FA032800F08082F5
:100C80003046974906F0C8FA044620B11CA9954899
:100C900003F0D8FD44E504258EE693481CA9023DE7
:100CA000099203F0CFFD099A062D00F2B18201A14D
:100CB00051F825F0E50A0010B50A0010790A001075
:100CC000D10C00102D0A0010050A00100B0B0010AB
:100CD00000233046139313AA042346F48071FFF7D0
:100CE000E9FA824C0623237001F01AFAC4E90401E0
:100CF00059E77D481CA9023D099203F0A3FD099A1A
:100D0000062D00F2758201A151F825F0310D001079
:100D10002D0D0010790A0010350D00102D0A00105D
:100D2000290D00100B0B0010714C6CE6704DC2E6E3
:100D30006F4CD8E600233046139313AA042346F4DD
:100D40008071FFF7B7FA6A4CCCE76A4AA2FB00232E
:100D50009D0991E501259DF82C60BDF93080BA46CA
:100D60003A46B9468DF85160ADF858800897069715
:100D70008DF8505029E60B78013B052B3FF60FAD5F
:100D800001A252F823F000BF6F0E0010550E0010A4
:100D9000EB0D0010A10D00109F070010A50700101B
:100DA000524BB9EE047AD3ED037AF4EEC77AF1EE42
:100DB00010FA00F11B82B1EE047AF4EEC77AF1EE7C
:100DC00010FA00F311829FED4C7A67EE877AFDEE00
:100DD000E77A17EE903A1BBA1C93304604231CAAFC
:100DE00046F48071FFF766FADCE400213F4B9FED8B
:100DF000437AD3ED017AB3F908204148B3F90A30B8
:100E000080FB025480FB0350D217DB17C2EBA40215
:100E1000C3EBA0031BB242F3072023EAE37360F3A2
:100E2000070112B262F30F211A1262F3174163F342
:100E30001F6167EE877A082330461D911CAA46F48D
:100E4000C061FDEEE77A17EE904A24BA1C94FFF7D2
:100E500031FAA7E4254B9FED297AD3ED017A30468C
:100E6000042367EE877A1CAA46F48061E9E7002232
:100E70001E4BB3F908100423081660F30702081488
:100E800060F30F22081260F3174261F31F621C9295
:100E900030461CAA46F44071FFF70CFA82E4144B6A
:100EA0001B78013B052B3FF66BAC01A252F823F0F7
:100EB000D50F0010BD0F00104D0F0010050F0010D2
:100EC000810700108707001000DA00100CDA00100C
:100ED00018DA001028DA001030DA001040DA0010BA
:100EE00050DA0010E8D900100CDC001010160020B9
:100EF00028160020D34D621000007A4400401C46A2
:100F000067666666C34BB9EE047AD3ED037AF4EEF6
:100F1000C77AF1EE10FA00F16581B1EE047AF4EED1
:100F2000C77AF1EE10FA00F35B819FEDBB7A67EEB2
:100F3000877AFDEEE77A17EE903A1BBA1C931CAA4B
:100F4000042340F48071FFF7B5F91CE40021B14B94
:100F50009FEDB27AD3ED017AB3F90820DFF8ECC245
:100F6000B3F90A308CFB02E88CFB03CED217DB17F7
:100F7000C2EBA802C3EBAE0342F3072C1BB223EA79
:100F8000E37312B26CF3070162F30F211A1262F3DA
:100F9000174163F31F6167EE877A08231D911CAA2E
:100FA00040F4C061FDEEE77A17EE90CA9CFA8CFC23
:100FB000CDF870C0FFF77EF9FFF7E5BB954B9FEDCD
:100FC000977AD3ED017A1CAA042367EE877A40F45E
:100FD0008061E7E700228F4BB3F9081004234FEA42
:100FE000216C6CF307024FEA214C6CF30F224FEA9D
:100FF000212C6CF3174261F31F621C9240F4407184
:101000001CAAFFF757F9FFF7BEBB9DF82C60DDF86F
:101010003490BA463A46A0468DF850008DF851609B
:10102000CDF8549008970697CFE4F6B2B24200F09C
:10103000D3807B4B1B78B3427FF4CDAB794D9DF8C9
:101040005430082B7FF4C7ABBDF857309FED765A6C
:10105000DBBA07EE103ABDF85930F2EE045ADBBAAB
:1010600007EE903ABDF855309FED706ADBBA06EE98
:10107000903AB8EEC77AF8EEE77AF8EEE66A01231E
:1010800066EE856A27EE257A67EE867A2B709DF8E4
:101090005B30C5ED016A2B749DF85C3085ED027AFA
:1010A000C5ED037A6B7401F03BF8C5E90601686889
:1010B0000CF03AFC6B7C8046059395F9103089461C
:1010C0000493E8680CF030FCCDE90201A8680CF04C
:1010D0002BFC4246CDE900014B463146544803F013
:1010E000B1FBFFF778BB9DED0F7ADDED0E7ABDEE1B
:1010F000C77AFDEEE77A17EE103A0FFA83F817EE8B
:10110000903A03259DF82C60DDF834901CB2BA4665
:101110003A468DF85160CDF85490089706978DF8AF
:101120005050ADF85880ADF85A404EE405259DF872
:101130002C60BA463A46B946A0468DF851600897E9
:1011400006978DF8505040E417EE100A0CF0ECFBB7
:1011500004460B46224637480D4603F073FB0698BB
:101160000CF0E2FB02460B465046CDE906230CF09C
:10117000DBFB81468A46FFE42F4B00221A70DDE438
:10118000DDED117A08250024CDED067ACDED197A32
:10119000DDED137A9DF82C60DDF848A0CDED087ADE
:1011A000CDED1B7A3A46A046B9468DF85160CDF890
:1011B00068A08DF8505008E407259DF82C60109A1F
:1011C000BA46B946A0468DF851601892089706971E
:1011D0008DF85050FFF7F9BB174D30E7114BCCE7B6
:1011E000164BABE6164BA9E6144BF5E5144BF3E5AD
:1011F000084C0123A4F80880237000F091FFC4E993
:101200000401424631460F4803F01CFBFFF788BA41
:101210000D4CEEE72816002000007A4400401C46E2
:101220004016002000200020CDCCCC3D0AD7233C26
:1012300078DB0010F0DA0010E01F002000001388B7
:10124000FFFFEC7858DA001010160020676666661B
:1012500010B44FF480740C4B53F8202003EB800340
:10126000C00082F0400200F1804003F5805C02F093
:10127000C00200F5203003F54053CCF80020416057
:101280001C605DF8044B70470480034030B44FF09D
:10129000000343EC440043EC400005254FF4807408
:1012A0000B4BC20053F8201003EB800081F040018B
:1012B00002F1804303F5203301F0C00200F58051B4
:1012C00000F540500A605D60046030BC704700BFAC
:1012D000048003400FB400B583B0049C074803F0BA
:1012E0002FFA3CB105A92046019102F0C1FF044844
:1012F00003F026FA012002F0D3FF00BF1CDC00102F
:1013000018DC001070B58646EFF3108572B6124CEB
:10131000D4E8CF6F0120002EFAD1C4E8460F002E8A
:10132000F6D1BFF35F8F4FF0010CC80801F007033F
:101330000CFA03F31EF800C01CEA030608D14CEABD
:10134000030C0EF800C0C4E88F6F85F3108870BDE1
:101350001046FFF7BFFF00BF33240020F8B5EFF3BE
:10136000108572B6234CD4E8CF7F0126002FFAD126
:10137000C4E8476F002FF6D1BFF35F8F9A4227D89A
:101380000126D70810F807E002F0070C06FA0CFC5B
:101390001EEA0C0F00EBD2070DD125E04FEAD20E6A
:1013A00010F80EE002F0070C06FA0CFC1EEA0C0F17
:1013B00000EBD20718D001329342EFD24FF0FF304A
:1013C0000023C4E88F3F85F31088984207DBF8BDFF
:1013D0000023C4E88F3F85F310884FF0FF300029C9
:1013E000F5D00698FFF776FF4EEA0C0E104687F808
:1013F00000E0E5E733240020044A1078431CDBB208
:10140000182B28BF10231370704700BF421600200E
:1014100010B5054C82B001461F23182200940348E2
:10142000FFF79CFF02B010BD2CDC00104428002008
:101430004FF0E022936843F000539360704700BF81
:101440000021044B03F12002C3E88F1F01339342B4
:10145000FAD17047282400204FF0E0234FF080326B
:10146000C3F80024C3F80424C3F80824C3F80C24E8
:10147000C3F81024C3F81424C3F81824C3F81C2498
:10148000C3F82024C3F82424C3F82824C3F82C2448
:10149000C3F83024704700BF012300F01F029340BF
:1014A000400941B1800000F1604000F56140C0F8A2
:1014B000803103607047024A203042F82030704784
:1014C00000E100E00123064A410952F8212000F022
:1014D0001F008340134214BF01200020704700BF4B
:1014E00000E100E001224309034900F01F008240AF
:1014F000403341F82320704700E100E0054A1030F6
:101500009268054B52F82000C01A2F288CBF00208B
:101510000120704700ED00E044160020F8B50D46AC
:10152000EFF3108772B6124ED6E8CF2F0123002AB0
:10153000FAD1C6E8423F002AF6D1BFF35F8F0D4BC8
:1015400000F110049B680C4A53F82430934203D0F6
:10155000994201D000F0A4FF064B9B6843F8245049
:10156000BFF35F8F0023C6E88F3F87F31088F8BD75
:101570003124002000ED00E01D0100102DE9F04FA6
:1015800081468B46164683B0EFF3108372B6DFF8C0
:10159000D0A10093DAE8CF1F01230029FAD1CAE8CD
:1015A000413F0029F6D1BFF35F8F664B93F90040AE
:1015B000002CC0F2A080644D04EB440705EB8708C3
:1015C00098F8061009F110091970604BBF009B686C
:1015D00053F829006300411B2F292FD95C49884209
:1015E00040F0A4801C445B4B02372F44043BDB1BC0
:1015F000C3F34A036FEAC3434FF421416FEAD34375
:1016000025F8241005EB840463804BF60153A38076
:10161000FF2348F00100E671C4F808B0A3714B4BFA
:101620009B6843F82900BFF35F8F0023CAE88F3F10
:10163000009B83F3108803B0BDE8F08F20F0010E0B
:101640009EF80710B1422ED84FF42143EB53414B83
:10165000B91C2944043B04375B1A2F44AEF1040142
:101660003D4CC91BC1F34A012143A8F80410C3F340
:101670004A033A492343A8F802304AF6AA2073469F
:101680005B1B5B415843000D88F8076088F8060033
:10169000C8F808B048F00100CEF80010BFE7D179D3
:1016A000B1422ED996469EF906C00CEB4C02BCF115
:1016B000000F05EB8202F2DA4BF601510EF1040243
:1016C000A8F10407BF1AC7F34A076FEAC7476FEAD2
:1016D000D7478EF8064003EB0408204C05EB88033F
:1016E000AEF8047045F82840998083F806C0DE7192
:1016F000C3F808B093E700F0D3FE124B93F9004013
:1017000059E7724632F8041F490514D449150231CD
:1017100002EB410101916FF00701C91B019F491BB9
:101720003944C1F34A0141F46041C9E7019300F033
:10173000B7FE019B56E701F5FF1101F5FF511F317F
:10174000E4E700BF8C2D00204416002000ED00E0EF
:101750001D0100107416002000E0FFFF01488047C3
:1017600031240020F0B5EFF30585EDB2EFF3108CD6
:1017700072B62649D1E8CF2F0123002AFAD1C1E859
:10178000423F002AF6D1BFF35F8F214E40F0010E99
:10179000B4684AF6AA2354F825701E4A0446A41ACF
:1017A000644163431B0D77455BB21BD092F9064041
:1017B0009C421CD092F912409C4223D092F91E40C8
:1017C0009C4221D092F92A409C4208BF03240FD0AA
:1017D000114A0024157813708571C1E88F4F8CF37E
:1017E0001088F0BDB2680D4C42F82540F0E70024A7
:1017F00004EB440402EB8402FF2494714BF6015481
:101800009480E5E70124F3E70224F1E73124002086
:1018100000ED00E0441600208C2D00201D0100107A
:1018200010B5074C82B001460523002200940548FC
:10183000FFF794FD0028A8BFC0F1330002B010BD2F
:1018400048DC0010902D0020014B0B4403607047D2
:101850002824002070B5104C104DAC420ED2FF264B
:10186000236863B1FFF7C8FD01462046FFF7ECFF90
:10187000A680BFF35F8F0834AC42F1D370BDFFF791
:10188000BBFD01462046FFF7DFFF2671BFF35F8FE8
:101890000834AC42E4D370BD901D0020981D002098
:1018A00010B50446FFF7A8FD01462046FFF7CCFF20
:1018B000FF232371BFF35F8F10BD00BF10B5044637
:1018C0000120FFF7A5FD034B03442360BFF35F8FA7
:1018D00010BD00BF28240020024B0B440360BFF35F
:1018E0005F8F7047282400200D4B1A68EFF310819A
:1018F00072B6D2E8CFCF0120BCF1000FF9D1C2E817
:101900004C0FBCF1000FF4D1BFF35F8F00221B68B6
:10191000C3E88F2F81F3108840BF0020002170475B
:101920006C2D0020000000002DE9F04F2DED028B02
:1019300085B0EFF30583DBB2103B9A0818BF012294
:101940004FF0010103F0030018BFAF4DAF4B08BFCC
:10195000AF4D00EB820253F8226001FA00FB05F55F
:1019600041539FEDA78B0190C3F804B02EE0B388DC
:10197000180440F19280B379002B40F0DC80B6F976
:1019800008100029C0F21D81736901EB410103EBCE
:10199000C103D3E90247B7F1FF3F08BFB4F1FF3FEE
:1019A0000DD0019B05EB8301AB6A0A69D21AE31AD9
:1019B000934203D32B6A13EA0B0F00D10C61284624
:1019C00000F0A6FBA042B941C0F2FB80B6F9083096
:1019D000C5F83CB0002B0093C9DBD6F8149003EB9C
:1019E000430A284609EBCA07D7E9024800F090FBF2
:1019F000A04271EB0801BADBB8F1000FC0F2C3805E
:101A0000D7E90431834A934200F0ED807A88B6F931
:101A1000080092B242EA0040984702460B4652EA5A
:101A2000030100F0B080002B80F2D180B4EB020EF5
:101A300068EB030839F93A30C7E902E8002B96DB76
:101A4000716903EB430201EBC202D2E90270BE45A9
:101A500078EB000C4FEA430289DBB4462CF8083FD0
:101A60000BE031F93230A446002B0DDB03EB4300D1
:101A700001EBC0005A00D0E90270BE451A4478EB71
:101A8000000001EBC204ECDA29F83A30009BACF814
:101A90000030B38818043FF56EAF3369EFF310825E
:101AA00072B6D3E8CF0F01210028FAD1C3E8401F56
:101AB0000028F6D1BFF35F8F4FF6FF74B088002384
:101AC000316900B2B480C1E88F3F82F31088984238
:101AD000FFF651AF0746A946746906F1080807EBFF
:101AE000470E04EBCE03D3E90250B6F90830C446E2
:101AF000002B13DBB246009704E034F936309446ED
:101B0000002B09DB03EB430604EBC602D2E90271AA
:101B1000BD4270EB0101F0DA5646009FACF8007050
:101B200034F93E7024F83E30002FD8DAB3794D46B0
:101B3000002B3FF424AF0023B371B6F9083006F14F
:101B40000808591C3DD01946776903E080465A1CA5
:101B50003FF417AF03EB430207EBC200B0F802C03B
:101B60001C461CF4004F9E4637F93230EED08C42B2
:101B700080ED028B05D0A8F80030318927F83210AB
:101B800034817146E3E739F83A3033813369EFF352
:101B9000108272B6D3E8CF0F01210028FAD1C3E832
:101BA000401F0028F6D1BFF35F8F7388316929F891
:101BB0003A30009B73800023C1E88F3F82F3108886
:101BC000D5E640BF05B0BDEC028BBDE8F08F2846DE
:101BD000CDE9022300F09CFA029A039B10EB020E5F
:101BE00043EB010826E708460B6902919847002855
:101BF000C9D00299D1E9002311E700BFAFF30080FB
:101C0000FFFFFFFFFFFFFFFF00800B40442D002080
:101C100000000B40291900102DE9F84F364C2569BA
:101C20002DB1BDE8F84F0A213448FFF70DBEDFF8AB
:101C3000E4800321404600F059FA0326C4F80C80E2
:101C4000FFF7DAFB4FF0504C2D4B26700344236115
:101C5000DCF800300F216370636961801D834FF0F1
:101C60000405A3F878504FF00505A3F890504FF005
:101C70000605A3F8A8504FF007050E214FF6FF7296
:101C800008274FF00A0EA3F8C0504FF001094FF09B
:101C90000C0C4FF0020B4FF0090A0D204FF00B0512
:101CA000A3F868111749A280A3F808E1A160A3F87E
:101CB00048B0A3F8F0A0A3F82051A3F838C1A3F8C6
:101CC0005001A3F83090A3F86060A3F8D8701A8090
:101CD0000D4B3046C8F820700C49DC60FFF71EFC45
:101CE00049463046FFF7D8FB094B0A211F640348D9
:101CF000BDE8F84FFFF7A8BD8C1600206C2D002022
:101D000028240020FFFF1000442D00202919001076
:101D100000200B4000000B40004870478C1600204C
:101D2000F8B59DF82070044616461D4637B900F0F8
:101D3000F7F9864265EB010100295CDB2369EFF3CB
:101D4000108772B6D3E8CF1F01220029FAD1C3E869
:101D5000412F0029F6D1BFF35F8FB4F902C0636948
:101D60000CEB4C01BCF1000F4FEAC10203EBC101C7
:101D700038DB985A4FF0000E60802069C0E88FEF82
:101D800087F310880698C1E90265086107984861E1
:101D900048880130C0F30E00012838BF0120488078
:101DA00040EA0C402169EFF3108572B6D1E8CF7F8D
:101DB0000126002FFAD1C1E8476F002FF6D1BFF3FB
:101DC0005F8FA1889952A4F804C02369C3E88FEFFC
:101DD00085F310880122E368217803F501538A40D6
:101DE0005A60F8BD00232269C2E88F3F87F310884C
:101DF0004FF0FF30F8BD3846F8BD00BF0146F0B5E2
:101E00000069EFF3108772B6D0E8CF5F0124002D90
:101E1000FAD1C0E8454F002DF6D1BFF35F8FB1F97D
:101E200002E04C690EEB4E0CBEF1000F4FEACC0500
:101E300004EBCC0C3DDB605B002648800869C0E801
:101E40008F6F87F31088BCF80200CCE902230130C1
:101E5000C0F30E00012838BF0120059BACF802003A
:101E6000CCF81030069B40EA0E40CCF814300B69D9
:101E7000EFF3108272B6D3E8CFCF0127BCF1000F89
:101E8000F9D1C3E84C7FBCF1000FF4D1BFF35F8FF1
:101E90008B886353A1F804E00B69C3E88F6F82F36A
:101EA00010880122CB68097803F501538A405A60F3
:101EB000F0BD00230A69C2E88F3F87F310884FF016
:101EC000FF30F0BD03464089B0EB214F37DD586944
:101ED0000A1402EB420210B500EBC2001C69EFF3DA
:101EE000108C72B6D4E8CFEF0122BEF1000FF9D109
:101EF000C4E84E2FBEF1000FF4D1BFF35F8F4288CC
:101F000089B292B28A4207D000221B69C3E88F2FA0
:101F10008CF31088002010BD42F400424280012161
:101F2000002218699971C0E88F2F8CF310881C78F3
:101F3000DA68084602F50153A140596010BD00203F
:101F4000704700BF407870472DE9F041861F41F18E
:101F5000FF35B04271EB050338BF002682B038BFB1
:101F6000354604460F4600F0DBF8301A65EB0103F6
:101F7000012873F1000306DA2046394602B0BDE8B5
:101F8000F04100F009B900F0CBF8864265EB0101A1
:101F900000290ADB0021174B3246009316482B46D6
:101FA0000191FFF72BFF0028E6DB4FF0000C1348F0
:101FB000134A436A9D4204D8816AB142DCD29D42F1
:101FC000DAD11368EFF3108172B6D3E8CF8F5FF0E8
:101FD000010EB8F1000FF8D1C3E848EFB8F1000FD7
:101FE000F3D1BFF35F8F1368C3E88FCF81F31088FD
:101FF00020BFDEE7E91800108C16002000000B401F
:102000006C2D002010B5044600F08AF84FF47A7366
:102010004FF0FF3C6FF00042E4FB0301BDE81040CD
:10202000844572EB01033CBF60461146FFF78CBF4D
:102030002DE9F04306460D4683B0EFF30584E4B284
:102040003CB1274B586AA8421CD2002003B0BDE81F
:10205000F083244FD7F80C9097F80080484600F0A2
:1020600057F808F1040859F828301B1A301A65EBA4
:102070000101984271F1000111DB20BF184B586A31
:10208000A842E2D39B6AB34203D3012003B0BDE868
:10209000F083401B18BF012003B0BDE8F08300F0BF
:1020A0003FF8864265EB01010029CADB0E4B38463A
:1020B000CDE9003432462B46FFF7A0FE011EC0DDFD
:1020C000074B5A6AAA4208D39B6AB34203D3054816
:1020D000FFF7F8FEB5E7AA42F9D120BFF7E700BF46
:1020E00000000B408C160020E918001010B4054BBE
:1020F000054C064AA04214BF1846581C5DF8044B14
:10210000FFF700B94828002000800B4064DC001075
:102110000346416A0A46986A596A8A42FAD1704768
:10212000034B596A0A46986A596A9142FAD1704734
:1021300000000B4010B4174A536A9C46946A536AD5
:102140006345FAD1001959414FF0000228BF01221E
:102150000346CAB10F4B596A4B1C08BF0B4608D047
:102160004FF0FF310B460B48426A8A42FCD38A4249
:1021700007D1084A02E0506A884202D1906A984228
:10218000F9D35DF8044B7047024A526A9142EAD88B
:10219000EDE700BF00000B40074A536A9942FCD8A4
:1021A000994207D1044B02E05A6A914202D19A6ADD
:1021B0008242F9D3704700BF00000B4000EB400C97
:1021C0004FEA8C0C0CF1804C0CF5803CF0B51646B7
:1021D000DCF80420051FB2F5803F38BF4FF4803291
:1021E000EDB238BFCCF80420012D2AD94FF4006796
:1021F000254C0CF54052176054F82020B2B9DCF899
:102200000020012D82EA461202F0E0020CF5805611
:1022100032602AD94FF4006144F820304FF4803303
:102220000CF500521160CCF80430F0BD6769B7FBC3
:10223000F2FE0EF1010E0EEB4E0EBEF1030EFCD2BD
:10224000DDE70129D2D103240CF540521460DCF8FB
:102250000820D207FBD5DCF800200B4C82EA46129E
:1022600002F0E0020CF5805632600122DCF80050EA
:102270004D4005F00305356002FA01F1DCF8082055
:102280000A42FBD0C6E700BF4C280020014B53F8A0
:10229000200070474C28002070B4039D04682D0373
:1022A00045EA03451B4B002CB3FBF1F3B2FBF3F6FD
:1022B0001FDB194A194B904214BF4FF480424FF470
:1022C0000042174C1A6003F580531A60A36832EA83
:1022D0000303FBD1212200F54053043301608660E3
:1022E0001A600268002AFCDA0822C5601A6070BC15
:1022F0007047036803F03F038B42DAD18368C3F36E
:102300000B03B342D5D1C36803F4EE23AB42D0D163
:10231000EDE700BF001BB700008005400020024031
:102320000000024030B44FF080441C4B1C60E0B110
:102330001B4CA3F54053DC611A4C40F001004440B3
:102340001C62596298624FF080454FF0E061134B78
:102350001548164C1D60846019604AB930BC4FF0B6
:102360000042A3F580531A607047114BD861EAE729
:102370004FF47A7303FB02F2B2F1807F2ABF6FF051
:102380007F4313461A464FF080410A4C08482360A9
:10239000094B426030BC1960704700BF00B00D406F
:1023A000D3C007B02D3FF84F00A00140F3FFFF015D
:1023B00000800D40302D002000A00D40012300EBD7
:1023C0004000800000F1804000F58410416003600F
:1023D000704700BF002370B5DB8A04460D4600221B
:1023E00042E800F2520254BF1021042144F252206C
:1023F000984786462B462246F446BDE870400A219F
:102400004FF48170604700BF0023DB8A002242E85E
:1024100000F2520201D4102118470421184700BFCE
:1024200008B503460846191E02DB1AB140F0300019
:10243000FFF7D0FF40F02000FAE700BF034AD2F8D0
:102440002838002BFBD0BFF35F8F704700000E4091
:102450000021044B044ABFF35F8F43F8041B9342EF
:10246000F9D170470C080E402C080E4010B44FF400
:102470008D704FF42A64064A064B07491460D060F9
:1024800019605368002BFCDA5DF8044B704700BFFD
:102490000080044000A0044000B0FA00704700BF74
:1024A00008B50148FEF716FF88DC001038B5054C6A
:1024B000054DAC4204D254F8043B9847AC42FAD3E1
:1024C00038BD00BF78D90010B8D9001010B4074843
:1024D000074C084B084A094904601A608B6832EAC5
:1024E0000303FBD15DF8044B704700BF002002409E
:1024F0007F3BEFEF00300240F6FFF30300000240A5
:10250000044BDB6CB3F5004F03D14FF48022024B38
:10251000DA64704700001150002011504FF0E022A3
:10252000044BD2F8881D0B43C2F8883D10EE3004EE
:10253000704700BF030330006FF06041044B054A51
:1025400019609368DB4333F06043FAD1704700BFF2
:10255000003002400000024010B545F25320FFF762
:1025600053FFBDE8104003460420184710B545F25C
:102570005320FFF749FFBDE81040034601201847EC
:10258000FEF75EBF10B5054B054C4FF48872184638
:10259000A16806F0D7FCA06010BD00BF00000020BD
:1025A00000ED00E0002370B52B4C82B0C4F88430FD
:1025B000FFF75CFF0122294BDA63636C012BFCD12E
:1025C0000321264A244B11639C6B012CFCD102266B
:1025D000052521460523224A22480096FFF75CFE86
:1025E00021462B46204A21480095FFF755FE002240
:1025F000042031461E4BFFF7E1FD2146284600220C
:102600001C4BFFF7DBFD0022082011461A4BFFF799
:10261000D5FD002209201146174BFFF7CFFD002200
:1026200006201146134BFFF7C9FD0022114B07206E
:102630001146FFF7C3FD0420FFF728FE00240F4BCF
:10264000A3FB0035AD0CE0B229460134FFF7B6FE1E
:10265000062CF8D102B070BD0000014000300140EE
:10266000002F685900000540008C86470080054017
:10267000001BB70080D1F008006CDC0283DE1B4336
:1026800086B003B451FC0804CDE9020151FC0904F1
:10269000CDE9040151EC0A04CDE9060103BCF04781
:1026A000BDE800504EEC00C4BDE800504EEC01C443
:1026B000BDE800504EEC02C400BD000000B5FFF7BD
:1026C000DFFF02E010FE30F4F8D441EC100443ECDC
:1026D000112400EE010410EE010480EE200451EC00
:1026E0001004704700B5FFF7CBFF02E010FE30F496
:1026F000F8D441EC100443EC112400EE010410EE78
:10270000210480EE200451EC3004704700B5FFF73F
:10271000B7FF02E010FE30F4F8D410B541EC10041D
:1027200043EC112451EC040453EC0524A0FB024CAF
:102730005FF0000EE0FB03CEE1FB02CE4CEC204448
:102740000024E1FB03E444EC30E480EE200451EC8F
:102750005004BDE81040704700B5FFF791FF02E05C
:1027600010FE30F4F8D441EC100443EC112451EC89
:102770002104A0FB01126FEA820252FB100052FBFF
:1027800012F252FB1000A0EBD07C53EC04245CFB53
:1027900013F153EC1524A1FB022001FB030053ECC1
:1027A0004424A2EB000050FB1CF24FEA111312EB81
:1027B000017043EBE27140EA515020EA915020F061
:1027C000070053EC7524A0FB023C53EC752400FB7E
:1027D00003CC01FB02CC53EC0424ACEB824C40EA6A
:1027E0005C70A0F1010041EC400480EE200451EC4B
:1027F0007004704700B5FFF743FF02E010FE30F4AD
:10280000F8D441EC100480EE220410EEB2047047BC
:1028100000B5FFF735FF02E010FE30F4F8D440ECCD
:10282000700400EE010410EE210480EE200451EC4F
:102830003004704700B5FFF723FF02E010FE30F4CC
:10284000F8D440EC600400EE010410EE210480EEA8
:10285000200451EC3004704700B5FFF711FF02E08F
:1028600010FE30F4F8D441EC800400EE010410EEC8
:10287000010480EE400410EE1304704700B5FFF72A
:10288000FFFE02E010FE30F4F8D441EC800400EECC
:10289000010410EE010480EE400410EE3304704792
:1028A00000B5FFF7EDFE02E010FE30F4F8D441EC85
:1028B000100443EC112400EE010410EE3004C0F3C8
:1028C0000070704700B5FFF7DBFE02E010FE30F449
:1028D000F8D441EC100443EC112400EE010410EE96
:1028E0003004C0F38070704700B5FFF7C9FE02E006
:1028F00010FE30F4F8D443EC102441EC110400EE47
:10290000010410EE30F48CBF01200020704700BF9E
:1029100000B5FFF7B5FE02E010FE30F4F8D443EC4A
:10292000102441EC110400EE010410EE30F42CBF31
:1029300001200020704700BF00B5FFF7A1FE02E0B4
:1029400010FE30F4F8D441EC100443EC112400EEF6
:10295000010410EE30F42CBF01200020704700BFAE
:1029600000B5FFF78DFE02E010FE30F4F8D441EC24
:10297000100443EC112400EE010410EE30F48CBF7F
:1029800001200020704700BF0022002950DA404299
:1029900061EB4101C9B1B1FA81F30B3B17D4D3F11B
:1029A000200C30FA0CFC9840994051EA0C011A4472
:1029B000524202F2324201EB025141F0004140F238
:1029C000FE739A4238BF704721E011467EE003F162
:1029D000210310FA03FCA3F1010301FA03FCC3F184
:1029E000200320FA03F021FA03F140EA0C00A3EBE4
:1029F000020202F2324214D050F1000041EB0251C7
:102A000041F0004140F2FE739A4238BF70474FF0E8
:102A10000001A8BFC7F6F0714FF000007047002119
:102A20007047EBD350F1000020F00100E6E70022F0
:102A3000B9B1B1FA81F30B3B16D4D3F1200C30FAC3
:102A40000CFC9840994051EA0C011A44524202F29F
:102A5000324201EB025140F2FE739A4238BF704796
:102A600020E0114600F066B803F1210310FA03FCE0
:102A7000A3F1010301FA03FCC3F1200320FA03F0E0
:102A800021FA03F140EA0C00A3EB020202F2324207
:102A900012D050F1000041EB025140F2FE739A4215
:102AA00038BF70474FF00001A8BFC7F6F0714FF074
:102AB0000000704700217047EDD350F1000020F076
:102AC0000100E8E7002880F235804042B0FA80F348
:102AD0000B3B11D4984001EB0302524202F2124226
:102AE00000EB025141F000414FF0000040F2FE7354
:102AF0009A4238BF704713E0C3F1000330FA03FC79
:102B0000C3F120029040A3EB010202F212420CEB4F
:102B1000025141F0004140F2FE739A4238BF7047C3
:102B20004FF00041A8BFCFF6F0714FF000007047A2
:102B30000021704760B3B0FA80F30B3B0FD498408C
:102B400001EB0302524202F2124200EB02514FF03B
:102B5000000040F2FE739A4238BF704710E05B42BB
:102B600030FA03FCC3F120029040A3EB010202F211
:102B700012420CEB025140F2FE739A4238BF70478A
:102B80004FF00001A8BFC7F6F0714FF0000070478A
:102B9000002170470022A2F232425FEA215CACF1D0
:102BA0000103A1EB03515B0513F5800F32D212EB49
:102BB000535210D40B2A36DA9140D2F1200330FA66
:102BC00003F319439040BCF1000FA8BF7047404287
:102BD00061EB4101704720320EDD01FA02F3D2F1C0
:102BE0002002D140D0401843BCF1000FA8BF70476D
:102BF000404261EB41017047524282F3050231FAD3
:102C000002F00021BCF1000FA8BF7047404261EB09
:102C10004101704702D000200021704750EA013185
:102C200018BF4FF0000C6FF0004101EBDC716FEA50
:102C3000EC7070479A4238BF88547047704700BFA5
:102C40002DE9F04F83B09946DDE90DAB0F9B884627
:102C500011469A07074616D1DA453AD20C460D4678
:102C6000ABEB0A060E4422464B4641462020013477
:102C7000B847B442F7D12946BAF1000F08D120462F
:102C800003B0BDE8F08F0C46BAF1000F10D00E462D
:102C900055460C9B2E449A440191721B4B46013DB4
:102CA00041461AF8010D3446B847002DF5D1019977
:102CB0000F9B9B07E3D5651AAB45E0D922464B46EF
:102CC000414620200135B8475D4504F10104F5D3A4
:102CD000D5E7BAF1000FDAD10C46D0E72DE9F04F75
:102CE0000F9FDDF824E017F0020F0A9C9DF82C904E
:102CF0000E9DDDE90C8629D1002D6FD1B44225D27D
:102D0000202C07F0010B00F0128104F1FF3C4FF082
:102D1000300AF44401E0202C7AD00134A6420CF8A9
:102D200001AFF8D8BBF1000F10D0AC420ED2202C6E
:102D300074D004F1FF3C4FF0300AF44401E0202C41
:102D400029D00134AC420CF801AFF8D117F0100FC4
:102D50003AD017F4806F28D11CBBB8F1100F00F0E7
:102D6000CA80B8F1020F00F0D48030248EF8004001
:102D70000124B9F1000F67D17E0740F1AA802B260C
:102D80000EF804600134CDE90B57CDE909E4BDE844
:102D9000F04FFFF755BFFC0640F189807C0535D424
:102DA0002024A6426AD0AC4268D0B8F1100F00F0DF
:102DB0008780B8F1020F5AD0202CE4D02646013487
:102DC0004FF0300C0EF806C0202CD2D1CDE90B57B5
:102DD000CDE909E4BDE8F04FFFF732BF17F0010B72
:102DE0003ED0B9F1000F47D117F00C0F44D1B442D7
:102DF0009BD2202C89D1202D10D8FC0657D57C05DC
:102E000055D4202E00F0B980202D10D02024CCE7FE
:102E1000BBF1000F00F0A580202DBCD9FC0646D5E3
:102E20007C0544D4202E00F0A880202D3FD12C46D4
:102E30001F26B8F1100F7FD0B8F1020FC0D14FF0AC
:102E4000620C0EF806C0B7E72D260EF804600134B8
:102E5000CDE90B57CDE909E4BDE8F04FFFF7F0BE2F
:102E6000B442BFF473AF202C7FF44FAFD6E7202CD1
:102E700089D026460134E2E7013DB8E7661ED8D185
:102E8000B8F1100F64D0B8F1020F7FF46EAF622674
:102E90008EF80060302644468EF80160B9F1000FCC
:102EA0003FF46AAFD0E7B8F1100F7FF46CAF202485
:102EB000CDE90B57CDE909E4BDE8F04FFFF7C0BEFF
:102EC000BE060ED4202CF2D078260EF80460013411
:102ED00072E73E077FF557AF20260EF804600134F5
:102EE00051E7202CE3D04FF0580C0EEB040686F887
:102EF00000C0013460E7BE0617D558248EF80040A4
:102F000030248EF801400224B9F1000F3FF434AFB1
:102F10009AE762248EF8004030248EF801400224A3
:102F2000B9F1000F3FF428AF8EE77824F2E7BBF148
:102F3000000F7FF462AF71E717F0200F0CBF4FF066
:102F4000780C4FF0580CA61E0EF806C0013C35E771
:102F5000BC06EAD558248EF8004030248EF8014093
:102F6000DDE717F0100F3FF40EAF17F4806F9AD122
:102F7000202E7FF418AF1F265BE734461F2658E744
:102F800000B9704701F09ABB10B1D1E90031184780
:102F9000704700BF000000002DE9F04F9FB09DED8D
:102FA000287BDDE92AA558EC177B83461E460D9148
:102FB000109243463A46384641468DED087B2C9C9C
:102FC000FFF772FC002840F0D880384641464FF0A9
:102FD000FF32754BFFF7C8FC002840F0CE80384622
:102FE00041464FF0FF326FF48013FFF781FC002859
:102FF00040F0C380DDE908780022384641460023CE
:10300000FFF776FC002840F0C081CDE90A78DDE9C1
:103010000A2390461F4614F4806308BF4FF0060A47
:10302000139304F4006258EA0703119240F0C08041
:10303000002A00F0A2819FED5A7B00278DED0E7BC8
:103040004FF00009BA45CCBFAAEB070A4FF0000ABF
:103050004F46C8BF0AF1FF3A44F480644D4594BF1F
:103060004FF00008A5EB090814F00203119304D0F7
:10307000B9F1000F18BF4FF000083FB1DDE90A01B8
:10308000DDE90E23FFF76CFBCDE90A01DDE908015C
:1030900000220023FFF72CFC30B1DDE90A010246D3
:1030A00001F10043CDE90A239DED0A7BCDE902A899
:1030B000DDF834A024F4006304938DED007B3346E7
:1030C00051465846109A00F097F98046B9F1000F22
:1030D0004FD014F0200F024600F1010433460CBF1C
:1030E000652045205146D84709F1FF3087EAE77C43
:1030F0000DF1580900224B46DFF8B080ACEBE77CBD
:103100004FEAD77E01E0202A10D0E246A8FB0C71DE
:10311000C90801EB8107ACEB47073037BAF1090F5B
:103120008C4602F1010203F8017BECD805230590DF
:10313000069300200A230D9FCDE90330CDE9012E2F
:103140003346224639465846CDF80090FFF7C6FD73
:10315000119B80466BB1109BC41AA54209D9424607
:103160003346394620200134D847A54208F10108EA
:10317000F5D840461FB0BDE8F08F9DED087B334683
:103180005846109A0D998DED287BCDE92B54CDF83A
:10319000A8A01FB0BDE8F04F00F02EB9AFF300803B
:1031A0000000000000000000FFFFEF7FCDCCCCCC82
:1031B000C7F30A50A0F2FF30FFF72EFB8AA3D3E932
:1031C0000023FFF7A7FA8AA3D3E90023FFF77AFACF
:1031D000C7F31307CDE90E0147F07F5140460022A7
:1031E0007B4B41F44011FFF781FA6BA3D3E9002335
:1031F000FFF790FA02460B46DDE90E01FFF762FA8F
:10320000FFF72EFB0746FFF707FB65A3D3E9002373
:1032100080468946FFF77EFA00226E4BFFF752FA8E
:10322000FFF71EFB03464946404612935EA3D3E9CF
:103230000023FFF76FFA804612988946FFF7ECFAF1
:103240005BA3D3E90023FFF765FA02460B4640462D
:103250004946FFF74BFA02460B4680468946FFF780
:1032600059FA42464B46CDE90E0140464946FFF722
:1032700029FA0022CDE91401DDE90E01564BFFF7D2
:103280006FFA0022554BFFF71DFA02460B46DDE9A7
:103290000E01FFF765FA0022514BFFF713FA0246C1
:1032A0000B46DDE90E01FFF75BFA42464B468046CE
:1032B000894600204FF08041FFF718FA02460B467E
:1032C00040464946FFF7FEF902460B46DDE9140188
:1032D000FFF746FA0022434BFFF7F4F9129B002256
:1032E00003F2FF3C4FEA0C53FFF714FA804689467D
:1032F000DDE90A0142464B46CDE90E89FFF7F8FAAF
:1033000068BB4346494607F16302C62A119A8CBF3F
:103310004FF005094FF00409002A3FF49FAE0B431C
:103320003FF48EAEDDE90A0123A3D3E90023FFF7C2
:1033300007FB48B1DDE90A0121A3D3E90023FFF728
:10334000D7FA00287FF47CAEBAF1000F3FF486AEC6
:10335000139B002B3FF482AE0AF1FF3A7EE6002277
:103360001E4B40464946FFF7FBF90A460146034615
:10337000CDE90E12013F1146C5E79FED137B1746BD
:103380004FF004098DED0E7B68E608F100430A97C3
:103390000B933CE6AFF3008061436F63A787D23F96
:1033A00071A379094F930A401655B5BBB16B024022
:1033B000EF39FAFE422EE63F2D431CEBE2361A3F70
:1033C0000000000080842E4100000000000000008A
:1033D0000000F83F0000E03F00002C4000002440C7
:1033E000000018400000F03FFB799F501344D33F8A
:1033F000B3C8608B288AC63F2DE9F04F97B0DDE94E
:103400002089CDE90401DDE9224BCDE906234046C0
:1034100042464B464946DDF890A0FFF745FA0028A2
:1034200040F0C581404649464FF0FF326FF48013AB
:10343000FFF75EFA002840F01D81404649464FF0F4
:10344000FF32C14BFFF790FA002840F0E380B8A3A9
:10345000D3E9002340464946FFF786FA002840F0AA
:10346000CB80B5A3D3E9002340464946FFF740FA95
:10347000002840F0C1804046494600220023FFF763
:1034800037FA002840F0E0801AF480650D9000F0D3
:10349000E980092C40F296810EAB1A460C9330213C
:1034A0000023A4F109050133202B02F8011BA4EB32
:1034B000030600F03A81AB42F5D19FED9D7B8DED87
:1034C000087B49464046FFF7CBF90446FFF7A4F9CD
:1034D00002460B4640464946FFF708F9DDE9082356
:1034E000FFF718F902460B46CDE90A23FFF7CAF9A0
:1034F0000746FFF7A3F902460B46DDE90A01FFF78D
:10350000F5F802460B46CDE90A2300228F4BFFF760
:103510002BFA002800F0DB8001373846FFF78EF9E0
:10352000DDE90823FFF70CFA08B100270134002E6B
:1035300040F0B1802046FFF76FF902460B46404647
:103540004946FFF7D3F80022804B06460F46FFF7A7
:10355000CFF940B93046394600227C4BFFF704FAD8
:10356000002800F015810C9B691E7948194410E071
:1035700080FB0462C3EBA20303EB8302A4EB4204CF
:1035800004F1300201351C4601F8012F002B00F038
:10359000AB80202D4FEAE473EAD10AF00303012B3C
:1035A0001CD1BBF1000F19D00D9B002B40F0F9800E
:1035B0001AF00C0F40F0F580AB4540F2D380202D7F
:1035C0000BD030220C996B1E0B4401355D4503F87E
:1035D000012F00F08D80202DF7D12025DDE9062375
:1035E000DDE904010C9CCDE902BA01950094FFF7D6
:1035F00027FB17B0BDE8F08FCDE92089DDE9062370
:10360000DDE90401CDE923BA229417B0BDE8F04FFB
:10361000FFF7C2BC4F4DCDF88CA00AF0040ABAF1F6
:10362000000F4D4C18BF2C46DDE90623DDE90401EF
:1036300020940CBF03240424CDF888B0219417B043
:10364000BDE8F04FFFF7FCBA4B4642460020002190
:10365000FFF74CF801231AF48065804689460D93E4
:103660007FF417AF9FED367B0EAB06268DED087B02
:103670000C9326E70424DDE90623DDE90401374D38
:10368000CDF88CA0CDF888B02095219417B0BDE876
:10369000F04FFFF7D5BA0C9B681EDFF8C4C0184482
:1036A0000DE0ACFB0721C90801EB8102A7EB420248
:1036B0003032092F00F8012F27D90F461D46202D43
:1036C00005F1010306F1FF36EBD120254BE700227F
:1036D000DDE90A011D4BFFF70BF900287FF427AF46
:1036E000002F5AD1013722E70AF00303012B75D0CE
:1036F000202D3FF473AF0D9BBBB32D2205F1580372
:103700006B4403F8202C013568E7202BDDD0AEB3E5
:103710000C9A1E441544302201E0B3422ED00133EE
:10372000202B05F8012FF8D1CFE71D46C5E600BFD5
:103730000000000065CDCD410000000065CDCDC189
:103740000000000080842E41FFFFEF7F0000E03F7B
:1037500067666666D4DC0010DCDC0010E4DC001078
:10376000CDCCCCCC202D3FF439AF1AF0040F0DD1C5
:103770001AF0080F3FF432AF2022BFE72E2103F1E9
:1037800058026A4402F8201C5D1CECE62B22B5E7C7
:10379000E3077FF5E8AE0134E5E6FA077FF5C7AE4B
:1037A000A0E70BF1FF3BAB453FF609AFA0E70324D1
:1037B000DDE90623DDE904010A4DCDF88CA0CDF842
:1037C00088B061E7084B264603EBC40393ED007B0A
:1037D0000EAB8DED087B00250C9372E6BBF1000F5C
:1037E00086D0E1E6E0DC0010C8DE00102DE9F04FE5
:1037F0009A469BB0249C964D0B94964C0B1E18BF7A
:10380000834625609AF80000934C0A9308BFA346AC
:103810000992002800F0BC824FF000090AE04A46F5
:10382000099B0A9909F10109D8479AF80000002874
:1038300000F0CE8025280AF1010AF0D1002352467B
:1038400012F8010BA0F1200110290AD8DFE801F0DD
:103850004009093C09090909090909380934090914
:103860003000A0F13001092940F28C802A2800F0B4
:10387000F58000210C912E2800F099800027A0F1FE
:10388000680112292DD8DFE811F057012C005101F1
:103890002C0045012C002C002C002C002C002C00AE
:1038A0002C0027002C002C002C002C002C002700C2
:1038B000924643F00103C2E7924643F00203BEE79B
:1038C000924643F00403BAE7924643F01003B6E78A
:1038D000924643F00803B2E79AF8010043F480737C
:1038E00001326728924600F28280242840F2C68086
:1038F000A0F12502422A00F2C180DFE812F05F0148
:10390000BF00BF00BF00BF00BF00BF00BF00BF00BF
:10391000BF00BF00BF00BF00BF00BF00BF00BF00AF
:10392000BF00BF00BF00BF00BF00BF00BF00BF009F
:10393000BF00BF00BF00BF00BF00BF00BF00260127
:1039400045012601BF00BF00BF00BF00BF00BF0090
:10395000BF00BF00BF00BF00BF00BF00BF00BF006F
:10396000BF00BF00D301BF00BF00BF00BF00BF004A
:10397000BF00BF00BF00BF00D3016701D301260114
:1039800045012601002100E0013201EB810100EB3D
:10399000410110789246A0F13004092CA1F13001C8
:1039A000F2D92E280C9102F101027FF467AF9AF848
:1039B00001001146A0F13006092E43F4806340F265
:1039C00031812A2800F03E8192460027013256E7D5
:1039D0004C46099B994501D303F1FF394A46002023
:1039E000099B0A99D84720461BB0BDE8F08FA0F18B
:1039F0006902D2B20F2A41D8012649F2410196400C
:103A00000E4040F001810A2A3FD0072A36D10B9C94
:103A100054F8042B002A00F0288143F021010DF115
:103A2000480E704603E0202E00F029811A4602F06D
:103A30000F052B46092D94BF303337330F2A00F87A
:103A4000013B06F101064FEA1213ECD817E100BF63
:103A5000ED370010AC2C00203D2C00100B9C9AF888
:103A6000010054F8045B9246002DBDBF694243F04B
:103A700002030C910C950B940132FCE64A46099B1B
:103A80000A9909F10109D847CFE60B9951F8048B3F
:103A900098F800201046002F40F0E18072B16FF0DE
:103AA000010C0CF1010C4646C44401E0664503D00C
:103AB00016F8014F002CF9D1A6EB080613F4806C20
:103AC00002D0BE4228BF3E4613F0020400F08781B8
:103AD000002A00F02B81BCF1000F00F041810B9413
:103AE0000D964A46DDE909540E464F4408E02B4640
:103AF0002146D84718F8010F09F1010910B14A46CB
:103B00004F45F4D131460B9C0D9E002C40F00E81A8
:103B10000B918AE69AF801006C287FF4DFAE9AF8E0
:103B2000020043F440730AF10302DAE69AF8010056
:103B300043F400730132D4E69AF80100682800F0DB
:103B4000208143F080030132CBE6672800F0E78054
:103B5000472800F00081452800F0FF800B9C04936B
:103B60000C9B0734CDE9027324F007031C46DDE902
:103B70000931F4E802674A465846CDE900670B94DC
:103B8000FFF70AFA814650E646280B9C08BF43F02F
:103B9000200304930C9B0734CDE9027324F0070340
:103BA0001C46DDE90931F4E802674A465846CDE98A
:103BB00000670B94FFF720FC814636E64A46252035
:103BC000099B0A9909F10109D8472EE60B9A9C072F
:103BD00002F1040709F1010640F1E6801078099B23
:103BE0004A460A99D8470C9B012B40F22C81DDE90B
:103BF0000954994432462B46214620200136D847A5
:103C00004E45F7D10B9710E66F2800F08B8040F2FD
:103C10006581782800F008814FF00A0823F010032E
:103C2000C44647E0002707EB870700EB4700A0F1F9
:103C3000300711F8010FA0F13002092AF3D98A46A2
:103C40004A1C1CE60B9C9AF8020054F8047B0AF10B
:103C5000020A0AF101020B9427EAE7770FE6002A2D
:103C60003FF42CAF07F1FF3C1BE723F0100113F4E6
:103C7000806241F021013FF4D2AE0DF1480E0823DD
:103C80001020059300234A46CDE90230069158469C
:103C9000DDE90931CDE900E60497FFF71FF80B9441
:103CA0008146C2E5582879D0622840F051824FF011
:103CB0000208C44613F480606DD123F00C0313F4A2
:103CC000007240F0C2800B9904310D9113F48071A1
:103CD00040F02E825E060B9A40F1AA801278002AEC
:103CE00040F0DA8023F01003002800F0D580114660
:103CF0000DF1480E06930C9BCDF80CC0CDE9047372
:103D0000019100234A4602935846DDE90931CDF876
:103D100000E0FEF7E3FF0D9B81460B9385E543F43E
:103D200000631BE74FF00808C446C3E70C9B4C46F2
:103D3000B3427FF6EDAE0F464B44A3EB0609DDE937
:103D4000096522463346294620200134D8474C4590
:103D5000F7D13946DCE643F4006343F02003FDE687
:103D60000F460B94DDE909544A462B462146D847B5
:103D700018F8010F09F101090028F5D139460B9C0B
:103D8000C3E69AF8020043F0C0030AF10302A8E573
:103D9000044681461DE623F00D0390E74FF010081E
:103DA00043F02003C44685E70C9B012B45D9DDE990
:103DB00009544E4609F1FF38984432462B462146B5
:103DC00020200136D8474645F7D10C9B324699440E
:103DD0000B9B1878DDE90931D8470B9725E50C9B3B
:103DE000B34240F2EE81CDE90D48DDE90954884641
:103DF0004B449E1BCDF82CC04A462B462146202022
:103E000009F10109D847B145F6D14146DDF83880BE
:103E10000C9BDDF82CC00D9C98F800205E1C104611
:103E2000002A7FF458AE73E64FF01008C44641E70D
:103E30001D064CBF1288126851E713464A4618788F
:103E4000DDE90931D847B146DCE60B9C073424F0A4
:103E500007042246656852F8084B0B9254EA0502A3
:103E600040F02C8123F01003002800F02781002669
:103E70000DF1480E06930C9B4A46CDE904730023CE
:103E8000CDE900E6CDF80CC002935846DDE90931D2
:103E9000FEF724FF8146C8E413F0200F14BF412031
:103EA00061200DF1480E7646A0F10A0803E02029B2
:103EB0003FF420AF2246B2FBFCF40CFB1425E8B221
:103EC000092D00F130058ABF4044E8B2C0B2624516
:103ED00006F8010B01F10101E9D20BE723F0100212
:103EE00069280D9240F06F8113F4806204D04FF482
:103EF000806223F011030D930D9B13F4007640D1E3
:103F00000B9B03F104080D9B13F4807040F0988024
:103F1000590640F1C6800B9B19780C46CB0F00293F
:103F200000F0B98022460DF1480E74461646DFF8BF
:103F3000A0C201E020280FD03546ACFB0621C908FD
:103F400001EB8102A6EB42023032092D0E4600F150
:103F5000010004F8012BEDD80D9ACDE9010306927A
:103F60000C9ACDE904720A234A4603935846DDE9C8
:103F70000931CDF800E0FEF7B1FECDF82C80814686
:103F800053E40B9C073424F0070421460846636879
:103F900050F8081BDC0F0B9051EA030000F0C380BF
:103FA0000A46191E48DB13460DF1480EF44600265A
:103FB000CDE90E94DFF8188201E0202E2DD05A189A
:103FC00042F10002A8FB025929F0030505EB99050F
:103FD000521B1C469B1A61F1000508464FF0CC317C
:103FE00001FB03F108FB0511A3FB0853194405234A
:103FF00005F00109A9FB03399B180A2C03F13003D2
:104000004FEA550570F100000CF8013B06F101067E
:1040100045EAC1734FEA5101CFD2DDE90E940D9B01
:104020004A4606930C9BCDE90164CDE904730A234B
:10403000CDF800E0039328E7524261EB4101B2E77B
:104040000B9B1968CB0F002900F0AB8081EAE1726D
:10405000A2EBE1720DF1480E7046DFF874C101E089
:10406000202E10D01546ACFB0241C90801EB81049B
:10407000A2EB440404F13002092D00F8012B06F1F3
:1040800001060A46ECD80D9ACDE9016306920C9A16
:10409000CDE9047267E7002A3FF445AF0DF1480E01
:1040A0005AE713F0800F0B9B00F08180B3F90010EA
:1040B00081EAE174A4EBE174A4B22FE713F0200FBE
:1040C00014BF412261220DF1480E0A3ACDE90D9745
:1040D000CDF844B000267746F3469146CDE90F3C33
:1040E00003E0202E17D004460D4629464246002301
:1040F000204609F01DFCD2B2092A02F1300388BF24
:1041000002EB09034445DBB275F1000507F8013BFA
:1041100006F10106E5D2DE46DDE90D97DDE90F3C4B
:10412000DDF844B0A6E6002A47D1134611463BE726
:104130000B990968A1B923F0100388B10DF1480E5D
:1041400006930C9BCDF80CC0CDE904730192D8E521
:1041500013F480627FF4CBAE23F010030D93CBE613
:1041600013F0200F14BF412061200DF1480E764658
:10417000A0F10A0802E0202AE2D02146B1FBFCF4BB
:104180000CFB1415E8B2092D00F130058ABF40443C
:10419000E8B2C0B2614506F8010B02F10102EAD2B1
:1041A000CEE7002A3FF456AF0DF1480E6BE71968D1
:1041B00081EAE174A4EBE174B0E600260DF1480E4B
:1041C0002DE701362BE64FF00A081346C44671E589
:1041D000CDCCCCCC0EB410B585B007AC54F8043BB4
:1041E00001464FF0FF32009404480394FFF7FEFAB3
:1041F00005B0BDE8104003B0704700BF352C00107B
:1042000070B594461E4605460C4684B04FF0FF320A
:10421000634602A900960348CDE90254FFF7E6FA87
:1042200004B070BD892F00100FB410B50E4B84B0D0
:1042300006A91C6851F8043B03915CB100914FF052
:10424000FF3202A90948A047012004B0BDE8104090
:1042500004B07047184600F073FA204604B0BDE879
:10426000104004B0704700BFAC2C0020812F00101C
:1042700010B5094B84B01C684CB1034600914FF057
:10428000FF3203A90548A047012004B010BD00F08B
:1042900057FA204604B010BDAC2C0020812F00102E
:1042A00000BEFDE7074A0346106838B106490344DB
:1042B0008B428CBF4FF0FF301360704703490846B4
:1042C0001160F3E7A828002000000820942D0020AA
:1042D00003460846114623B9034BD3E9002300F0F7
:1042E0004FB94FF0FF30704768DE0010431E012BBE
:1042F00009D810B51446084601230022214600F0D3
:10430000C7F8204610BD4FF0FF3070474FF0FF3028
:10431000704700BF4FF0FF30704700BF08B5FFF790
:10432000BFFF00BF9C46144600B50B4602466146DF
:1043300083B044B1054D064801940095FFF774FF22
:104340000120FFF7ADFF034D2C46F4E7ECDC001035
:10435000FCDC0010ECDA001038B5064C064DFEF718
:10436000A5F8AC4204D254F8043B9847AC42FAD3C7
:1043700038BD00BFB8D90010C4D900100368084682
:1043800011461847437D2DE9F04781460F461646F2
:10439000002B43D0002A3BDD037D00204D1E01464B
:1043A00015F8012FDFF884800A2A01F101040ED0EC
:1043B000A6421CD02B782146A3F10D03B3FA83F358
:1043C00015F8012F5B090A2A01F10104F0D1002B35
:1043D000EED18142A1EB000138441BDC02214046B2
:1043E000D9F800309847A64208D02046E2E7864236
:1043F00004DD311AD9F8003038449847374417F8AB
:10440000013CA3F10D03B3FA83F35B0989F814307F
:10441000BDE8F087D9F800309847DFE73846D9F88B
:1044200000301146BDE8F047184700BF18DF001004
:104430000B682DE9F041802B0D46064605D05A1C2D
:104440002B442A601E71BDE8F0810F4B1C68A4B19B
:104450000E4F01F1040801E0246974B12368002BB8
:10446000FAD03B680BB1A342F6D1204641462A68F8
:10447000FFF788FF2469002CF0D1002301222B4490
:104480002A601E71BDE8F0819C280020A42800202D
:104490002DE9F04782B00D46924699460746FDF752
:1044A0003FFE4FF0FF366FF000442F4A821841F173
:1044B0000003964274EB03013CBF324623462B486F
:1044C00009F046FA6B1C804603D1384605F040F9E6
:1044D0000546274B274E1C68274BB9F1000F18BF24
:1044E0001E46B4B1BAF1000F1AD1DFF8909001E086
:1044F000246974B12368002BFAD0D9F800300BB1CD
:104500009C42F5D120462A463946B0472469002C02
:10451000F0D1B8F1000F1FD1284602B0BDE8F087F6
:104520004FF00A0ADFF8549002E02469002CF0D022
:104530002368002BF9D0D9F800300BB1A342F4D195
:104540002A4639462046B047012220460DF1070190
:104550008DF807A0B047E8E7044809F0EDF92846D0
:1045600002B0BDE8F08700BF40420F00901D002060
:104570009C2800207D43001085430010A4280020C3
:104580002DE9F04F984607460E4683B0DFF860B03D
:10459000DFF86090DFF860A00192DBF8004014B90A
:1045A00011E024697CB1D9F800500DB1A542F8D1D1
:1045B000A268002AF5D03146384690470028F0DD41
:1045C00003B0BDE8F08FDAF8242090450BD8DAF874
:1045D0002810019B994204D36FF0010003B0BDE89D
:1045E000F08F9045F8D101200021FDF7A3FDD4E71D
:1045F0009C280020A428002000000B400A4A1368D1
:104600004BB1834202D109E0984207D003F1100276
:104610001B69002BF8D101B1106070470029FCD153
:1046200003691360016170479C28002000F026BBDD
:104630002DE9F04182B00646FDF772FD4FF0FF32E2
:104640006FF00043361841F10007B24273EB0701E7
:104650003CBF16461F46DFF86080154DD8F8004075
:1046600014B912E0246984B12B680BB19C42F9D1D2
:10467000A368002BF6D0012101A898470028F1DD9E
:104680009DF8040002B0BDE8F0810A4B5A6A9742D7
:1046900009D89B6AB34204D36FF0010002B0BDE8B1
:1046A000F0819742F8D101200021FDF743FDD5E7C5
:1046B000A428002000000B409C280020F0B583B007
:1046C00006468DF80700FDF72BFD4FF0FF356FF024
:1046D0000044174A821841F10003954274EB03012C
:1046E0003CBF23462A46134809F032F9124B0746CD
:1046F0001C689CB1114D01E024697CB12368002B3A
:10470000FAD02B680BB19C42F6D1204601220DF164
:104710000701FFF737FE2469002CEFD117B93046A7
:1047200003B0F0BD034809F007F9304603B0F0BD0F
:1047300040420F00901D00209C280020A42800204B
:1047400038B5044605F004F8012305461A4620460C
:104750002946FFF79DFE084B1C682CB163682BB1FE
:1047600098472469002CF9D1284638BD2469002CCB
:10477000F4D1284638BD00BF9C2800202DE9F04127
:10478000A2B004460D46FDF7CBFC4FF0FF376FF0AB
:104790000046274A821841F10003974276EB030155
:1047A0003CBF3A463346234809F0D2F800262B4650
:1047B00007462246204801A90196FFF721FD019BEB
:1047C00006467BB91D4B1C682CB1636843B1984702
:1047D0002469002CF9D10FBB304622B0BDE8F0812E
:1047E0002469F1E7DFF85480D8F80050EDB1144C9B
:1047F00001E02D6975B12B68002BFAD023680BB14D
:10480000AB42F6D12846019A02A9FFF7BBFD2D69FC
:10481000002DF0D1D8F800400195D5E7054809F002
:104820008BF8304622B0BDE8F0810195D3E700BF98
:1048300040420F00901D0020314400109C280020B1
:10484000A42800200FB400B583B004A951F8040BCC
:104850000191FFF793FF03B05DF804EB04B07047DC
:10486000704700BF0022014B1A7070478D2D002049
:104870004B79FF2B0BD1887948B9CB79012B07D124
:10488000082A05D9034B8A7809201A70704700203E
:10489000704700BF8D2D002001207047012901D0F5
:1048A0000120704708B5104B91881B78994201D0C0
:1048B000002008BD5378012B08D0022BF8D100212D
:1048C00064220846FDF72EFD012008BD5188CB0566
:1048D0004BBF4A0A4A0A10464FF0FF3002F001026D
:1048E00001F07F01FDF79CFD8D2D002000487047F1
:1048F000E4DF0010012907D15378012B02D19388FE
:10490000072B03D000207047012070471146A623D3
:10491000014A01F041BA00BF3CDF0010034601220A
:1049200001481A70704700BF1CDF001008B50B6803
:10493000B3F5966F00D008BD00224FF0FF3011464E
:10494000FDF76EFD024A034B10601960704700BF0F
:104950003C28002040280020184B70B51A68002A17
:1049600028D0EFF3108172B6D2E8CF4F0120002C8F
:10497000FAD1C2E8440F002CF6D1BFF35F8F0022BA
:104980000F4C186859602270C0E88F2F81F310888F
:10499000002400250B4E3078FCF794FD20B900244C
:1049A00000252046294670BD3078FCF79BFD204647
:1049B000294670BD4FF47A740025EBE73C2D0020AA
:1049C0008F2D00208E2D0020014B1878FCF78ABD1A
:1049D0008E2D002038B5044600200D4601F008FB5E
:1049E000A8B3002001F01AFB88B3FDF799FB4FF044
:1049F000FF3E6FF0004C174A821841F100039645C4
:104A00007CEB03013CBF72466346134808F0A0FFED
:104A1000E8B1002001F0ECFA58B900214FF0FF3066
:104A200000F012FD6FF002040B4808F085FF2046ED
:104A300038BD002001F0F2FA0028EED021462A46C7
:104A4000002001F0F7FA04460028EDD1EAE76FF004
:104A50000204ECE740420F00702D002008B5FDF77E
:104A60005FFB4FF0FF3E6FF0004C0F4A821841F1A0
:104A7000000396457CEB03013CBF724663460B483E
:104A800008F066FF70B14FF0FF30002100F0DCFC51
:104A9000002001F015FB0028F5D1BDE808400348CF
:104AA00008F04ABF08BD00BF40420F00702D002033
:104AB0002DE9F84307460E46FDF732FB4FF0FF3570
:104AC0006FF00044334A821841F10003954274EBC1
:104AD00003013CBF2A4623462F4808F039FF08B996
:104AE000BDE8F883002001F083FA002848D0002EAA
:104AF00041DD0025DFF8A480DFF8A49013E0224612
:104B0000002001F023FB002104464FF0FF3000F0AD
:104B10009BFC002001F0D4FAFDF702FBC8E900017C
:104B20002544AE4227DD002001F032FB741B844295
:104B3000A8BF04467919002CE1D121464FF0FF307F
:104B400000F082FC204601F0BBFA204601F050FA4A
:104B500088B1204601F01CFB0028E2D1FDF7E0FA05
:104B6000D8F80030D8F8042013EB090342F1000212
:104B700083428A41D5D20848BDE8F84308F0DCBE3C
:104B800000200021054BC3E90001BDE8F8430248BD
:104B900008F0D2BE40420F00702D002020200020DF
:104BA00020A1070030B5002185B02E4808F0DCFEBA
:104BB000F0B92D4B1A68CAB1EFF3108172B6D2E882
:104BC000CF5F0124002DFAD1C2E8454F002DF6D168
:104BD000BFF35F8F254C1D6822785960D3B2012244
:104BE0002270C5E88F0F81F31088CBB105B030BDBE
:104BF00000214FF0FF3000F027FC002001F00EFAFA
:104C00000446184808F098FE002CEFD0184B1B689B
:104C1000002BEBD0174A106805B0BDE830401847AC
:104C2000FDF77AF80446FDF77BFA4FF0FF3C6FF092
:104C3000004510F57A7241F10003944575EB0301CC
:104C400038BF2B464FF000014FF0010520460A4CBB
:104C500038BF6246CDE901150094FDF761F805B053
:104C600030BD00BF702D00203C2D00208F2D002076
:104C70003C28002040280020594900104FF05043A4
:104C800030B585B01C68FDF747F8FDF75BF9A04229
:104C900002D0002005B030BD00212A4B08461B7809
:104CA00001F046FD28480368002B47D00120FCF79F
:104CB000B7FD0346254C2649C0B22370FCF72EFCF5
:104CC00020780121FCF7E8FB0E20FCF717FC40BB25
:104CD000204B0125C3E90000FDF71EF80446FDF74F
:104CE0001FFA4FF0FF3E6FF0004C10F57A7241F161
:104CF000000396457CEB03014FF000012046164C63
:104D00003CBF72466346CDE901150094FDF708F8F3
:104D10000028BEDB01211148FFF770FC012005B01F
:104D200030BD0120FCF774FB01460A48FCF7D4FDB6
:104D300000220E200A49FCF721FCEBE7FCF7B0FD4E
:104D4000B4E700BFBCE40010702D00208E2D0020C1
:104D5000A54B00103C2D002059490010A41600203E
:104D6000C94900100048704780E0001000487047B3
:104D70002CE0001038B5184B04461A780AB344B931
:104D800040F209424FF44173144D6A8013482B805E
:104D900038BD052C1AD8124B104D53F82410284654
:104DA0000023013903E0132B20F8022F10D011F853
:104DB000012F0133DBB2002AF5D15B0043F44073CD
:104DC000E4E71121184600F025F8D8E7002038BDA7
:104DD0004FF44A73DAE700BF782D002074280020D2
:104DE00014E0001000B545F247308BB0FDF70CFB26
:104DF00001220346092101A89847DDE9033204494D
:104E000012BA1BBAC1E900230BB05DF804FB00BF66
:104E1000642D0020012901F1FF3300F0B3805D49CA
:104E20000A784FEA121C9F2A8CBF0CF1370C0CF148
:104E3000300C012B80F800C000F0A78002F00F02B8
:104E4000092A8CBF37323032022B427000F09D802D
:104E50004A784FEA121C9F2A8CBF0CF1370C0CF1D8
:104E6000300C032B80F802C000F08F8002F00F029C
:104E7000092A8CBF37323032042BC27000F0858093
:104E80008A784FEA121C9F2A8CBF0CF1370C0CF168
:104E9000300C052B80F804C077D002F00F02092AED
:104EA0008CBF37323032062B42716ED0CA784FEA4F
:104EB000121C9F2A8CBF0CF1370C0CF1300C072B05
:104EC00080F806C061D002F00F02092A8CBF373289
:104ED0003032082BC27158D00A794FEA121C9F2A2F
:104EE0008CBF0CF1370C0CF1300C092B80F808C08A
:104EF0004BD002F00F02092A8CBF373230320A2B16
:104F0000427242D04A794FEA121C9F2A8CBF0CF1A0
:104F1000370C0CF1300C0B2B80F80AC035D002F0A6
:104F20000F02092A8CBF373230320C2BC2722CD0C0
:104F30008A794FEA121C9F2A8CBF0CF1370C0CF1B6
:104F4000300C0D2B80F80CC01FD002F00F02092A84
:104F50008CBF373230320E2B427316D0CA7911090A
:104F60009F2A8CBF373130310F2B81730DD002F067
:104F70000F02092A94BF30323732102BC27318BF88
:104F8000103002D0002303707047184400230370D0
:104F9000704700BF642D002070B500F033F90C237A
:104FA00040261B4CFF22A3670E201A49FCF7E6FAA5
:104FB000194B32460021184602F084F803460021BE
:104FC00001258020154A58849A60843A5D701E83BA
:104FD0001E875960C2F88410C2F8801002F58072F2
:104FE000DA60DA62803A83F8211083F83B10596264
:104FF0009A624FF0005608F093FC4FF48032084953
:10500000084B25642846E664C4F89010DA6470BD45
:1050100000001150A9030020AC280020840010508B
:1050200010D001000020115001210E20FCF734BAED
:1050300000220248114600F005B900BFCC2800202C
:10504000044B197021B14FF40032034BC3F8902088
:10505000704700BF8A2D0020002011500B785B069E
:1050600002D14B78052B00D070474B88014ADBB248
:105070001360704700001150CB782DE9F04103F028
:10508000030EBEF1010FC3F301005DD0002791F8BC
:1050900002C0354C0CF07F035E00898806EBDC1201
:1050A00004EB42124FEADC15D076C1F30A0185F019
:1050B0000100507082F802C01183D77018B2DA0074
:1050C0008DBB2A48043204EB831C02EB0008CCF8A9
:1050D000088017508BB3264ADB001A44CCF8042012
:1050E000244B3F311A6821F03F01BEF1020F08BF87
:1050F000490011441960204B771904EB4717994276
:10510000FA602CD82E4404EB4613D97E82F0A042DC
:1051100082F480125B6842EA816242F000421A60C7
:105120000120BDE8F081DFF844C004EB831862443D
:10513000C8F828204CF830704BB900220F4904EB16
:105140004513D9605A60EBE70020BDE8F081DB0031
:1051500003F1A04303F58013C8F82430C0E7FDF73E
:105160009FF9FA68CEE700BFAC28002080001050FD
:1051700004001050382D0020FF0F10500001105077
:1051800008F0CEBB8C4608B5114607481A460CF00D
:105190007F034FEADC1C0CEB430C00EB4C1000F0DF
:1051A00051F8012008BD00BFAC280020CB0911F048
:1051B0007F0103D1064AC3F102009066054803EB64
:1051C00041034FF40062002100EB431008F0BCBB28
:1051D00000201150AC28002011F07F0300D170474F
:1051E000002210B4C809064C00EB430004EB401346
:1051F0006FF4006118465DF8044BDA7008F0A4BB48
:10520000AC2800204FF0805209480A4908B50A4BE3
:1052100002600A609968C94311F08051FAD14FF4D5
:105220008052064801F04EFF0922054B5A6708BD1F
:1052300000200240003002400000024000001050F8
:105240000000115000234FF0010C10B580F81AC077
:105250008282C3820161044608F056FB20B14FF4FC
:105260000032074BC3F89020204608F075FB10B1C0
:105270000123237710BD2046BDE8104008F04CBB49
:10528000002011502DE9F04100241D4E0546234613
:105290003278DFF878801B4F0DE03B6813EB441346
:1052A00025D0DB682846984732780134E4B2511C97
:1052B000A142234606DBA242A3EB0203EDD808EB92
:1052C0004313EEE7104C54220021204601F0FAFE71
:1052D0004FF0FF33251D6360C5E90133EB6004F136
:1052E00014002022BDE8F041FF2101F0EBBE4FF099
:1052F000E023D3F8F03DDB0700D500BEBDE8F08128
:10530000892D00204C2300205424002094E000101C
:10531000704700BF704700BF0020704700207047F3
:10532000704700BF704700BF704700BF704700BFA5
:10533000024B5878003818BF0120704754240020D1
:10534000024B1878C0F38000704700BF542400203F
:105350002DE9F047DFF8E8A09AF80030FF2B02D0E3
:105360000120BDE8F0870E4600293ED000215422DE
:105370000746294801F0A6FE0022284C284B20466B
:105380001A70FCF78DFA274B27481C60274CFCF756
:1053900095FA204601F0B0FD254A264B264D1460B3
:1053A00063B32846FFF7BAFA244B2A781860002422
:1053B000DFF890902346DFF884800EE0D8F80030C4
:1053C00013EB441311D05B687BB198472A78013402
:1053D000E4B2511CA142234612DBA242EED89B1A32
:1053E00009EB43135B68002BEFD14FF0E023D3F8B8
:1053F000F03DDB0700D500BE0020B2E72A78D6E7F3
:10540000314638468AF80070FFF7C6FD0028ECD018
:105410003846FFF709FEA3E7542400204C2400205F
:105420008B2D0020A8240020D0160020BC160020C0
:10543000AC2400201D490010892D00204C230020A1
:10544000D816002094E000102DE9F04FDFF8C89244
:105450008BB099F80030FF2B00F0F180A84CA94DDB
:10546000DFF8B0A2DFF8B4B226687369EFF31082F8
:1054700072B6D3E8CF0F01210028FAD1C3E8401F4C
:105480000028F6D1BFF35F8FB261304607A901F063
:1054900081FB00237269C2E88F3FB36983F31088F0
:1054A000002800F0CC809DF81D30013B072B00F256
:1054B0007D83DFE803F0A7B1959D8E350A04089B34
:1054C000002BD1D009989847CEE79DF8201001F025
:1054D0007F0605EB460000EBD11090F8343023F046
:1054E000010380F8343090F8343023F0040380F85E
:1054F0003430002E00F0A680037D9AF800209342FD
:1055000080F09380804A126812EB431300F0908081
:105510009E699DF82120099B9DF81C00B047A3E7D8
:105520009BF80030002B00F083809BF80030013B9B
:10553000DBB28BF800309BF8003003F0FF00002B4B
:1055400092D1704F9DF81C803B7843F001033B7073
:1055500097F8343060F3000387F8343097F834302C
:1055600060F3820387F8343097F8353060F3000336
:1055700087F8353097F8353060F3820387F8353097
:1055800000F06AFC9DF8203003F06002602A6CD0C5
:10559000402A7CD003F01F03012B00F0C180022BB6
:1055A00000F08180002B60D1202A00F0E981002AE0
:1055B0005BD19DF82130092B57D8DFE813F0B001FB
:1055C000A2015600C101560095016B015600600111
:1055D000F4002B78D9077FF547AFFFF7A7FE43E725
:1055E000EB78DA077FF540AF0898FFF793FE3BE7CB
:1055F0002B78D8077FF538AF2878C0F3C000FFF7C5
:1056000093FE31E79DF81C00FFF73CFE00F01AFC0A
:105610009DF82030AB7027E79DF81C00FFF732FEA5
:1056200000F010FCFFF77EFE1EE7501C984211DAD6
:105630004FF0E023D3F8F03DDC0700D500BE0BB0FF
:10564000BDE8F08F099B9DF821209DF81C0000F01B
:1056500017FC09E79B1A2D4A02EB431358E7FFF7A3
:1056600085FB0246002840F082814FF0E023D3F80A
:10567000F03DDE0700D500BE9DF81C000021FFF7BD
:1056800095FD80219DF81C00FFF790FDECE6204879
:1056900000F0E2FB0121404608AAFFF72BF90028A1
:1056A0007FF4E2AEE8E79DF8241011F0700FDCD132
:1056B00001F07F0607EB4600164B00EBD1101B787C
:1056C000007D7600019698424FEAD116009659D394
:1056D0005E1C8642C0F26681C01A0C4B03EB40167A
:1056E000002A00F06381706900F0B6FB012140469A
:1056F000736908AA984700287FF4B6AEBCE700BFDC
:10570000AC240020542400204C23002094E00010FE
:10571000F5480010892D0020D81600208B2D002080
:105720009DF824300F2BA7D8AE4A3B441B79127842
:10573000934232D3511C99429EDBAB4E9B1A06EB2F
:105740004316706900F088FB01214046736908AA7E
:10575000984700287FF488AE9DF8203013F060064B
:105760008AD19DF821300A3B012B85D800F074FBCB
:105770009DF821300A2B00F0F281404608A900F084
:10578000F1FA71E6994B1B6803EB4016002A00F012
:105790000D81002E3FF470AFA5E7944A166816EB12
:1057A0004316CED168E77B789DF822609E4200F0D8
:1057B0004F817B78002B40F0BE817E70002E00F080
:1057C0004581701EC0B2FFF7D1FA0346002800F0F1
:1057D0005F814278022A40F05B81C17903F10906BA
:1057E000C1F340121201C1F3801142EA4112314665
:1057F000387820F0300002433A705A88CDF80C8097
:105800009A180192019B8B4240F2A4814A780B2A9C
:1058100000F0AF810123042A40F03A810026019A6A
:105820000096521A92B202926E4A049312781DE0C8
:105830006E4B1B6813EB461800F02A81029AD8F8C9
:10584000103003980591984708280246059906F1FB
:10585000010303D90298904280F0FF80DEB2614BD1
:1058600000961A78531C9E4200F31281009BB242AC
:10587000A3EB0202DCD85C4B03EB4218DEE77B783B
:1058800040468DF81A300DF11A02012308A900F0E4
:1058900083FAE9E5BDF82200030A013B020AC0B21F
:1058A0000E2B3FF6E9AE01A151F823F0C15A0010CA
:1058B0005D590010FD5A00107956001079560010FD
:1058C000DF5A00105D59001079560010795600100B
:1058D000795600107956001079560010795600104C
:1058E00079560010B35A001008A800F0BBFA4046E1
:1058F0009DF82210FFF79CFB3B7843F002033B70BE
:10590000B2E5BDF82230012B7FF4B6AE3B784046BD
:1059100023F0080308A93B7000F024FAA4E54046F0
:105920003B789A0802F00202C3F340131343ADF828
:105930001A300DF11A02022308A900F02DFA93E59E
:10594000BDF82230012B7FF497AE3B78404643F000
:10595000080308A93B7000F005FA85E5022A3FF428
:105960007EAEFFF7DBFC024600283FF485AE4046E2
:10597000538808A900F010FA00287FF475AD7BE683
:105980009DF824300F2B3FF677AE164A3B441B7927
:10599000127893421DD2154A166816EB43167FF40F
:1059A000A2AE69E6002A7FF467AE00269DF82120AA
:1059B00002F0FD03012B1BD0002A7FF456AE019BA1
:1059C000009A3B44134493F834304046C3F34003F9
:1059D000ADE7511C9942FFF64FAE034E9B1A06EB02
:1059E000431680E6892D002094E000104C2300200F
:1059F000BDF82230B3B9012A99F8000000F0868082
:105A0000FFF7D4FB019B009A3B44134493F83420E6
:105A100042F0020283F8342093F8342042F001026D
:105A200083F83420002E3FF41FAD706900F014FAA3
:105A30007369012108AA40469847002000F00CFA3B
:105A400097F83530DF073FF50FAD96E6FFF76AFCB4
:105A5000404608A900F086F906E5049B012B00F0FA
:105A60009E80002B00F08A80002091F8028005E0E3
:105A70008CF804605FFA80FC63457FD908EB000C6A
:105A800057FA8CFC9CF804E00130BEF1FF0FEFD018
:105A90004FF0E023D3F8F03DDA0700D500BE4FF019
:105AA000E023D3F8F03DDB0700D500BE00237B7078
:105AB000E2E5FEF71BFF024600287FF458AFDBE566
:105AC000FFF750F9024600283FF4CFAD40461223BD
:105AD00008A900F061F900287FF4C6ACCCE5FFF717
