:020000041000EA
:10000000002008205D0100101301001015010010F0
:100010001101001011010010110100101101001058
:100020001101001011010010110100101701001042
:100030001101001011010010190100101B01001026
:100040001D0100101D0100101D0100101D010010F8
:100050001D0100101D0100101D0100101D010010E8
:100060001D0100101D0100101D0100101D010010D8
:100070001D0100101D0100101D0100101D010010C8
:100080001D0100101D0100101D0100101D010010B8
:100090001D0100101D0100101D0100101D010010A8
:1000A0001D0100101D0100101D0100101D01001098
:1000B0001D0100101D0100101D0100101D01001088
:1000C0001D0100101D0100101D0100101D01001078
:1000D0001D0100101D0100101D0100101D01001068
:1000E0001D0100101D0100101D0100101D01001058
:1000F0001D0100101D0100101D0100101D01001048
:100100001D0100101D0100101D0100101D01001037
:1001100000BE00BE00BE00BE00BE00BEEFF3058004
:10012000103800BEF2EB8871B8E50010D8E5001079
:10013000A801001090A31AE7D3DEFFFF42012110AF
:10014000FF010000F8000100793512AB4FF000000C
:100150002049086006C881F3088810474FF05040D6
:10016000006810B14FF00000F2E70FA40ECC002998
:1001700002D000F015F8F9E71749184A002000E00E
:1001800001C19142FCD1002080F30A8814498847BC
:10019000144988471449884700BEFDE701C901C2D8
:1001A0009A42FBD3704700BFD8E500101001002031
:1001B000681D002030020110000008200000082007
:1001C000300201100010082000100820000000007C
:1001D0007047000008ED00E0681D0020E82C0020BA
:1001E000394400104D060010FD430010F8B500BF63
:1001F0000348044B834202D0034B03B118477047B6
:10020000681D0020681D002000000000064B074903
:10021000C91A891048BF0131491003D0044B0BB1F2
:1002200001481847704700BF681D0020681D002066
:100230000000000010B5064C237843B9FFF7D8FF43
:10024000044B13B10448AFF300800123237010BDA9
:10025000D81F0020000000008CDA001008B5044B05
:100260001BB104490448AFF30080BDE80840CDE766
:1002700000000000DC1F00208CDA001038B501F00F
:10028000BFFF002943D04FF47A7200230DF0ACFB7E
:100290004FF050433B4A5B6892F800C003F480047F
:1002A000C3F380539C454FF0000135D0364C13709A
:1002B000C4E900014FF050435B6892F801C003F4B9
:1002C0000014C3F340539C4534D02F4C5370C4E901
:1002D00002014FF050435B68947803F48045C3F308
:1002E00080339C4233D0284C9370C4E904014FF012
:1002F00050435B68D47803F40045C3F3C0339C4299
:1003000032D0214CD370C4E90601002038BD1F4A09
:10031000A2FB00208009BBE7002CCBD11A4BD3E90C
:100320000043041B63EB4303322C73F10003C1D37E
:10033000012038BD002CCCD1134BD3E90243041B60
:1003400063EB4303322C73F10003C2D3F0E7002DBB
:10035000CDD10D4BD3E90443041B63EB4303322C93
:1003600073F10003C3D3E3E7002DCED1064BD3E9ED
:100370000623801A63EB4303322873F10003C4D3CE
:10038000D6E700BF602C0020B81F0020D34D6210BC
:1003900010B52DED028BDFED268A9FED268A264CC7
:1003A00084B000F00DFE03460DF1030202A901A87E
:1003B000CBB300F02DFE9DF80330072BF1D99DF84B
:1003C0000430012B2DD0022BEBD11C48BDF80A20A4
:1003D000BDF80C30BDF80810D2BA07EE102ADBBA0F
:1003E000CABA07EE903A06EE902AB2EE046AF8EE28
:1003F000E66AB8EEC77AF8EEE77A4FF0010C66EEDF
:10040000A86A27EE067A67EE887ABDF80E30C0ED4E
:10041000006A80ED017AC0ED027A80F80EC0838117
:10042000BFE72046D2E704B0BDEC028B10BD00BF91
:10043000CDCCCC3D0AD7233C6C2C00207C2C00205A
:100440002DE9F04F2DED068B87B006461698DFEDAF
:10045000767A07EE100ADFED756A67EE277A87EE87
:10046000A67AFDEEC77A17EE908A0F4608EE102A9C
:1004700008EE903A0DF0B4FAB8F1000F04460D46BC
:1004800040F3C18007EE908A4FF0000B38EEC87A37
:10049000FAEEEF7A18EE100A87F80EB0C7EE279A38
:1004A0000DF09EFACDE90245044618EE900A0D467D
:1004B000CDF810800DF094FA2B46CDE900012246CC
:1004C00031465B4804F02EFA5D469FED55ABDFF8F0
:1004D0007491DFF874A15EE04FF47A7200230DF09E
:1004E00083FA0446FFF7CAFE834600285FD118EE60
:1004F000101A304600F02EFDFFF74AFFBB7BA3B376
:1005000097ED009AB0EE007A78EE497AF4EEC77A69
:10051000F1EE10FA72DDF6EE006AB1EE087A67EEDF
:10052000A68AF4EEC78AF1EE10FA62DC18EE900AA1
:100530000DF056FAFDEEE87A17EE90BACDE9040117
:1005400019EE100A0DF04CFACDE9020118EE100A6E
:100550000DF046FA2A46CDE900013146504604F036
:10056000E1F95946304600F0E1FC01F049FE38EE71
:10057000298A034699B34FF47A7200230DF034FAB6
:10058000021B63EB0303B2F5FA7F73F100032AD376
:100590000135A8451AD001F033FE00299CD1A9FBF2
:1005A0000034FFF76BFEA409834600289FD0314634
:1005B000204804F0B7F90021012000F0B7FC012029
:1005C000002100F0DFFC1C4804F02AF931461B48EA
:1005D00007B0BDEC068BBDE8F04F04F0A3B9A9FB52
:1005E00003308009CCE704F5FA74201A01F07AFD93
:1005F000CEE74FF0060B51EC1A0B9FE759463046F9
:1006000000F094FCB1E702460B4631460C4807B0B7
:10061000BDEC068BBDE8F04F04F084B9AFF3008069
:10062000000000000000184000007A440000FA4377
:10063000B8DA0010F8DA001020DB001080DB0010C0
:1006400090DA0010D34D621034DB00102DE9F04F2A
:100650002DED048BA3B004F059F84FF4FA6001F0CB
:1006600041FDB74804F0DCF8162000F07FFE4FF0A3
:100670000004162044EC44000022012100F062FE38
:10068000152000F073FE152044EC440000220121E7
:1006900000F058FE0E2000F069FE0E2044EC4400ED
:1006A0000022012100F04EFE0F2000F05FFE0F201F
:1006B00044EC44009FEDA38A0022012100F042FE99
:1006C00000F094FA00F05AFB642001F00BFD0027C3
:1006D0009FED9D9AF0EE488A8DED078A9B4EDFF8DC
:1006E000ACA29B4C12AD0DF12C0BFFF7C7FD0028FF
:1006F0005AD1FFF74DFEB37B002B69D19AF80E302B
:10070000002B40F08380002004F002F8831C11D0FD
:100710000D28F8D023680A2803F1010200F0948024
:100720003E2B00F29180E8540020226003F0F0FF9D
:10073000831CEDD1002F30D07B1E052B2DD8DFE898
:1007400013F034014D01F900AB002C002200814967
:100750000EA806F0A5FD80B17F490EA806F0A0FD09
:1007600058B17E490EA806F09BFD30B17C490EA819
:1007700006F096FD002840F04E817A490EA806F05A
:100780008FFD0028D6D1002240F20150114600F022
:1007900013FB754804F044F806270A2001F0A2FC78
:1007A000FFF76CFD0028A4D0704804F039F8002150
:1007B000012000F0BBFB0021012000F0E3FB6C48AE
:1007C00004F02EF8FFF7E4FDB37B0027002B95D053
:1007D00030680DF005F9737B8046059396F90C306F
:1007E000B068049389460DF0FBF8CDE9020170680A
:1007F0000DF0F6F84B46CDE9000142465D4804F0A5
:1008000091F89AF80E30002B3FF47DAFDAF8000033
:100810000DF0E6F89AF80D30804605939AF90C3001
:10082000DAF80800049389460DF0DAF8CDE9020100
:10083000DAF804000DF0D4F84246CDE900014B4649
:100840004D4804F06FF85EE70AAA00920022CDF846
:1008500004B04A49EA542260284609AB0EAA06F0C1
:10086000C1FC474980460EA806F01AFD002800F09A
:10087000BB8044490EA806F013FD002840F0888094
:10088000B8F1030F40F38480DDED097ADDED0A8ACB
:10089000CDED077A9DED0B8ABDEEE87ADDED077AA6
:1008A00017EE103A0027BDEEC87A67EE897A43F357
:1008B000072C6CF307071BB263F30F2717EE103AF0
:1008C000FDEEE77A43F3072C6CF317471BB263F393
:1008D0001F6717EE903A08221BBA40F201600CA97C
:1008E0000C930D9700F068FA07980DF079F88046A0
:1008F00018EE100A89460DF073F8CDE9020118EEE2
:10090000900A0DF06DF84246CDE900014B461E48B5
:1009100004F008F8042740E70F490EA806F0C0FCD1
:1009200000286ED1B8F1010F7FF727AFDDED097A0E
:10093000CDED077A0120079900F024FB03272CE76F
:10094000FCDB00100000000000401C466C2C002066
:100950005C2C0020C4DC0010C8DC0010D0DC0010CF
:10096000D8DC0010E4DC0010D4DB001008DC001040
:1009700020DB00101CDC00105CDC00109CDC001094
:10098000ACDC0010B4DC0010A8DB00107C2C0020D4
:1009900034490EA806F084FC90B9B8F1010F7FF736
:1009A000D6AEDDED097ACDED077ADDED077AFDEE05
:1009B000E77A012017EE901A00F0B8FA0127ECE66A
:1009C00029490EA806F06CFC0028A5D1B8F1010F4A
:1009D0007FF7D3AEDDED097ACDED077A01200799D7
:1009E00000F0B8FA0227D8E60146012000F09EFA8E
:1009F0000120002100F0C6FA1C4803F011FF002777
:100A0000CBE61B490EA806F04BFCC0B9B8F1030FAA
:100A10003FF73AAFB1E617490EA806F041FC0028AF
:100A20007FF4ABAEB8F1030F7FF7A7AE0B9B0220AC
:100A30000093099A0A9B1049FFF702FDDFE70F496F
:100A40000EA806F02DFC0028E5D1B8F1030F7FF7C2
:100A500094AE0B9B01200093099A0A9B0849FFF76B
:100A6000EFFCCCE7C0DC0010C4DC001020DB001081
:100A7000D0DC0010DCDC00107C2C0020D8DC001066
:100A80006C2C00202DE9F04F43F2030A4FF00108CF
:100A900083468946544F83B0002511242E46ADF875
:100AA00004A08DF8035045EC4040022201A93846CD
:100AB0000CF0C2FF0123294638460DF103020CF069
:100AC000B3FF48EC40409DF8033013F00805E3D134
:100AD00046EC404043F202130322ADF8043001A972
:100AE0004FEA5B5340488DF806300CF0A5FF48EC08
:100AF000404046EC404043F20223ADF804304FEA58
:100B0000DB23CBF3824203F06003134343F008037B
:100B1000032201A934488DF806300CF08DFF48EC13
:100B2000404046EC404043F202330322ADF804302B
:100B300001A94FEA1B232C488DF806300CF07CFFEE
:100B400048EC404046EC404043F20243032201A9F6
:100B500025488DF806B0ADF804300CF06DFF48EC78
:100B6000404046EC404043F20253ADF804300423C9
:100B700003220DEB03011C488DF806300CF05CFFDE
:100B800048EC40404E462C464FF00105DFF85880B7
:100B900009F10409C6F13607BB194FF0110A16F81E
:100BA000010BDBB244EC40A04FF0020C8DF80600C4
:100BB0000322404601A98DF805308DF804C00CF0E1
:100BC0003BFF45EC40A04E45E6D144EC40A08123DC
:100BD000012201A904488DF804300CF02DFF45ECEA
:100BE00040A003B0BDE8F08F000008402DE9F047B9
:100BF000112082B000F0BAFB4FF00108112448EC3C
:100C0000444048EC40405A4E5A49304606F01EFADD
:100C10004146102000F078FB4146122000F074FBA2
:100C20004146132000F070FB4FF0000949EC4040B2
:100C3000C0234246304601A98DF804300CF0FCFE7A
:100C400048EC40400A2001F04DFA0A2001F04AFA2F
:100C500049EC404040F60273ADF804308023032293
:100C6000304601A98DF806300CF0E6FE48EC404015
:100C70000A2001F037FA49EC404042F602230322F1
:100C8000304601A98DF80690ADF804300CF0D4FE82
:100C900048EC404049EC404042F60213ADF80430C5
:100CA000D0230322304601A98DF806300CF0C4FE93
:100CB00048EC404049EC404042F60203ADF80430B5
:100CC00082230322304601A98DF806300CF0B4FED1
:100CD00048EC404049EC404046F202034FF0600AC5
:100CE0000322304601A9ADF804308DF806A00CF0BF
:100CF000A3FE48EC404049EC404047F20203032287
:100D0000304601A98DF806A0ADF804300CF094FE31
:100D100048EC404049EC404042F602430322304652
:100D200001A98DF80690ADF804300CF085FE48EC72
:100D3000404040F603638DF80390ADF8043049EC71
:100D40004040022201A930460CF076FE4346494657
:100D500030460DF103020CF067FE48EC40400648B7
:100D60009DF8031002B0BDE8F04703F0DBBD00BF03
:100D70000000084040420F00ECDC001010B50023DA
:100D800082B0112443EC404040F6027C032201A9CA
:100D900008488DF80630ADF804C00CF04DFE4FF059
:100DA000010343EC40400A2002B0BDE8104001F0CE
:100DB00099B900BF000008402DE9F04F43F2030A43
:100DC0004FF001088346914685B0574F01910025A9
:100DD00011242E46ADF80CA08DF80B5045EC404088
:100DE000022203A938460CF027FE01232946384683
:100DF0000DF10B020CF018FE48EC40409DF80B5032
:100E000015F00805E3D146EC404043F202130322FB
:100E1000ADF80C3003A94FEA5B5343488DF80E3010
:100E20000CF00AFE48EC404046EC404043F20223FE
:100E3000ADF80C304FEADB23CBF3824203F06003C2
:100E4000134343F00803032203A937488DF80E30FB
:100E50000CF0F2FD48EC404046EC404043F20233D7
:100E60000322ADF80C3003A94FEA1B232E488DF85E
:100E70000E300CF0E1FD48EC404046EC404043F2BF
:100E80000243032203A928488DF80EB0ADF80C30B8
:100E90000CF0D2FD48EC404046EC404043F2025397
:100EA000032203A920488DF80E90ADF80C300CF009
:100EB000C3FD48EC4040B9F1000F21D0019B4FF039
:100EC00001081C464B449946174FC4F136063319A6
:100ED0004FF0110A14F8010BDBB245EC40A04FF0C3
:100EE000020C8DF80E000322384603A98DF80D3050
:100EF0008DF80CC00CF0A0FD48EC40A04C45E6D1AC
:100F000011244FF0000343EC40408123012203A948
:100F100005488DF80C300CF08FFD4FF0010343ECC9
:100F2000404005B0BDE8F08F000008400B4600B51A
:100F300083B01BBA01A940F440700193FFF7A2FDF2
:100F400001A9034803F0EEFC03B05DF804FB00BF09
:100F500008DD00109FED0A7A07EE901A67EE877A97
:100F6000FDEEE77A17EE903A00B583B01BBA01A9FF
:100F700040F480600193FFF785FD03B05DF804FB4A
:100F8000E438DE4106EE101ADFED0B6A9FED0B7AB6
:100F9000C6EE267A67EE877AFDEEE77A17EE903A8C
:100FA00000B583B01BBA01A940F480700193FFF72C
:100FB00069FD03B05DF804FB77BE9F3D00007A44F5
:100FC00070B542F60342002482B01125ADF804202A
:100FD0008DF8034044EC40500C4E01A902223046EB
:100FE0000CF02AFD0123214630460DF103020CF0DE
:100FF0001BFD4FF0010343EC40509DF8030010F03F
:10100000030018BF012002B070BD00BF00000840FF
:101010002DE9F04F0023A0258BB0112483468A468A
:101020001646ADF824300192ADF8205043EC404014
:10103000022309AA08A9B1480CF0DEFC4FF0010315
:1010400043EC40409DF8253013F0400240F04981C8
:101050001D0640F1EA807423762105937523CDE9BE
:1010600006317323049371234FF072080293002515
:1010700003271124A9468DF825308DF820508DF8CE
:10108000247045EC4040022209A99C480CF0D4FC95
:101090000123294608AA99480CF0C6FC4FF0010626
:1010A00046EC40409DF820308DF825808DF8247066
:1010B00003938DF8205045EC4040022209A98F4847
:1010C0000CF0BAFC0123294608AA8C480CF0ACFCB1
:1010D00046EC40409DF8208018F0080100F0A980FF
:1010E00004998DF824708DF825108DF8205045EC6A
:1010F0004040022209A981480CF09EFC01232946A8
:1011000008AA7E480CF090FC46EC404005998DF80A
:1011100024708DF825109DF820108DF82050049132
:1011200045EC404009A80146022274480CF084FCBA
:101130000123294608AA71480CF076FC46EC404091
:101140000499039A0B0243EA42539DF82020069823
:1011500013434FEA483202F4E0124FEA08481343BF
:1011600008F4403843EA08038DF825008DF8247010
:101170008DF82050CBF8003045EC4040022209A900
:101180005E480CF059FC0123294608AA5B480CF084
:101190004BFC46EC40409DF82030019A03F00F03D1
:1011A000137063B3079B0AF1FF34CAF10108DFF83B
:1011B0004CA1A3EB040B00250BEB04034FF011092A
:1011C0008DF825308DF824708DF8205045EC409036
:1011D000022209A950460CF02FFC01232946504653
:1011E00008AA0CF021FC46EC40909DF8203004F851
:1011F000013F019B1A7808EB04039A42DBDC029B57
:10120000612B6CD03E4B099311244FF0000343EC4B
:101210004040042209A939480CF00EFC4FF00103AC
:1012200043EC40400BB0BDE8F08F32700BB0BDE82E
:10123000F08F049B4FEA58188DF82530039B0D461C
:1012400048EAC303CBF800308DF824708DF82010E5
:1012500049EC4040022209A928480CF0EDFB01238B
:10126000294608AA25480CF0DFFB46EC40409DF8D3
:101270002030019A03F00F031370002BBFD0059BA1
:101280000AF1FF34CAF10108DFF870A0A3EB040BE8
:1012900000250BEB04034FF011098DF825308DF874
:1012A00024708DF8205045EC4090022209A9504648
:1012B0000CF0C2FB01232946504608AA0CF0B4FBEF
:1012C00046EC40909DF8203004F8013F019B08EB6C
:1012D00004021B789A42DBDB029B612B92D1094B03
:1012E00091E76423662405936523CDE906346323DF
:1012F000049361234FF062080293B8E600000840AF
:10130000052C0200052C010010B44FF480740C4B26
:1013100053F8202003EB8003C00082F0400200F16C
:10132000804003F5805C02F0C00200F5203003F538
:101330004053CCF8002041601C605DF8044B7047BE
:101340000480034010B4084CC90041EA820154F8FB
:10135000202004EB8003514003F5805301F00C0181
:101360005DF8044B196070470480034030B44FF0BF
:10137000000343EC440043EC400005254FF4807427
:101380000B4BC20053F8201003EB800081F04001AA
:1013900002F1804303F5203301F0C00200F58051D3
:1013A00000F540500A605D60046030BC704700BFCB
:1013B000048003400FB400B583B0049C074803F0D9
:1013C0002FFA3CB105A92046019102F0C1FF044863
:1013D00003F026FA012002F0D3FF00BF34DD001035
:1013E0007CDB001070B58646EFF3108572B6124CA8
:1013F000D4E8CF6F0120002EFAD1C4E8460F002EAA
:10140000F6D1BFF35F8F4FF0010CC80801F007035E
:101410000CFA03F31EF800C01CEA030608D14CEADC
:10142000030C0EF800C0C4E88F6F85F3108870BD00
:101430001046FFF7BFFF00BFE3230020F8B5EFF32E
:10144000108572B6234CD4E8CF7F0126002FFAD145
:10145000C4E8476F002FF6D1BFF35F8F9A4227D8B9
:101460000126D70810F807E002F0070C06FA0CFC7A
:101470001EEA0C0F00EBD2070DD125E04FEAD20E89
:1014800010F80EE002F0070C06FA0CFC1EEA0C0F36
:1014900000EBD20718D001329342EFD24FF0FF3069
:1014A0000023C4E88F3F85F31088984207DBF8BD1E
:1014B0000023C4E88F3F85F310884FF0FF300029E8
:1014C000F5D00698FFF776FF4EEA0C0E104687F827
:1014D00000E0E5E7E3230020044A1078431CDBB278
:1014E000182B28BF10231370704700BF1016002060
:1014F00010B5054C82B001461F2318220094034802
:10150000FFF79CFF02B010BD44DD0010F42700205F
:101510004FF0E022936843F000539360704700BFA0
:101520000021044B03F12002C3E88F1F01339342D3
:10153000FAD17047D82300204FF0E0234FF08032DB
:10154000C3F80024C3F80424C3F80824C3F80C2407
:10155000C3F81024C3F81424C3F81824C3F81C24B7
:10156000C3F82024C3F82424C3F82824C3F82C2467
:10157000C3F83024704700BF012300F01F029340DE
:10158000400941B1800000F1604000F56140C0F8C1
:10159000803103607047024A203042F820307047A3
:1015A00000E100E00123064A410952F8212000F041
:1015B0001F008340134214BF01200020704700BF6A
:1015C00000E100E001224309034900F01F008240CE
:1015D000403341F82320704700E100E0054A103015
:1015E0009268054B52F82000C01A2F288CBF0020AB
:1015F0000120704700ED00E014160020F8B50D46FC
:10160000EFF3108772B6124ED6E8CF2F0123002ACF
:10161000FAD1C6E8423F002AF6D1BFF35F8F0D4BE7
:1016200000F110049B680C4A53F82430934203D015
:10163000994201D000F0A4FF064B9B6843F8245068
:10164000BFF35F8F0023C6E88F3F87F31088F8BD94
:10165000E123002000ED00E01D0100102DE9F04F16
:1016600081468B46164683B0EFF3108372B6DFF8DF
:10167000D0A10093DAE8CF1F01230029FAD1CAE8EC
:10168000413F0029F6D1BFF35F8F664B93F90040CD
:10169000002CC0F2A080644D04EB440705EB8708E2
:1016A00098F8061009F110091970604BBF009B688B
:1016B00053F829006300411B2F292FD95C49884228
:1016C00040F0A4801C445B4B02372F44043BDB1BDF
:1016D000C3F34A036FEAC3434FF421416FEAD34394
:1016E00025F8241005EB840463804BF60153A38096
:1016F000FF2348F00100E671C4F808B0A3714B4B1A
:101700009B6843F82900BFF35F8F0023CAE88F3F2F
:10171000009B83F3108803B0BDE8F08F20F0010E2A
:101720009EF80710B1422ED84FF42143EB53414BA2
:10173000B91C2944043B04375B1A2F44AEF1040161
:101740003D4CC91BC1F34A012143A8F80410C3F35F
:101750004A033A492343A8F802304AF6AA207346BE
:101760005B1B5B415843000D88F8076088F8060052
:10177000C8F808B048F00100CEF80010BFE7D179F2
:10178000B1422ED996469EF906C00CEB4C02BCF134
:10179000000F05EB8202F2DA4BF601510EF1040262
:1017A000A8F10407BF1AC7F34A076FEAC7476FEAF1
:1017B000D7478EF8064003EB0408204C05EB88035E
:1017C000AEF8047045F82840998083F806C0DE71B1
:1017D000C3F808B093E700F0D3FE124B93F9004032
:1017E00059E7724632F8041F490514D449150231ED
:1017F00002EB410101916FF00701C91B019F491BD9
:101800003944C1F34A0141F46041C9E7019300F052
:10181000B7FE019B56E701F5FF1101F5FF511F319E
:10182000E4E700BFE02C00201416002000ED00E0EB
:101830001D0100104416002000E0FFFF0148804712
:10184000E1230020F0B5EFF30585EDB2EFF3108C46
:1018500072B62649D1E8CF2F0123002AFAD1C1E878
:10186000423F002AF6D1BFF35F8F214E40F0010EB8
:10187000B4684AF6AA2354F825701E4A0446A41AEE
:10188000644163431B0D77455BB21BD092F9064060
:101890009C421CD092F912409C4223D092F91E40E7
:1018A0009C4221D092F92A409C4208BF03240FD0C9
:1018B000114A0024157813708571C1E88F4F8CF39D
:1018C0001088F0BDB2680D4C42F82540F0E70024C6
:1018D00004EB440402EB8402FF2494714BF60154A0
:1018E0009480E5E70124F3E70224F1E7E1230020F7
:1018F00000ED00E014160020E02C00201D01001077
:1019000010B5074C82B0014605230022009405481B
:10191000FFF794FD0028A8BFC0F1330002B010BD4E
:1019200060DD0010E42C0020014B0B440360704785
:10193000D823002070B5104C104DAC420ED2FF26BB
:10194000236863B1FFF7C8FD01462046FFF7ECFFAF
:10195000A680BFF35F8F0834AC42F1D370BDFFF7B0
:10196000BBFD01462046FFF7DFFF2671BFF35F8F07
:101970000834AC42E4D370BD601D0020681D002017
:1019800010B50446FFF7A8FD01462046FFF7CCFF3F
:10199000FF232371BFF35F8F10BD00BF10B5044656
:1019A0000120FFF7A5FD034B03442360BFF35F8FC6
:1019B00010BD00BFD8230020024B0B440360BFF3CF
:1019C0005F8F7047D82300200D4B1A68EFF310810A
:1019D00072B6D2E8CFCF0120BCF1000FF9D1C2E836
:1019E0004C0FBCF1000FF4D1BFF35F8F00221B68D6
:1019F000C3E88F2F81F3108840BF0020002170477B
:101A0000C02C0020000000002DE9F04F2DED028BCE
:101A100085B0EFF30583DBB2103B9A0818BF0122B3
:101A20004FF0010103F0030018BFAF4DAF4B08BFEB
:101A3000AF4D00EB820253F8226001FA00FB05F57E
:101A400041539FEDA78B0190C3F804B02EE0B388FB
:101A5000180440F19280B379002B40F0DC80B6F995
:101A600008100029C0F21D81736901EB410103EBED
:101A7000C103D3E90247B7F1FF3F08BFB4F1FF3F0D
:101A80000DD0019B05EB8301AB6A0A69D21AE31AF8
:101A9000934203D32B6A13EA0B0F00D10C61284643
:101AA00000F0A6FBA042B941C0F2FB80B6F90830B5
:101AB000C5F83CB0002B0093C9DBD6F8149003EBBB
:101AC000430A284609EBCA07D7E9024800F090FB11
:101AD000A04271EB0801BADBB8F1000FC0F2C3807D
:101AE000D7E90431834A934200F0ED807A88B6F951
:101AF000080092B242EA0040984702460B4652EA7A
:101B0000030100F0B080002B80F2D180B4EB020E14
:101B100068EB030839F93A30C7E902E8002B96DB95
:101B2000716903EB430201EBC202D2E90270BE45C8
:101B300078EB000C4FEA430289DBB4462CF8083FEF
:101B40000BE031F93230A446002B0DDB03EB4300F0
:101B500001EBC0005A00D0E90270BE451A4478EB90
:101B6000000001EBC204ECDA29F83A30009BACF833
:101B70000030B38818043FF56EAF3369EFF310827D
:101B800072B6D3E8CF0F01210028FAD1C3E8401F75
:101B90000028F6D1BFF35F8F4FF6FF74B0880023A3
:101BA000316900B2B480C1E88F3F82F31088984257
:101BB000FFF651AF0746A946746906F1080807EB1E
:101BC000470E04EBCE03D3E90250B6F90830C44601
:101BD000002B13DBB246009704E034F9363094460C
:101BE000002B09DB03EB430604EBC602D2E90271CA
:101BF000BD4270EB0101F0DA5646009FACF8007070
:101C000034F93E7024F83E30002FD8DAB3794D46CF
:101C1000002B3FF424AF0023B371B6F9083006F16E
:101C20000808591C3DD01946776903E080465A1CC4
:101C30003FF417AF03EB430207EBC200B0F802C05A
:101C40001C461CF4004F9E4637F93230EED08C42D1
:101C500080ED028B05D0A8F80030318927F83210CA
:101C600034817146E3E739F83A3033813369EFF371
:101C7000108272B6D3E8CF0F01210028FAD1C3E851
:101C8000401F0028F6D1BFF35F8F7388316929F8B0
:101C90003A30009B73800023C1E88F3F82F31088A5
:101CA000D5E640BF05B0BDEC028BBDE8F08F2846FD
:101CB000CDE9022300F09CFA029A039B10EB020E7E
:101CC00043EB010826E708460B6902919847002874
:101CD000C9D00299D1E9002311E700BFAFF300801A
:101CE000FFFFFFFFFFFFFFFF00800B40982C00204D
:101CF00000000B40091A00102DE9F84F364C2569F9
:101D00002DB1BDE8F84F0A213448FFF70DBEDFF8CA
:101D1000E4800321404600F059FA0326C4F80C8001
:101D2000FFF7DAFB4FF0504C2D4B26700344236134
:101D3000DCF800300F216370636961801D834FF010
:101D40000405A3F878504FF00505A3F890504FF024
:101D50000605A3F8A8504FF007050E214FF6FF72B5
:101D600008274FF00A0EA3F8C0504FF001094FF0BA
:101D70000C0C4FF0020B4FF0090A0D204FF00B0531
:101D8000A3F868111749A280A3F808E1A160A3F89D
:101D900048B0A3F8F0A0A3F82051A3F838C1A3F8E5
:101DA0005001A3F83090A3F86060A3F8D8701A80AF
:101DB0000D4B3046C8F820700C49DC60FFF71EFC64
:101DC00049463046FFF7D8FB094B0A211F640348F8
:101DD000BDE8F84FFFF7A8BD5C160020C02C00201E
:101DE000D8230020FFFF1000982C0020091A0010B3
:101DF00000200B4000000B40004870475C1600209C
:101E0000F8B59DF82070044616461D4637B900F017
:101E1000F7F9864265EB010100295CDB2369EFF3EA
:101E2000108772B6D3E8CF1F01220029FAD1C3E888
:101E3000412F0029F6D1BFF35F8FB4F902C0636967
:101E40000CEB4C01BCF1000F4FEAC10203EBC101E6
:101E500038DB985A4FF0000E60802069C0E88FEFA1
:101E600087F310880698C1E9026508610798486100
:101E700048880130C0F30E00012838BF0120488097
:101E800040EA0C402169EFF3108572B6D1E8CF7FAC
:101E90000126002FFAD1C1E8476F002FF6D1BFF31A
:101EA0005F8FA1889952A4F804C02369C3E88FEF1B
:101EB00085F310880122E368217803F501538A40F5
:101EC0005A60F8BD00232269C2E88F3F87F310886B
:101ED0004FF0FF30F8BD3846F8BD00BF0146F0B501
:101EE0000069EFF3108772B6D0E8CF5F0124002DB0
:101EF000FAD1C0E8454F002DF6D1BFF35F8FB1F99D
:101F000002E04C690EEB4E0CBEF1000F4FEACC051F
:101F100004EBCC0C3DDB605B002648800869C0E820
:101F20008F6F87F31088BCF80200CCE902230130E0
:101F3000C0F30E00012838BF0120059BACF8020059
:101F4000CCF81030069B40EA0E40CCF814300B69F8
:101F5000EFF3108272B6D3E8CFCF0127BCF1000FA8
:101F6000F9D1C3E84C7FBCF1000FF4D1BFF35F8F10
:101F70008B886353A1F804E00B69C3E88F6F82F389
:101F800010880122CB68097803F501538A405A6012
:101F9000F0BD00230A69C2E88F3F87F310884FF035
:101FA000FF30F0BD03464089B0EB214F37DD586963
:101FB0000A1402EB420210B500EBC2001C69EFF3F9
:101FC000108C72B6D4E8CFEF0122BEF1000FF9D128
:101FD000C4E84E2FBEF1000FF4D1BFF35F8F4288EB
:101FE00089B292B28A4207D000221B69C3E88F2FC0
:101FF0008CF31088002010BD42F400424280012181
:10200000002218699971C0E88F2F8CF310881C7812
:10201000DA68084602F50153A140596010BD00205E
:10202000704700BF407870472DE9F041861F41F1AD
:10203000FF35B04271EB050338BF002682B038BFD0
:10204000354604460F4600F0DBF8301A65EB010315
:10205000012873F1000306DA2046394602B0BDE8D4
:10206000F04100F009B900F0CBF8864265EB0101C0
:1020700000290ADB0021174B3246009316482B46F5
:102080000191FFF72BFF0028E6DB4FF0000C13480F
:10209000134A436A9D4204D8816AB142DCD29D4210
:1020A000DAD11368EFF3108172B6D3E8CF8F5FF007
:1020B000010EB8F1000FF8D1C3E848EFB8F1000FF6
:1020C000F3D1BFF35F8F1368C3E88FCF81F310881C
:1020D00020BFDEE7C91900105C16002000000B408D
:1020E000C02C002010B5044600F08AF84FF47A7333
:1020F0004FF0FF3C6FF00042E4FB0301BDE81040ED
:10210000844572EB01033CBF60461146FFF78CBF6C
:102110002DE9F04306460D4683B0EFF30584E4B2A3
:102120003CB1274B586AA8421CD2002003B0BDE83E
:10213000F083244FD7F80C9097F80080484600F0C1
:1021400057F808F1040859F828301B1A301A65EBC3
:102150000101984271F1000111DB20BF184B586A50
:10216000A842E2D39B6AB34203D3012003B0BDE887
:10217000F083401B18BF012003B0BDE8F08300F0DE
:102180003FF8864265EB01010029CADB0E4B384659
:10219000CDE9003432462B46FFF7A0FE011EC0DD1C
:1021A000074B5A6AAA4208D39B6AB34203D3054835
:1021B000FFF7F8FEB5E7AA42F9D120BFF7E700BF65
:1021C00000000B405C160020C919001010B4054B2C
:1021D000054C064AA04214BF1846581C5DF8044B33
:1021E000FFF700B9F827002000800B407CDD0010CD
:1021F0000346416A0A46986A596A8A42FAD1704788
:10220000034B596A0A46986A596A9142FAD1704753
:1022100000000B4010B4174A536A9C46946A536AF4
:102220006345FAD1001959414FF0000228BF01223D
:102230000346CAB10F4B596A4B1C08BF0B4608D066
:102240004FF0FF310B460B48426A8A42FCD38A4268
:1022500007D1084A02E0506A884202D1906A984247
:10226000F9D35DF8044B7047024A526A9142EAD8AA
:10227000EDE700BF00000B40074A536A9942FCD8C3
:10228000994207D1044B02E05A6A914202D19A6AFC
:102290008242F9D3704700BF00000B4000EB400CB6
:1022A0004FEA8C0C0CF1804C0CF5803CF0B51646D6
:1022B000DCF80420051FB2F5803F38BF4FF48032B0
:1022C000EDB238BFCCF80420012D2AD94FF40067B5
:1022D000254C0CF54052176054F82020B2B9DCF8B8
:1022E0000020012D82EA461202F0E0020CF5805631
:1022F00032602AD94FF4006144F820304FF4803323
:102300000CF500521160CCF80430F0BD6769B7FBE2
:10231000F2FE0EF1010E0EEB4E0EBEF1030EFCD2DC
:10232000DDE70129D2D103240CF540521460DCF81A
:102330000820D207FBD5DCF800200B4C82EA4612BD
:1023400002F0E0020CF5805632600122DCF8005009
:102350004D4005F00305356002FA01F1DCF8082074
:102360000A42FBD0C6E700BFFC270020014B53F810
:1023700020007047FC27002070B4039D04682D03E3
:1023800045EA03451B4B002CB3FBF1F3B2FBF3F61C
:102390001FDB194A194B904214BF4FF480424FF48F
:1023A0000042174C1A6003F580531A60A36832EAA2
:1023B0000303FBD1212200F5405304330160866002
:1023C0001A600268002AFCDA0822C5601A6070BC34
:1023D0007047036803F03F038B42DAD18368C3F38D
:1023E0000B03B342D5D1C36803F4EE23AB42D0D183
:1023F000EDE700BF001BB700008005400020024051
:102400000000024030B44FF080441C4B1C60E0B12F
:102410001B4CA3F54053DC611A4C40F001004440D2
:102420001C62596298624FF080454FF0E061134B97
:102430001548164C1D60846019604AB930BC4FF0D5
:102440000042A3F580531A607047114BD861EAE748
:102450004FF47A7303FB02F2B2F1807F2ABF6FF070
:102460007F4313461A464FF080410A4C08482360C8
:10247000094B426030BC1960704700BF00B00D408E
:10248000D3C007B02D3FF84F00A00140F3FFFF017C
:1024900000800D40682C002000A00D40012300EBBF
:1024A0004000800000F1804000F58410416003602E
:1024B000704700BF002370B5DB8A04460D4600223A
:1024C00042E800F2520254BF1021042144F252208B
:1024D000984786462B462246F446BDE870400A21BE
:1024E0004FF48170604700BF0023DB8A002242E87E
:1024F00000F2520201D4102118470421184700BFEE
:1025000008B503460846191E02DB1AB140F0300038
:10251000FFF7D0FF40F02000FAE700BF034AD2F8EF
:102520002838002BFBD0BFF35F8F704700000E40B0
:102530000021044B044ABFF35F8F43F8041B93420E
:10254000F9D170470C080E402C080E4010B44FF41F
:102550008D704FF42A64064A064B07491460D06018
:1025600019605368002BFCDA5DF8044B704700BF1C
:102570000080044000A0044000B0FA00704700BF93
:1025800008B50148FEF716FFA0DD001038B5054C70
:10259000054DAC4204D254F8043B9847AC42FAD300
:1025A00038BD00BF40DA001080DA001010B40748D0
:1025B000074C084B084A094904601A608B6832EAE4
:1025C0000303FBD15DF8044B704700BF00200240BD
:1025D0007F3BEFEF00300240F6FFF30300000240C4
:1025E000044BDB6CB3F5004F03D14FF48022024B58
:1025F000DA64704700001150002011504FF0E022C3
:10260000044BD2F8881D0B43C2F8883D10EE30040D
:10261000704700BF030330006FF06041044B054A70
:1026200019609368DB4333F06043FAD1704700BF11
:10263000003002400000024010B545F25320FFF781
:1026400053FFBDE8104003460420184710B545F27B
:102650005320FFF749FFBDE810400346012018470B
:10266000FEF75EBF10B5054B054C4FF48872184657
:10267000A16806F0ADFBA06010BD00BF0000002007
:1026800000ED00E0002370B52B4C82B0C4F884301C
:10269000FFF75CFF0122294BDA63636C012BFCD14D
:1026A0000321264A244B11639C6B012CFCD102268A
:1026B000052521460523224A22480096FFF75CFEA5
:1026C00021462B46204A21480095FFF755FE00225F
:1026D000042031461E4BFFF7E1FD2146284600222B
:1026E0001C4BFFF7DBFD0022082011461A4BFFF7B9
:1026F000D5FD002209201146174BFFF7CFFD002220
:1027000006201146134BFFF7C9FD0022114B07208D
:102710001146FFF7C3FD0420FFF728FE00240F4BEE
:10272000A3FB0035AD0CE0B229460134FFF7B6FE3D
:10273000062CF8D102B070BD00000140003001400D
:10274000002F685900000540008C86470080054036
:10275000001BB70080D1F008006CDC0283DE1B4355
:1027600086B003B451FC0804CDE9020151FC090410
:10277000CDE9040151EC0A04CDE9060103BCF047A0
:10278000BDE800504EEC00C4BDE800504EEC01C462
:10279000BDE800504EEC02C400BD000000B5FFF7DC
:1027A000DFFF02E010FE30F4F8D441EC100443ECFB
:1027B000112400EE010410EE010480EE200451EC1F
:1027C0001004704700B5FFF7CBFF02E010FE30F4B5
:1027D000F8D441EC100443EC112400EE010410EE97
:1027E000210480EE200451EC3004704700B5FFF75F
:1027F000B7FF02E010FE30F4F8D410B541EC10043D
:1028000043EC112451EC040453EC0524A0FB024CCE
:102810005FF0000EE0FB03CEE1FB02CE4CEC204467
:102820000024E1FB03E444EC30E480EE200451ECAE
:102830005004BDE81040704700B5FFF791FF02E07B
:1028400010FE30F4F8D441EC100443EC112451ECA8
:102850002104A0FB01126FEA820252FB100052FB1E
:1028600012F252FB1000A0EBD07C53EC04245CFB72
:1028700013F153EC1524A1FB022001FB030053ECE0
:102880004424A2EB000050FB1CF24FEA111312EBA0
:10289000017043EBE27140EA515020EA915020F080
:1028A000070053EC7524A0FB023C53EC752400FB9D
:1028B00003CC01FB02CC53EC0424ACEB824C40EA89
:1028C0005C70A0F1010041EC400480EE200451EC6A
:1028D0007004704700B5FFF743FF02E010FE30F4CC
:1028E000F8D441EC100480EE220410EEB2047047DC
:1028F00000B5FFF735FF02E010FE30F4F8D440ECED
:10290000700400EE010410EE210480EE200451EC6E
:102910003004704700B5FFF723FF02E010FE30F4EB
:10292000F8D440EC600400EE010410EE210480EEC7
:10293000200451EC3004704700B5FFF711FF02E0AE
:1029400010FE30F4F8D441EC800400EE010410EEE7
:10295000010480EE400410EE1304704700B5FFF749
:10296000FFFE02E010FE30F4F8D441EC800400EEEB
:10297000010410EE010480EE400410EE33047047B1
:1029800000B5FFF7EDFE02E010FE30F4F8D441ECA4
:10299000100443EC112400EE010410EE3004C0F3E7
:1029A0000070704700B5FFF7DBFE02E010FE30F468
:1029B000F8D441EC100443EC112400EE010410EEB5
:1029C0003004C0F38070704700B5FFF7C9FE02E025
:1029D00010FE30F4F8D443EC102441EC110400EE66
:1029E000010410EE30F48CBF01200020704700BFBE
:1029F00000B5FFF7B5FE02E010FE30F4F8D443EC6A
:102A0000102441EC110400EE010410EE30F42CBF50
:102A100001200020704700BF00B5FFF7A1FE02E0D3
:102A200010FE30F4F8D441EC100443EC112400EE15
:102A3000010410EE30F42CBF01200020704700BFCD
:102A400000B5FFF78DFE02E010FE30F4F8D441EC43
:102A5000100443EC112400EE010410EE30F48CBF9E
:102A600001200020704700BF0022002950DA4042B8
:102A700061EB4101C9B1B1FA81F30B3B17D4D3F13A
:102A8000200C30FA0CFC9840994051EA0C011A4491
:102A9000524202F2324201EB025141F0004140F257
:102AA000FE739A4238BF704721E011467EE003F181
:102AB000210310FA03FCA3F1010301FA03FCC3F1A3
:102AC000200320FA03F021FA03F140EA0C00A3EB03
:102AD000020202F2324214D050F1000041EB0251E6
:102AE00041F0004140F2FE739A4238BF70474FF008
:102AF0000001A8BFC7F6F0714FF000007047002139
:102B00007047EBD350F1000020F00100E6E700220F
:102B1000B9B1B1FA81F30B3B16D4D3F1200C30FAE2
:102B20000CFC9840994051EA0C011A44524202F2BE
:102B3000324201EB025140F2FE739A4238BF7047B5
:102B400020E0114600F066B803F1210310FA03FCFF
:102B5000A3F1010301FA03FCC3F1200320FA03F0FF
:102B600021FA03F140EA0C00A3EB020202F2324226
:102B700012D050F1000041EB025140F2FE739A4234
:102B800038BF70474FF00001A8BFC7F6F0714FF093
:102B90000000704700217047EDD350F1000020F095
:102BA0000100E8E7002880F235804042B0FA80F367
:102BB0000B3B11D4984001EB0302524202F2124245
:102BC00000EB025141F000414FF0000040F2FE7373
:102BD0009A4238BF704713E0C3F1000330FA03FC98
:102BE000C3F120029040A3EB010202F212420CEB6F
:102BF000025141F0004140F2FE739A4238BF7047E3
:102C00004FF00041A8BFCFF6F0714FF000007047C1
:102C10000021704760B3B0FA80F30B3B0FD49840AB
:102C200001EB0302524202F2124200EB02514FF05A
:102C3000000040F2FE739A4238BF704710E05B42DA
:102C400030FA03FCC3F120029040A3EB010202F230
:102C500012420CEB025140F2FE739A4238BF7047A9
:102C60004FF00001A8BFC7F6F0714FF000007047A9
:102C7000002170470022A2F232425FEA215CACF1EF
:102C80000103A1EB03515B0513F5800F32D212EB68
:102C9000535210D40B2A36DA9140D2F1200330FA85
:102CA00003F319439040BCF1000FA8BF70474042A6
:102CB00061EB4101704720320EDD01FA02F3D2F1DF
:102CC0002002D140D0401843BCF1000FA8BF70478C
:102CD000404261EB41017047524282F3050231FAF2
:102CE00002F00021BCF1000FA8BF7047404261EB29
:102CF0004101704702D000200021704750EA0131A5
:102D000018BF4FF0000C6FF0004101EBDC716FEA6F
:102D1000EC7070479A4238BF88547047704700BFC4
:102D20002DE9F04F83B09946DDE90DAB0F9B884646
:102D300011469A07074616D1DA453AD20C460D4697
:102D4000ABEB0A060E4422464B4641462020013496
:102D5000B847B442F7D12946BAF1000F08D120464E
:102D600003B0BDE8F08F0C46BAF1000F10D00E464C
:102D700055460C9B2E449A440191721B4B46013DD3
:102D800041461AF8010D3446B847002DF5D1019996
:102D90000F9B9B07E3D5651AAB45E0D922464B460E
:102DA000414620200135B8475D4504F10104F5D3C3
:102DB000D5E7BAF1000FDAD10C46D0E72DE9F04F94
:102DC0000F9FDDF824E017F0020F0A9C9DF82C906D
:102DD0000E9DDDE90C8629D1002D6FD1B44225D29C
:102DE000202C07F0010B00F0128104F1FF3C4FF0A2
:102DF000300AF44401E0202C7AD00134A6420CF8C9
:102E000001AFF8D8BBF1000F10D0AC420ED2202C8D
:102E100074D004F1FF3C4FF0300AF44401E0202C60
:102E200029D00134AC420CF801AFF8D117F0100FE3
:102E30003AD017F4806F28D11CBBB8F1100F00F006
:102E4000CA80B8F1020F00F0D48030248EF8004020
:102E50000124B9F1000F67D17E0740F1AA802B262B
:102E60000EF804600134CDE90B57CDE909E4BDE863
:102E7000F04FFFF755BFFC0640F189807C0535D443
:102E80002024A6426AD0AC4268D0B8F1100F00F0FE
:102E90008780B8F1020F5AD0202CE4D026460134A6
:102EA0004FF0300C0EF806C0202CD2D1CDE90B57D4
:102EB000CDE909E4BDE8F04FFFF732BF17F0010B91
:102EC0003ED0B9F1000F47D117F00C0F44D1B442F6
:102ED0009BD2202C89D1202D10D8FC0657D57C05FB
:102EE00055D4202E00F0B980202D10D02024CCE71E
:102EF000BBF1000F00F0A580202DBCD9FC0646D503
:102F00007C0544D4202E00F0A880202D3FD12C46F3
:102F10001F26B8F1100F7FD0B8F1020FC0D14FF0CB
:102F2000620C0EF806C0B7E72D260EF804600134D7
:102F3000CDE90B57CDE909E4BDE8F04FFFF7F0BE4E
:102F4000B442BFF473AF202C7FF44FAFD6E7202CF0
:102F500089D026460134E2E7013DB8E7661ED8D1A4
:102F6000B8F1100F64D0B8F1020F7FF46EAF622693
:102F70008EF80060302644468EF80160B9F1000FEB
:102F80003FF46AAFD0E7B8F1100F7FF46CAF2024A4
:102F9000CDE90B57CDE909E4BDE8F04FFFF7C0BE1E
:102FA000BE060ED4202CF2D078260EF80460013430
:102FB00072E73E077FF557AF20260EF80460013414
:102FC00051E7202CE3D04FF0580C0EEB040686F8A6
:102FD00000C0013460E7BE0617D558248EF80040C3
:102FE00030248EF801400224B9F1000F3FF434AFD1
:102FF0009AE762248EF8004030248EF801400224C3
:10300000B9F1000F3FF428AF8EE77824F2E7BBF167
:10301000000F7FF462AF71E717F0200F0CBF4FF085
:10302000780C4FF0580CA61E0EF806C0013C35E790
:10303000BC06EAD558248EF8004030248EF80140B2
:10304000DDE717F0100F3FF40EAF17F4806F9AD141
:10305000202E7FF418AF1F265BE734461F2658E763
:1030600000B9704701F09ABB10B1D1E9003118479F
:10307000704700BF000000002DE9F04F9FB09DEDAC
:10308000287BDDE92AA558EC177B83461E460D9167
:10309000109243463A46384641468DED087B2C9CBB
:1030A000FFF772FC002840F0D880384641464FF0C8
:1030B000FF32754BFFF7C8FC002840F0CE80384641
:1030C00041464FF0FF326FF48013FFF781FC002878
:1030D00040F0C380DDE908780022384641460023ED
:1030E000FFF776FC002840F0C081CDE90A78DDE9E1
:1030F0000A2390461F4614F4806308BF4FF0060A67
:10310000139304F4006258EA0703119240F0C08060
:10311000002A00F0A2819FED5A7B00278DED0E7BE7
:103120004FF00009BA45CCBFAAEB070A4FF0000ADE
:103130004F46C8BF0AF1FF3A44F480644D4594BF3E
:103140004FF00008A5EB090814F00203119304D016
:10315000B9F1000F18BF4FF000083FB1DDE90A01D7
:10316000DDE90E23FFF76CFBCDE90A01DDE908017B
:1031700000220023FFF72CFC30B1DDE90A010246F2
:1031800001F10043CDE90A239DED0A7BCDE902A8B8
:10319000DDF834A024F4006304938DED007B334606
:1031A00051465846109A00F097F98046B9F1000F41
:1031B0004FD014F0200F024600F1010433460CBF3B
:1031C000652045205146D84709F1FF3087EAE77C62
:1031D0000DF1580900224B46DFF8B080ACEBE77CDC
:1031E0004FEAD77E01E0202A10D0E246A8FB0C71FE
:1031F000C90801EB8107ACEB47073037BAF1090F7B
:103200008C4602F1010203F8017BECD805230590FE
:10321000069300200A230D9FCDE90330CDE9012E4E
:103220003346224639465846CDF80090FFF7C6FD92
:10323000119B80466BB1109BC41AA54209D9424626
:103240003346394620200134D847A54208F1010809
:10325000F5D840461FB0BDE8F08F9DED087B3346A2
:103260005846109A0D998DED287BCDE92B54CDF859
:10327000A8A01FB0BDE8F04F00F02EB9AFF300805A
:103280000000000000000000FFFFEF7FCDCCCCCCA1
:10329000C7F30A50A0F2FF30FFF72EFB8AA3D3E951
:1032A0000023FFF7A7FA8AA3D3E90023FFF77AFAEE
:1032B000C7F31307CDE90E0147F07F5140460022C6
:1032C0007B4B41F44011FFF781FA6BA3D3E9002354
:1032D000FFF790FA02460B46DDE90E01FFF762FAAE
:1032E000FFF72EFB0746FFF707FB65A3D3E9002393
:1032F00080468946FFF77EFA00226E4BFFF752FAAE
:10330000FFF71EFB03464946404612935EA3D3E9EE
:103310000023FFF76FFA804612988946FFF7ECFA10
:103320005BA3D3E90023FFF765FA02460B4640464C
:103330004946FFF74BFA02460B4680468946FFF79F
:1033400059FA42464B46CDE90E0140464946FFF741
:1033500029FA0022CDE91401DDE90E01564BFFF7F1
:103360006FFA0022554BFFF71DFA02460B46DDE9C6
:103370000E01FFF765FA0022514BFFF713FA0246E0
:103380000B46DDE90E01FFF75BFA42464B468046ED
:10339000894600204FF08041FFF718FA02460B469D
:1033A00040464946FFF7FEF902460B46DDE91401A7
:1033B000FFF746FA0022434BFFF7F4F9129B002275
:1033C00003F2FF3C4FEA0C53FFF714FA804689469C
:1033D000DDE90A0142464B46CDE90E89FFF7F8FACE
:1033E00068BB4346494607F16302C62A119A8CBF5F
:1033F0004FF005094FF00409002A3FF49FAE0B433C
:103400003FF48EAEDDE90A0123A3D3E90023FFF7E1
:1034100007FB48B1DDE90A0121A3D3E90023FFF747
:10342000D7FA00287FF47CAEBAF1000F3FF486AEE5
:10343000139B002B3FF482AE0AF1FF3A7EE6002296
:103440001E4B40464946FFF7FBF90A460146034634
:10345000CDE90E12013F1146C5E79FED137B1746DC
:103460004FF004098DED0E7B68E608F100430A97E2
:103470000B933CE6AFF3008061436F63A787D23FB5
:1034800071A379094F930A401655B5BBB16B024041
:10349000EF39FAFE422EE63F2D431CEBE2361A3F8F
:1034A0000000000080842E410000000000000000A9
:1034B0000000F83F0000E03F00002C4000002440E6
:1034C000000018400000F03FFB799F501344D33FA9
:1034D000B3C8608B288AC63F2DE9F04F97B0DDE96D
:1034E0002089CDE90401DDE9224BCDE906234046E0
:1034F00042464B464946DDF890A0FFF745FA0028C2
:1035000040F0C581404649464FF0FF326FF48013CA
:10351000FFF75EFA002840F01D81404649464FF013
:10352000FF32C14BFFF790FA002840F0E380B8A3C8
:10353000D3E9002340464946FFF786FA002840F0C9
:10354000CB80B5A3D3E9002340464946FFF740FAB4
:10355000002840F0C1804046494600220023FFF782
:1035600037FA002840F0E0801AF480650D9000F0F2
:10357000E980092C40F296810EAB1A460C9330215B
:103580000023A4F109050133202B02F8011BA4EB51
:10359000030600F03A81AB42F5D19FED9D7B8DEDA6
:1035A000087B49464046FFF7CBF90446FFF7A4F9EC
:1035B00002460B4640464946FFF708F9DDE9082375
:1035C000FFF718F902460B46CDE90A23FFF7CAF9BF
:1035D0000746FFF7A3F902460B46DDE90A01FFF7AC
:1035E000F5F802460B46CDE90A2300228F4BFFF780
:1035F0002BFA002800F0DB8001373846FFF78EF900
:10360000DDE90823FFF70CFA08B100270134002E8A
:1036100040F0B1802046FFF76FF902460B46404666
:103620004946FFF7D3F80022804B06460F46FFF7C6
:10363000CFF940B93046394600227C4BFFF704FAF7
:10364000002800F015810C9B691E7948194410E090
:1036500080FB0462C3EBA20303EB8302A4EB4204EE
:1036600004F1300201351C4601F8012F002B00F057
:10367000AB80202D4FEAE473EAD10AF00303012B5B
:103680001CD1BBF1000F19D00D9B002B40F0F9802D
:103690001AF00C0F40F0F580AB4540F2D380202D9E
:1036A0000BD030220C996B1E0B4401355D4503F89D
:1036B000012F00F08D80202DF7D12025DDE9062394
:1036C000DDE904010C9CCDE902BA01950094FFF7F5
:1036D00027FB17B0BDE8F08FCDE92089DDE906238F
:1036E000DDE90401CDE923BA229417B0BDE8F04F1B
:1036F000FFF7C2BC4F4DCDF88CA00AF0040ABAF116
:10370000000F4D4C18BF2C46DDE90623DDE904010E
:1037100020940CBF03240424CDF888B0219417B062
:10372000BDE8F04FFFF7FCBA4B46424600200021AF
:10373000FFF74CF801231AF48065804689460D9303
:103740007FF417AF9FED367B0EAB06268DED087B21
:103750000C9326E70424DDE90623DDE90401374D57
:10376000CDF88CA0CDF888B02095219417B0BDE895
:10377000F04FFFF7D5BA0C9B681EDFF8C4C01844A1
:103780000DE0ACFB0721C90801EB8102A7EB420267
:103790003032092F00F8012F27D90F461D46202D62
:1037A00005F1010306F1FF36EBD120254BE700229E
:1037B000DDE90A011D4BFFF70BF900287FF427AF65
:1037C000002F5AD1013722E70AF00303012B75D0ED
:1037D000202D3FF473AF0D9BBBB32D2205F1580391
:1037E0006B4403F8202C013568E7202BDDD0AEB305
:1037F0000C9A1E441544302201E0B3422ED001330E
:10380000202B05F8012FF8D1CFE71D46C5E600BFF4
:103810000000000065CDCD410000000065CDCDC1A8
:103820000000000080842E41FFFFEF7F0000E03F9A
:1038300067666666ECDD0010F4DD0010FCDD00104C
:10384000CDCCCCCC202D3FF439AF1AF0040F0DD1E4
:103850001AF0080F3FF432AF2022BFE72E2103F108
:1038600058026A4402F8201C5D1CECE62B22B5E7E6
:10387000E3077FF5E8AE0134E5E6FA077FF5C7AE6A
:10388000A0E70BF1FF3BAB453FF609AFA0E70324F0
:10389000DDE90623DDE904010A4DCDF88CA0CDF861
:1038A00088B061E7084B264603EBC40393ED007B29
:1038B0000EAB8DED087B00250C9372E6BBF1000F7B
:1038C00086D0E1E6F8DD0010E0DF00102DE9F04FD2
:1038D0009A469BB0249C964D0B94964C0B1E18BF99
:1038E000834625609AF80000934C0A9308BFA346CC
:1038F0000992002800F0BC824FF000090AE04A4615
:10390000099B0A9909F10109D8479AF80000002893
:1039100000F0CE8025280AF1010AF0D1002352469A
:1039200012F8010BA0F1200110290AD8DFE801F0FC
:103930004009093C09090909090909380934090933
:103940003000A0F13001092940F28C802A2800F0D3
:10395000F58000210C912E2800F099800027A0F11D
:10396000680112292DD8DFE811F057012C00510110
:103970002C0045012C002C002C002C002C002C00CD
:103980002C0027002C002C002C002C002C002700E1
:10399000924643F00103C2E7924643F00203BEE7BA
:1039A000924643F00403BAE7924643F01003B6E7A9
:1039B000924643F00803B2E79AF8010043F480739B
:1039C00001326728924600F28280242840F2C680A5
:1039D000A0F12502422A00F2C180DFE812F05F0167
:1039E000BF00BF00BF00BF00BF00BF00BF00BF00DF
:1039F000BF00BF00BF00BF00BF00BF00BF00BF00CF
:103A0000BF00BF00BF00BF00BF00BF00BF00BF00BE
:103A1000BF00BF00BF00BF00BF00BF00BF00260146
:103A200045012601BF00BF00BF00BF00BF00BF00AF
:103A3000BF00BF00BF00BF00BF00BF00BF00BF008E
:103A4000BF00BF00D301BF00BF00BF00BF00BF0069
:103A5000BF00BF00BF00BF00D3016701D301260133
:103A600045012601002100E0013201EB810100EB5C
:103A7000410110789246A0F13004092CA1F13001E7
:103A8000F2D92E280C9102F101027FF467AF9AF867
:103A900001001146A0F13006092E43F4806340F284
:103AA00031812A2800F03E8192460027013256E7F4
:103AB0004C46099B994501D303F1FF394A46002042
:103AC000099B0A99D84720461BB0BDE8F08FA0F1AA
:103AD0006902D2B20F2A41D8012649F2410196402B
:103AE0000E4040F001810A2A3FD0072A36D10B9CB4
:103AF00054F8042B002A00F0288143F021010DF135
:103B0000480E704603E0202E00F029811A4602F08C
:103B10000F052B46092D94BF303337330F2A00F899
:103B2000013B06F101064FEA1213ECD817E100BF82
:103B3000CD380010642C00201D2D00100B9C9AF82D
:103B4000010054F8045B9246002DBDBF694243F06A
:103B500002030C910C950B940132FCE64A46099B3A
:103B60000A9909F10109D847CFE60B9951F8048B5E
:103B700098F800201046002F40F0E18072B16FF0FD
:103B8000010C0CF1010C4646C44401E0664503D02B
:103B900016F8014F002CF9D1A6EB080613F4806C3F
:103BA00002D0BE4228BF3E4613F0020400F08781D7
:103BB000002A00F02B81BCF1000F00F041810B9432
:103BC0000D964A46DDE909540E464F4408E02B465F
:103BD0002146D84718F8010F09F1010910B14A46EA
:103BE0004F45F4D131460B9C0D9E002C40F00E81C8
:103BF0000B918AE69AF801006C287FF4DFAE9AF800
:103C0000020043F440730AF10302DAE69AF8010075
:103C100043F400730132D4E69AF80100682800F0FA
:103C2000208143F080030132CBE6672800F0E78073
:103C3000472800F00081452800F0FF800B9C04938A
:103C40000C9B0734CDE9027324F007031C46DDE921
:103C50000931F4E802674A465846CDE900670B94FB
:103C6000FFF70AFA814650E646280B9C08BF43F04E
:103C7000200304930C9B0734CDE9027324F007035F
:103C80001C46DDE90931F4E802674A465846CDE9A9
:103C900000670B94FFF720FC814636E64A46252054
:103CA000099B0A9909F10109D8472EE60B9A9C074E
:103CB00002F1040709F1010640F1E6801078099B42
:103CC0004A460A99D8470C9B012B40F22C81DDE92A
:103CD0000954994432462B46214620200136D847C4
:103CE0004E45F7D10B9710E66F2800F08B8040F21D
:103CF0006581782800F008814FF00A0823F010034E
:103D0000C44647E0002707EB870700EB4700A0F118
:103D1000300711F8010FA0F13002092AF3D98A46C1
:103D20004A1C1CE60B9C9AF8020054F8047B0AF12A
:103D3000020A0AF101020B9427EAE7770FE6002A4C
:103D40003FF42CAF07F1FF3C1BE723F0100113F405
:103D5000806241F021013FF4D2AE0DF1480E0823FC
:103D60001020059300234A46CDE9023006915846BB
:103D7000DDE90931CDE900E60497FFF71FF80B9460
:103D80008146C2E5582879D0622840F051824FF030
:103D90000208C44613F480606DD123F00C0313F4C1
:103DA000007240F0C2800B9904310D9113F48071C0
:103DB00040F02E825E060B9A40F1AA801278002A0B
:103DC00040F0DA8023F01003002800F0D58011467F
:103DD0000DF1480E06930C9BCDF80CC0CDE9047391
:103DE000019100234A4602935846DDE90931CDF896
:103DF00000E0FEF7E3FF0D9B81460B9385E543F45E
:103E000000631BE74FF00808C446C3E70C9B4C4611
:103E1000B3427FF6EDAE0F464B44A3EB0609DDE956
:103E2000096522463346294620200134D8474C45AF
:103E3000F7D13946DCE643F4006343F02003FDE6A6
:103E40000F460B94DDE909544A462B462146D847D4
:103E500018F8010F09F101090028F5D139460B9C2A
:103E6000C3E69AF8020043F0C0030AF10302A8E592
:103E7000044681461DE623F00D0390E74FF010083D
:103E800043F02003C44685E70C9B012B45D9DDE9AF
:103E900009544E4609F1FF38984432462B462146D4
:103EA00020200136D8474645F7D10C9B324699442D
:103EB0000B9B1878DDE90931D8470B9725E50C9B5A
:103EC000B34240F2EE81CDE90D48DDE90954884660
:103ED0004B449E1BCDF82CC04A462B462146202041
:103EE00009F10109D847B145F6D14146DDF83880DE
:103EF0000C9BDDF82CC00D9C98F800205E1C104631
:103F0000002A7FF458AE73E64FF01008C44641E72C
:103F10001D064CBF1288126851E713464A461878AE
:103F2000DDE90931D847B146DCE60B9C073424F0C3
:103F300007042246656852F8084B0B9254EA0502C2
:103F400040F02C8123F01003002800F02781002688
:103F50000DF1480E06930C9B4A46CDE904730023ED
:103F6000CDE900E6CDF80CC002935846DDE90931F1
:103F7000FEF724FF8146C8E413F0200F14BF412050
:103F800061200DF1480E7646A0F10A0803E02029D1
:103F90003FF420AF2246B2FBFCF40CFB1425E8B240
:103FA000092D00F130058ABF4044E8B2C0B2624535
:103FB00006F8010B01F10101E9D20BE723F0100231
:103FC00069280D9240F06F8113F4806204D04FF4A1
:103FD000806223F011030D930D9B13F4007640D102
:103FE0000B9B03F104080D9B13F4807040F0988044
:103FF000590640F1C6800B9B19780C46CB0F00295F
:1040000000F0B98022460DF1480E74461646DFF8DE
:10401000A0C201E020280FD03546ACFB0621C9081C
:1040200001EB8102A6EB42023032092D0E4600F16F
:10403000010004F8012BEDD80D9ACDE90103069299
:104040000C9ACDE904720A234A4603935846DDE9E7
:104050000931CDF800E0FEF7B1FECDF82C808146A5
:1040600053E40B9C073424F0070421460846636898
:1040700050F8081BDC0F0B9051EA030000F0C380DE
:104080000A46191E48DB13460DF1480EF446002679
:10409000CDE90E94DFF8188201E0202E2DD05A18B9
:1040A00042F10002A8FB025929F0030505EB99052E
:1040B000521B1C469B1A61F1000508464FF0CC319B
:1040C00001FB03F108FB0511A3FB08531944052369
:1040D00005F00109A9FB03399B180A2C03F13003F1
:1040E0004FEA550570F100000CF8013B06F101069E
:1040F00045EAC1734FEA5101CFD2DDE90E940D9B21
:104100004A4606930C9BCDE90164CDE904730A236A
:10411000CDF800E0039328E7524261EB4101B2E79A
:104120000B9B1968CB0F002900F0AB8081EAE1728C
:10413000A2EBE1720DF1480E7046DFF874C101E0A8
:10414000202E10D01546ACFB0241C90801EB8104BA
:10415000A2EB440404F13002092D00F8012B06F112
:1041600001060A46ECD80D9ACDE9016306920C9A35
:10417000CDE9047267E7002A3FF445AF0DF1480E20
:104180005AE713F0800F0B9B00F08180B3F9001009
:1041900081EAE174A4EBE174A4B22FE713F0200FDD
:1041A00014BF412261220DF1480E0A3ACDE90D9764
:1041B000CDF844B000267746F3469146CDE90F3C52
:1041C00003E0202E17D004460D4629464246002320
:1041D000204609F009FCD2B2092A02F1300388BF57
:1041E00002EB09034445DBB275F1000507F8013B1A
:1041F00006F10106E5D2DE46DDE90D97DDE90F3C6B
:10420000DDF844B0A6E6002A47D1134611463BE745
:104210000B990968A1B923F0100388B10DF1480E7C
:1042200006930C9BCDF80CC0CDE904730192D8E540
:1042300013F480627FF4CBAE23F010030D93CBE632
:1042400013F0200F14BF412061200DF1480E764677
:10425000A0F10A0802E0202AE2D02146B1FBFCF4DA
:104260000CFB1415E8B2092D00F130058ABF40445B
:10427000E8B2C0B2614506F8010B02F10102EAD2D0
:10428000CEE7002A3FF456AF0DF1480E6BE71968F0
:1042900081EAE174A4EBE174B0E600260DF1480E6A
:1042A0002DE701362BE64FF00A081346C44671E5A8
:1042B000CDCCCCCC0EB410B585B007AC54F8043BD3
:1042C00001464FF0FF32009404480394FFF7FEFAD2
:1042D00005B0BDE8104003B0704700BF152D0010B9
:1042E00070B594461E4605460C4684B04FF0FF322A
:1042F000634602A900960348CDE90254FFF7E6FAA7
:1043000004B070BD693000100FB410B50E4B84B00E
:1043100006A91C6851F8043B03915CB100914FF071
:10432000FF3202A90948A047012004B0BDE81040AF
:1043300004B07047184600F073FA204604B0BDE898
:10434000104004B0704700BF642C002061300010A2
:1043500010B5094B84B01C684CB1034600914FF076
:10436000FF3203A90548A047012004B010BD00F0AA
:1043700057FA204604B010BD642C002061300010B4
:1043800000BEFDE7074A0346106838B106490344FA
:104390008B428CBF4FF0FF301360704703490846D3
:1043A0001160F3E75828002000000820E82C0020C6
:1043B00003460846114623B9034BD3E9002300F016
:1043C0004FB94FF0FF30704780DF0010431E012BC4
:1043D00009D810B51446084601230022214600F0F2
:1043E000C7F8204610BD4FF0FF3070474FF0FF3048
:1043F000704700BF4FF0FF30704700BF08B5FFF7B0
:10440000BFFF00BF9C46144600B50B4602466146FE
:1044100083B044B1054D064801940095FFF774FF41
:104420000120FFF7ADFF034D2C46F4E704DE00103A
:1044300014DE0010F4DA001038B5064C064DFEF715
:10444000A5F8AC4204D254F8043B9847AC42FAD3E6
:1044500038BD00BF80DA00108CDA0010036808460F
:1044600011461847437D2DE9F04781460F46164611
:10447000002B43D0002A3BDD037D00204D1E01466A
:1044800015F8012FDFF884800A2A01F101040ED00B
:10449000A6421CD02B782146A3F10D03B3FA83F377
:1044A00015F8012F5B090A2A01F10104F0D1002B54
:1044B000EED18142A1EB000138441BDC02214046D1
:1044C000D9F800309847A64208D02046E2E7864255
:1044D00004DD311AD9F8003038449847374417F8CA
:1044E000013CA3F10D03B3FA83F35B0989F814309F
:1044F000BDE8F087D9F800309847DFE73846D9F8AB
:1045000000301146BDE8F047184700BF30E000100A
:104510000B682DE9F041802B0D46064605D05A1C4C
:104520002B442A601E71BDE8F0810F4B1C68A4B1BA
:104530000E4F01F1040801E0246974B12368002BD7
:10454000FAD03B680BB1A342F6D1204641462A6817
:10455000FFF788FF2469002CF0D1002301222B44AF
:104560002A601E71BDE8F0814C28002054280020EC
:104570002DE9F04782B00D46924699460746FDF771
:104580003FFE4FF0FF366FF000442F4A821841F192
:104590000003964274EB03013CBF324623462B488E
:1045A00009F03AFA6B1C804603D1384605F016F83C
:1045B0000546274B274E1C68274BB9F1000F18BF43
:1045C0001E46B4B1BAF1000F1AD1DFF8909001E0A5
:1045D000246974B12368002BFAD0D9F800300BB1EC
:1045E0009C42F5D120462A463946B0472469002C22
:1045F000F0D1B8F1000F1FD1284602B0BDE8F08716
:104600004FF00A0ADFF8549002E02469002CF0D041
:104610002368002BF9D0D9F800300BB1A342F4D1B4
:104620002A4639462046B047012220460DF10701AF
:104630008DF807A0B047E8E7044809F0D9F9284603
:1046400002B0BDE8F08700BF40420F00601D0020AF
:104650004C2800205D4400106544001054280020C0
:104660002DE9F04F984607460E4683B0DFF860B05C
:10467000DFF86090DFF860A00192DBF8004014B929
:1046800011E024697CB1D9F800500DB1A542F8D1F0
:10469000A268002AF5D03146384690470028F0DD60
:1046A00003B0BDE8F08FDAF8242090450BD8DAF893
:1046B0002810019B994204D36FF0010003B0BDE8BC
:1046C000F08F9045F8D101200021FDF7A3FDD4E73C
:1046D0004C2800205428002000000B400A4A136890
:1046E0004BB1834202D109E0984207D003F1100296
:1046F0001B69002BF8D101B1106070470029FCD173
:1047000003691360016170474C28002000F026BB4C
:104710002DE9F04182B00646FDF772FD4FF0FF3201
:104720006FF00043361841F10007B24273EB070106
:104730003CBF16461F46DFF86080154DD8F8004094
:1047400014B912E0246984B12B680BB19C42F9D1F1
:10475000A368002BF6D0012101A898470028F1DDBD
:104760009DF8040002B0BDE8F0810A4B5A6A9742F6
:1047700009D89B6AB34204D36FF0010002B0BDE8D0
:10478000F0819742F8D101200021FDF743FDD5E7E4
:104790005428002000000B404C280020F0B583B0C6
:1047A00006468DF80700FDF72BFD4FF0FF356FF043
:1047B0000044174A821841F10003954274EB03014B
:1047C0003CBF23462A46134809F026F9124B0746F8
:1047D0001C689CB1114D01E024697CB12368002B59
:1047E000FAD02B680BB19C42F6D1204601220DF184
:1047F0000701FFF737FE2469002CEFD117B93046C7
:1048000003B0F0BD034809F0F3F8304603B0F0BD43
:1048100040420F00601D00204C280020542800203A
:1048200038B5044604F0DAFE012305461A46204650
:104830002946FFF79DFE084B1C682CB163682BB11D
:1048400098472469002CF9D1284638BD2469002CEA
:10485000F4D1284638BD00BF4C2800202DE9F04196
:10486000A2B004460D46FDF7CBFC4FF0FF376FF0CA
:104870000046274A821841F10003974276EB030174
:104880003CBF3A463346234809F0C6F800262B467B
:1048900007462246204801A90196FFF721FD019B0A
:1048A00006467BB91D4B1C682CB1636843B1984721
:1048B0002469002CF9D10FBB304622B0BDE8F0814D
:1048C0002469F1E7DFF85480D8F80050EDB1144CBA
:1048D00001E02D6975B12B68002BFAD023680BB16C
:1048E000AB42F6D12846019A02A9FFF7BBFD2D691C
:1048F000002DF0D1D8F800400195D5E7054809F022
:1049000077F8304622B0BDE8F0810195D3E700BFCB
:1049100040420F00601D0020114500104C2800206F
:10492000542800200FB400B583B004A951F8040B3B
:104930000191FFF793FF03B05DF804EB04B07047FB
:10494000704700BF0022014B1A707047E12C002015
:104950004B79FF2B0BD1887948B9CB79012B07D143
:10496000082A05D9034B8A7809201A70704700205D
:10497000704700BFE12C002001207047012901D0C1
:104980000120704708B5104B91881B78994201D0DF
:10499000002008BD5378012B08D0022BF8D100214C
:1049A00064220846FDF72EFD012008BD5188CB0585
:1049B0004BBF4A0A4A0A10464FF0FF3002F001028C
:1049C00001F07F01FDF79CFDE12C002000487047BD
:1049D000FCE00010012907D15378012B02D1938804
:1049E000072B03D000207047012070471146A623F3
:1049F000014A01F041BA00BF54E000100346012211
:104A000001481A70704700BF34E0001008B50B6809
:104A1000B3F5966F00D008BD00224FF0FF3011466D
:104A2000FDF76EFD024A034B10601960704700BF2E
:104A3000EC270020F0270020184B70B51A68002AD8
:104A400028D0EFF3108172B6D2E8CF4F0120002CAE
:104A5000FAD1C2E8440F002CF6D1BFF35F8F0022D9
:104A60000F4C186859602270C0E88F2F81F31088AE
:104A7000002400250B4E3078FCF794FD20B900246B
:104A800000252046294670BD3078FCF79BFD204666
:104A9000294670BD4FF47A740025EBE7902C002076
:104AA000E32C0020E22C0020014B1878FCF78ABD93
:104AB000E22C002038B5044600200D4601F008FB2A
:104AC000A8B3002001F01AFB88B3FDF799FB4FF063
:104AD000FF3E6FF0004C174A821841F100039645E3
:104AE0007CEB03013CBF72466346134808F094FF19
:104AF000E8B1002001F0ECFA58B900214FF0FF3086
:104B000000F012FD6FF002040B4808F071FF204620
:104B100038BD002001F0F2FA0028EED021462A46E6
:104B2000002001F0F7FA04460028EDD1EAE76FF023
:104B30000204ECE740420F00C42C002008B5FDF74A
:104B40005FFB4FF0FF3E6FF0004C0F4A821841F1BF
:104B5000000396457CEB03013CBF724663460B485D
:104B600008F05AFF70B14FF0FF30002100F0DCFC7C
:104B7000002001F015FB0028F5D1BDE808400348EE
:104B800008F036BF08BD00BF40420F00C42C002013
:104B90002DE9F84307460E46FDF732FB4FF0FF358F
:104BA0006FF00044334A821841F10003954274EBE0
:104BB00003013CBF2A4623462F4808F02DFF08B9C1
:104BC000BDE8F883002001F083FA002848D0002EC9
:104BD00041DD0025DFF8A480DFF8A49013E0224631
:104BE000002001F023FB002104464FF0FF3000F0CD
:104BF0009BFC002001F0D4FAFDF702FBC8E900019C
:104C00002544AE4227DD002001F032FB741B8442B4
:104C1000A8BF04467919002CE1D121464FF0FF309E
:104C200000F082FC204601F0BBFA204601F050FA69
:104C300088B1204601F01CFB0028E2D1FDF7E0FA24
:104C4000D8F80030D8F8042013EB090342F1000231
:104C500083428A41D5D20848BDE8F84308F0C8BE6F
:104C600000200021054BC3E90001BDE8F8430248DC
:104C700008F0BEBE40420F00C42C0020B01F002030
:104C800020A1070030B5002185B02E4808F0D0FEE5
:104C9000F0B92D4B1A68CAB1EFF3108172B6D2E8A1
:104CA000CF5F0124002DFAD1C2E8454F002DF6D187
:104CB000BFF35F8F254C1D6822785960D3B2012263
:104CC0002270C5E88F0F81F31088CBB105B030BDDD
:104CD00000214FF0FF3000F027FC002001F00EFA19
:104CE0000446184808F084FE002CEFD0184B1B68CF
:104CF000002BEBD0174A106805B0BDE830401847CC
:104D0000FDF77AF80446FDF77BFA4FF0FF3C6FF0B1
:104D1000004510F57A7241F10003944575EB0301EB
:104D200038BF2B464FF000014FF0010520460A4CDA
:104D300038BF6246CDE901150094FDF761F805B072
:104D400030BD00BFC42C0020902C0020E32C00209C
:104D5000EC270020F0270020394A00104FF0504384
:104D600030B585B01C68FDF747F8FDF75BF9A04248
:104D700002D0002005B030BD00212A4B08461B7828
:104D800001F046FD28480368002B47D00120FCF7BE
:104D9000B7FD0346254C2649C0B22370FCF72EFC14
:104DA00020780121FCF7E8FB0E20FCF717FC40BB44
:104DB000204B0125C3E90000FDF71EF80446FDF76E
:104DC0001FFA4FF0FF3E6FF0004C10F57A7241F180
:104DD000000396457CEB03014FF000012046164C82
:104DE0003CBF72466346CDE901150094FDF708F813
:104DF0000028BEDB01211148FFF770FC012005B03F
:104E000030BD0120FCF774FB01460A48FCF7D4FDD5
:104E100000220E200A49FCF721FCEBE7FCF7B0FD6D
:104E2000B4E700BFD4E50010C42C0020E22C002021
:104E3000854C0010902C0020394A00107416002078
:104E4000A94A00100048704798E1001000487047D8
:104E500044E1001038B5184B04461A780AB344B937
:104E600040F209424FF44173144D6A8013482B807D
:104E700038BD052C1AD8124B104D53F82410284673
:104E80000023013903E0132B20F8022F10D011F872
:104E9000012F0133DBB2002AF5D15B0043F44073EC
:104EA000E4E71121184600F025F8D8E7002038BDC6
:104EB0004FF44A73DAE700BFCC2C002024280020EE
:104EC0002CE1001000B545F247308BB0FDF70CFB2C
:104ED00001220346092101A89847DDE9033204496C
:104EE00012BA1BBAC1E900230BB05DF804FB00BF86
:104EF000B82C0020012901F1FF3300F0B3805D4997
:104F00000A784FEA121C9F2A8CBF0CF1370C0CF167
:104F1000300C012B80F800C000F0A78002F00F02D7
:104F2000092A8CBF37323032022B427000F09D804C
:104F30004A784FEA121C9F2A8CBF0CF1370C0CF1F7
:104F4000300C032B80F802C000F08F8002F00F02BB
:104F5000092A8CBF37323032042BC27000F08580B2
:104F60008A784FEA121C9F2A8CBF0CF1370C0CF187
:104F7000300C052B80F804C077D002F00F02092A0C
:104F80008CBF37323032062B42716ED0CA784FEA6E
:104F9000121C9F2A8CBF0CF1370C0CF1300C072B24
:104FA00080F806C061D002F00F02092A8CBF3732A8
:104FB0003032082BC27158D00A794FEA121C9F2A4E
:104FC0008CBF0CF1370C0CF1300C092B80F808C0A9
:104FD0004BD002F00F02092A8CBF373230320A2B35
:104FE000427242D04A794FEA121C9F2A8CBF0CF1C0
:104FF000370C0CF1300C0B2B80F80AC035D002F0C6
:105000000F02092A8CBF373230320C2BC2722CD0DF
:105010008A794FEA121C9F2A8CBF0CF1370C0CF1D5
:10502000300C0D2B80F80CC01FD002F00F02092AA3
:105030008CBF373230320E2B427316D0CA79110929
:105040009F2A8CBF373130310F2B81730DD002F086
:105050000F02092A94BF30323732102BC27318BFA7
:10506000103002D0002303707047184400230370EF
:10507000704700BFB82C002070B500F033F90C2346
:1050800040261B4CFF22A3670E201A49FCF7E6FAC4
:10509000194B32460021184602F052F8034600210F
:1050A00001258020154A58849A60843A5D701E83D9
:1050B0001E875960C2F88410C2F8801002F5807211
:1050C000DA60DA62803A83F8211083F83B10596283
:1050D0009A624FF0005608F093FC4FF48032084972
:1050E000084B25642846E664C4F89010DA6470BD65
:1050F00000001150A90300205C28002084001050FB
:1051000010D001000020115001210E20FCF734BA0C
:1051100000220248114600F005B900BF7C2800209B
:10512000044B197021B14FF40032034BC3F89020A7
:10513000704700BFDE2C0020002011500B785B066A
:1051400002D14B78052B00D070474B88014ADBB267
:105150001360704700001150CB782DE9F04103F047
:10516000030EBEF1010FC3F301005DD0002791F8DB
:1051700002C0354C0CF07F035E00898806EBDC1220
:1051800004EB42124FEADC15D076C1F30A0185F038
:105190000100507082F802C01183D77018B2DA0093
:1051A0008DBB2A48043204EB831C02EB0008CCF8C8
:1051B000088017508BB3264ADB001A44CCF8042031
:1051C000244B3F311A6821F03F01BEF1020F08BFA6
:1051D000490011441960204B771904EB4717994295
:1051E000FA602CD82E4404EB4613D97E82F0A042FC
:1051F00082F480125B6842EA816242F000421A60E7
:105200000120BDE8F081DFF844C004EB831862445C
:10521000C8F828204CF830704BB900220F4904EB35
:105220004513D9605A60EBE70020BDE8F081DB0050
:1052300003F1A04303F58013C8F82430C0E7FDF75D
:105240009FF9FA68CEE700BF5C280020800010506C
:10525000040010508C2C0020FF0F10500001105043
:1052600008F0CEBB8C4608B5114607481A460CF02C
:105270007F034FEADC1C0CEB430C00EB4C1000F0FE
:1052800051F8012008BD00BF5C280020CB0911F0B7
:105290007F0103D1064AC3F102009066054803EB83
:1052A00041034FF40062002100EB431008F0B0BB53
:1052B000002011505C28002011F07F0300D17047BE
:1052C000002210B4C809064C00EB430004EB401365
:1052D0006FF4006118465DF8044BDA7008F098BB73
:1052E0005C2800204FF0805209480A4908B50A4B53
:1052F00002600A609968C94311F08051FAD14FF4F5
:105300008052064801F01CFF0922054B5A6708BD70
:105310000020024000300240000002400000105017
:105320000000115000234FF0010C10B580F81AC096
:105330008282C3820161044608F072FB20B14FF4FF
:105340000032074BC3F89020204608F05DFB10B1F7
:105350000123237710BD2046BDE8104008F03CBB78
:10536000002011502DE9F04100241D4E0546234632
:105370003278DFF878801B4F0DE03B6813EB441365
:1053800025D0DB682846984732780134E4B2511CB6
:10539000A142234606DBA242A3EB0203EDD808EBB1
:1053A0004313EEE7104C54220021204601F0C8FEC2
:1053B0004FF0FF33251D6360C5E90133EB6004F155
:1053C00014002022BDE8F041FF2101F0B9BE4FF0EA
:1053D000E023D3F8F03DDB0700D500BEBDE8F08147
:1053E000DD2C0020FC22002004240020ACE1001071
:1053F000704700BF704700BF002070470020704713
:10540000704700BF704700BF704700BF704700BFC4
:10541000024B5878003818BF012070470424002040
:10542000024B1878C0F38000704700BF04240020AE
:105430002DE9F047DFF8E8A09AF80030FF2B02D002
:105440000120BDE8F0870E4600293ED000215422FD
:105450000746294801F074FE0022284C284B2046BC
:105460001A70FCF78DFA274B27481C60274CFCF775
:1054700095FA204601F0B0FD254A264B264D1460D2
:1054800063B32846FFF7BAFA244B2A781860002441
:10549000DFF890902346DFF884800EE0D8F80030E3
:1054A00013EB441311D05B687BB198472A78013421
:1054B000E4B2511CA142234612DBA242EED89B1A51
:1054C00009EB43135B68002BEFD14FF0E023D3F8D7
:1054D000F03DDB0700D500BE0020B2E72A78D6E712
:1054E000314638468AF80070FFF7C6FD0028ECD038
:1054F0003846FFF709FEA3E704240020FC23002020
:10550000DF2C002058240020A01600208C1600203C
:105510005C240020FD490010DD2C0020FC2200202E
:10552000A8160020ACE100102DE9F04FDFF8C8927A
:105530008BB099F80030FF2B00F0F180A84CA94DFA
:10554000DFF8B0A2DFF8B4B226687369EFF3108217
:1055500072B6D3E8CF0F01210028FAD1C3E8401F6B
:105560000028F6D1BFF35F8FB261304607A901F082
:1055700081FB00237269C2E88F3FB36983F310880F
:10558000002800F0CC809DF81D30013B072B00F275
:105590007D83DFE803F0A7B1959D8E350A04089B53
:1055A000002BD1D009989847CEE79DF8201001F044
:1055B0007F0605EB460000EBD11090F8343023F065
:1055C000010380F8343090F8343023F0040380F87D
:1055D0003430002E00F0A680037D9AF8002093421C
:1055E00080F09380804A126812EB431300F09080A1
:1055F0009E699DF82120099B9DF81C00B047A3E7F8
:105600009BF80030002B00F083809BF80030013BBA
:10561000DBB28BF800309BF8003003F0FF00002B6A
:1056200092D1704F9DF81C803B7843F001033B7092
:1056300097F8343060F3000387F8343097F834304B
:1056400060F3820387F8343097F8353060F3000355
:1056500087F8353097F8353060F3820387F83530B6
:1056600000F06AFC9DF8203003F06002602A6CD0E4
:10567000402A7CD003F01F03012B00F0C180022BD5
:1056800000F08180002B60D1202A00F0E981002AFF
:105690005BD19DF82130092B57D8DFE813F0B0011A
:1056A000A2015600C101560095016B015600600130
:1056B000F4002B78D9077FF547AFFFF7A7FE43E744
:1056C000EB78DA077FF540AF0898FFF793FE3BE7EA
:1056D0002B78D8077FF538AF2878C0F3C000FFF7E4
:1056E00093FE31E79DF81C00FFF73CFE00F01AFC2A
:1056F0009DF82030AB7027E79DF81C00FFF732FEC5
:1057000000F010FCFFF77EFE1EE7501C984211DAF5
:105710004FF0E023D3F8F03DDC0700D500BE0BB01E
:10572000BDE8F08F099B9DF821209DF81C0000F03A
:1057300017FC09E79B1A2D4A02EB431358E7FFF7C2
:1057400085FB0246002840F082814FF0E023D3F829
:10575000F03DDE0700D500BE9DF81C000021FFF7DC
:1057600095FD80219DF81C00FFF790FDECE6204898
:1057700000F0E2FB0121404608AAFFF72BF90028C0
:105780007FF4E2AEE8E79DF8241011F0700FDCD151
:1057900001F07F0607EB4600164B00EBD1101B789B
:1057A000007D7600019698424FEAD116009659D3B3
:1057B0005E1C8642C0F26681C01A0C4B03EB401699
:1057C000002A00F06381706900F0B6FB01214046B9
:1057D000736908AA984700287FF4B6AEBCE700BFFB
:1057E0005C24002004240020FC220020ACE10010F6
:1057F000D5490010DD2C0020A8160020DF2C002049
:105800009DF824300F2BA7D8AE4A3B441B79127861
:10581000934232D3511C99429EDBAB4E9B1A06EB4E
:105820004316706900F088FB01214046736908AA9D
:10583000984700287FF488AE9DF8203013F060066A
:105840008AD19DF821300A3B012B85D800F074FBEA
:105850009DF821300A2B00F0F281404608A900F0A3
:10586000F1FA71E6994B1B6803EB4016002A00F031
:105870000D81002E3FF470AFA5E7944A166816EB31
:105880004316CED168E77B789DF822609E4200F0F7
:105890004F817B78002B40F0BE817E70002E00F09F
:1058A0004581701EC0B2FFF7D1FA0346002800F010
:1058B0005F814278022A40F05B81C17903F10906D9
:1058C000C1F340121201C1F3801142EA4112314684
:1058D000387820F0300002433A705A88CDF80C80B6
:1058E0009A180192019B8B4240F2A4814A780B2ABC
:1058F00000F0AF810123042A40F03A810026019A8A
:105900000096521A92B202926E4A049312781DE0E7
:105910006E4B1B6813EB461800F02A81029AD8F8E8
:10592000103003980591984708280246059906F11A
:10593000010303D90298904280F0FF80DEB2614BF0
:1059400000961A78531C9E4200F31281009BB242CB
:10595000A3EB0202DCD85C4B03EB4218DEE77B785A
:1059600040468DF81A300DF11A02012308A900F003
:1059700083FAE9E5BDF82200030A013B020AC0B23E
:105980000E2B3FF6E9AE01A151F823F0A15B001008
:105990003D5A0010DD5B0010595700105957001098
:1059A000BF5B00103D5A00105957001059570010A6
:1059B00059570010595700105957001059570010E7
:1059C00059570010935B001008A800F0BBFA40463E
:1059D0009DF82210FFF79CFB3B7843F002033B70DD
:1059E000B2E5BDF82230012B7FF4B6AE3B784046DD
:1059F00023F0080308A93B7000F024FAA4E5404610
:105A00003B789A0802F00202C3F340131343ADF847
:105A10001A300DF11A02022308A900F02DFA93E5BD
:105A2000BDF82230012B7FF497AE3B78404643F01F
:105A3000080308A93B7000F005FA85E5022A3FF447
:105A40007EAEFFF7DBFC024600283FF485AE404601
:105A5000538808A900F010FA00287FF475AD7BE6A2
:105A60009DF824300F2B3FF677AE164A3B441B7946
:105A7000127893421DD2154A166816EB43167FF42E
:105A8000A2AE69E6002A7FF467AE00269DF82120C9
:105A900002F0FD03012B1BD0002A7FF456AE019BC0
:105AA000009A3B44134493F834304046C3F3400318
:105AB000ADE7511C9942FFF64FAE034E9B1A06EB21
:105AC000431680E6DD2C0020ACE10010FC22002013
:105AD000BDF82230B3B9012A99F8000000F08680A1
