:020000041000EA
:10000000002008205D0100101301001015010010F0
:100010001101001011010010110100101101001058
:100020001101001011010010110100101701001042
:100030001101001011010010190100101B01001026
:100040001D0100101D0100101D0100101D010010F8
:100050001D0100101D0100101D0100101D010010E8
:100060001D0100101D0100101D0100101D010010D8
:100070001D0100101D0100101D0100101D010010C8
:100080001D0100101D0100101D0100101D010010B8
:100090001D0100101D0100101D0100101D010010A8
:1000A0001D0100101D0100101D0100101D01001098
:1000B0001D0100101D0100101D0100101D01001088
:1000C0001D0100101D0100101D0100101D01001078
:1000D0001D0100101D0100101D0100101D01001068
:1000E0001D0100101D0100101D0100101D01001058
:1000F0001D0100101D0100101D0100101D01001048
:100100001D0100101D0100101D0100101D01001037
:1001100000BE00BE00BE00BE00BE00BEEFF3058004
:10012000103800BEF2EB887110EC001030EC0010BB
:10013000A801001090A31AE7D3DEFFFF42012110AF
:10014000FF010000E8070100793512AB4FF0000015
:100150002049086006C881F3088810474FF05040D6
:10016000006810B14FF00000F2E70FA40ECC002998
:1001700002D000F015F8F9E71749184A002000E00E
:1001800001C19142FCD1002080F30A8814498847BC
:10019000144988471449884700BEFDE701C901C2D8
:1001A0009A42FBD3704700BF30EC001010010020D2
:1001B000001E002020090110000008200000082077
:1001C0002009011000100820001008200000000085
:1001D0007047000008ED00E0001E00202C2E0020DB
:1001E000C9490010F90400108D490010F8B500BF8E
:1001F0000348044B834202D0034B03B118477047B6
:10020000001E0020001E002000000000064B0749D1
:10021000C91A891048BF0131491003D0044B0BB1F2
:1002200001481847704700BF001E0020001E002034
:100230000000000010B5064C237843B9FFF7D8FF43
:10024000044B13B10448AFF300800123237010BDA9
:10025000C0200020000000003CE0001008B5044B66
:100260001BB104490448AFF30080BDE80840CDE766
:1002700000000000C42000203CE00010022210B565
:1002800082B011244FF000038DF805008DF80610A0
:100290008DF8042043EC4040032201A904480DF0EE
:1002A000A3FE4FF0010343EC404002B010BD00BF7D
:1002B000000008402DE9F04F00268FB0082B1C46A7
:1002C0000B968DF82C3028BF082305460127894658
:1002D0000DF12D0011461A460193CDE90C66CDF8BB
:1002E00028908DF8357009F087F8BD4214BF82233D
:1002F00081238DF8133015BF41233123402530254C
:10030000029302F05DF94FF0FF376FF0004610F5F1
:10031000FA6B41F1000A5F4576EB0A013CBFBB4630
:10032000B2464FF003084FF00107394ECDF80C905C
:1003300009E002F045F9BBEB00006AEB010101287E
:1003400071F100015BDB00234FF011098DF814807F
:100350008DF815508DF8163043EC4090032330464D
:1003600006AA05A90DF028FE47EC40909DF81A104A
:1003700011F00801DDD1DDE902398DF819300223D1
:100380008DF818309DF835305FFA89F2002B39D19D
:1003900055011A46C9F3C7039146EDB2002063F335
:1003A000070065F30F2069F31740019D62F31F609A
:1003B000CDF81A002A4604F00F040DF12D010DF1BD
:1003C0001F008DF81E404FF0000609F015F81124AB
:1003D00046EC40402A46073206A9D2B20C480DF03E
:1003E00003FE4FF0010545EC404046EC4040012241
:1003F0000DF1130106480DF0F7FD45EC40400FB03C
:10040000BDE8F08F0B460825C9F30729C6E700BFF2
:1004100000000840042330B5002583B00DEB030233
:1004200040F4807104460195FFF744FF0423204601
:100430000DEB030244F400710195FFF73BFF104BF5
:100440001B78A34216D00F4B1B78A34201D003B0F8
:1004500030BD00220C4B0D4C1D809A610022002300
:100460000621A2602170E36002F0AAF8C4E9040149
:1004700003B030BD0022064B064C1D809A61EDE7AB
:10048000A9160020A8160020682000207816002059
:100490004820002090160020F8B50F2001F048F900
:1004A0000E2001F045F90D2001F042F90C2001F079
:1004B0003FF900240F2044EC44000E2744EC447024
:1004C0000D2644EC44600C2544EC445001212246A6
:1004D00001F01AF922463846012101F015F92246A9
:1004E0003046012101F010F922462846BDE8F840C7
:1004F000012101F009B900BF2DE9F04F2DED088B66
:10050000C9B004F0CBFBFFF7C7FF43F6982001F01A
:10051000C9FFB849B84807F061F80121122001F07D
:10052000D5F80121132001F0D1F80121102001F0AC
:10053000CDF8112001F0FCF811244FF0010545EC35
:10054000444045EC4040AD4804F032FCC0224FF03E
:1005500000038DF8A02043EC4040012228A9A648C2
:100560000DF042FD45EC40400A2001F09BFF802148
:100570000F20FFF783FE00212A20FFF77FFED12105
:100580002920FFF77BFE81212820FFF777FE00213D
:100590000F20FFF773FE9A4804F00AFC0021202088
:1005A000FFF76CFE00212120FFF768FE00212220CA
:1005B000FFF764FE00212320FFF760FE00212420C6
:1005C000FFF75CFE00212520FFF758FE00212620C2
:1005D000FFF754FE00212720FFF750FE894804F062
:1005E000E7FB60210846FFF749FE60217020FFF716
:1005F00045FE00212C20FFF741FE834804F0D8FB84
:10060000DFED828A01F0DCFF9FED81BA01F0D8FFB7
:100610009FED80AADFED80BADFED80AADFF804B29B
:10062000DFF8FCA1002004F03BFB841C13D00D2854
:10063000F8D00A28DBF8003000F09B817E2B8FBFBA
:100640000023774AD05401330020CBF8003004F067
:1006500027FB841CEBD14FF050435A685E681004AE
:100660005D685C6800F15C86710400F16586AA042F
:1006700000F16E86E30400F148864FF00109DFF8CF
:1006800078A10025A02311248DF874308DF87C50BA
:1006900045EC404001221DA950460DF0A5FC012368
:1006A000294650461FAA0DF097FC49EC404042F6FF
:1006B00003438DF87650ADF8743045EC4040032389
:1006C00050461FAA1DA90DF077FC49EC40409DF84B
:1006D0007E3013F0010240F0FF8313F0020800F0B7
:1006E000218474237525CDE90E5373230C93722353
:1006F0007624109371230B9200264FF003081125E6
:1007000037468DF875308DF876608DF8748046EC3C
:100710004050434650461FAA1DA90DF04DFC49EC20
:100720004050109B8DF874808DF875309DF87E30A8
:100730008DF87660109346EC4050434650461FAA11
:100740001DA90DF039FC49EC40500C9A8DF87480CD
:100750008DF875209DF87E208DF876600C9246EC21
:100760004050434650461FAA1DA90DF025FC49ECF8
:1007700040500F9A8DF874808DF875209DF87E207A
:100780008DF876600F9246EC4050434650461FAAC3
:100790001DA90DF011FC49EC40500E9A8DF87660C1
:1007A0008DF875209DF87E608DF8748047EC405080
:1007B000434650461FAA1DA90DF0FEFB49EC4050D0
:1007C0000C9B9DF87E2013F00805119202F00F0794
:1007D00040F043834FEA5318109B48EAC3030C933D
:1007E000002F3CD04FF003082744FFB229AE0E95EE
:1007F0001AE000BF40420F000000084040E0001037
:1008000058E0001070E000108CE0001000000000C4
:100810000000B443CDCC4C3D00FEFF46CDCCCC3DDA
:10082000482D0020CC2D0020002311258DF8748048
:100830008DF875408DF8763043EC405003235046D8
:100840001FAA1DA90DF0B8FB49EC405001349DF8DA
:100850007E30E4B2BC4206F8013FE5D10E9D0B9B11
:10086000002B00F0F582BB4B11241F934FF00003C7
:1008700043EC4040042250461FA90DF0B5FB49EC63
:100880004040002D3FF4FDAEB34B0C9A1B7843F46F
:100890002453934206D0B14B1B7843F42453934224
:1008A0007FF4EFAEBDF8A530B2EE047ADBBA09EE04
:1008B000903ABDF8A730DFEDAA7ADBBA09EE103A1C
:1008C000BDF8A930F8EEE99ADBBA08EE103AB8EEB6
:1008D000C99AB8EEC88A69EEAA9A29EE079A28EE54
:1008E000278A9DF9AB709DF8AC609DF9305001F0FE
:1008F00067FE002900F04F854FF47A7200230DF057
:1009000053FB044618EE100ACDE906760DF044FBC1
:10091000CDE9040119EE100A0DF03EFBCDE902010C
:1009200019EE900A0DF038FB2A46CDE90001214668
:100930008C4804F0BFFA884A9DF8303012789A4209
:1009400000F07E85854A12789A427FF49AAE864CF2
:10095000119B1F077FF595AEC4ED019A84ED029AB5
:1009600084ED038A01F02CFE0123C4E90401237005
:1009700087E600247D4A5146D45428A8802206F0F8
:10098000A7FE242221461FA88DF81F41CBF8004066
:1009900006F0D0FE28AB1E4613F8012B202AFAD011
:1009A000092AF8D0002A00F0118207223046704947
:1009B00006F06AFF0546002840F0A7810624B0EE45
:1009C000689AB0EE688AF0EE689ACDED0C8ACDEDAB
:1009D0000B8A18EE909A804606468DF87C400E9061
:1009E0005D4B1B78B34200F015825C4B1B78B34221
:1009F00000F012825F4828A9023C04F05BFA072C41
:100A000000F24E86DFE814F036012101FA005401AD
:100A1000BE009B0008004A014F4B1B78B34200F018
:100A2000E6844E4A1278B2427FF4FCAD524CF0EEAE
:100A3000C97AB3EE0E7AF4EEC77A0122F1EE10FA1B
:100A4000C4ED068AC4ED019A84ED028A228040F347
:100A5000BF84B5EEC09AFBEE0E7AF1EE10FAF6EE18
:100A6000006A54BF17EE105A17EE905A78EE697A62
:100A7000F0EEE77A87EE8B7AC7EE267AF4EECA7A42
:100A8000F1EE10FA77FE8A7AB342C4ED037A00F0F1
:100A9000CD84324B1B78B34240F0CE84F1EE087A1D
:100AA000B2EE0C7A06EE905A67EEA67A67EE877A77
:100AB00017EE900A0DF064FAB0F5004F80F2D6847C
:100AC00010F5004FC0F2E08500B207EE900AF8EE94
:100AD000E77AC4ED077A01F073FDC4E904016068A8
:100AE0000DF05AFA8046E06989460DF055FACDE9D5
:100AF0000801E0680DF050FACDE9060128460DF036
:100B00004BFACDE9040119EE100A0DF045FACDE9D2
:100B10000201A0680DF040FA4246CDE900014B46C3
:100B20003146164804F0C6F97CE5DDED0B7A042366
:100B3000C7ED037A3B7001F043FDC7E904010B9850
:100B40000DF02AFA02460B460D48314604F0B2F980
:100B500068E500BF052C0100A9160020A81600209A
:100B60000AD7233CFCE20010A0200020482D0020E2
:100B70008CE100107CE300106820002094E100105C
:100B800064E100100024BD4DBD4E28781DAA40F43C
:100B9000807104231D94FFF78DFB30781DAA40F46B
:100BA000807104231D94FFF785FB28781DAA40F46B
:100BB000007104231D94FFF77DFB30781DAA40F4DB
:100BC000007104231D94FFF775FB0623AD4AAE495F
:100BD0001480AE4D0C80AE4CC2ED068A23702B7093
:100BE000C1ED068A01F0ECFCC4E9040101F0E8FC67
:100BF000C5E90401A74804F0DBF813E59F4CA04EBB
:100C000020781DAA40F4A06101238DF87450FFF7ED
:100C100051FB30781DAA40F4A06101238DF8745077
:100C2000FFF748FB2946337822789B4804F042F9C5
:100C3000F8E40E9BC7F804907B810323A7F8088093
:100C40003B7001F0BDFCC7E9040148460DF0A4F972
:100C50000B460E990246CDE900819048314604F0DA
:100C600029F9DFE40223C7F804903B7001F0A8FCE7
:100C7000C7E9040148460DF08FF902460B46884843
:100C8000314604F017F9CDE4DDED0C7A0723C7ED0A
:100C9000037A3B7001F094FCC7E904010C980DF055
:100CA0007BF902460B467F48314604F003F9B9E46C
:100CB00000270024042330461DAA46F480711D94A9
:100CC000FFF7F8FA042330461DAA46F400711D947C
:100CD000FFF7F0FA694B1B78B34200F08683684B4C
:100CE0001B78B3420BD02FB106233B7001F068FC98
:100CF000C7E9040131466C4804F0DCF892E4624B29
:100D00000022C3ED068A1A80EDE7002530466749C8
:100D100014AB13AACDE9135506F05EFD022800F0CE
:100D2000E8803046624915AB13AACDED158A06F06E
:100D300053FD022800F0A58216AB019317AB009378
:100D400030465C4915AB13AACDED168ACDED178A56
:100D500006F042FD042800F0AD823046564918AA3C
:100D6000189506F039FD012800F0FD823046534900
:100D700013AA06F031FD012800F0138330465049D4
:100D800019AB13AACDED198A06F026FD022800F052
:100D900031831CAB01931BAB0093304649491AAB1E
:100DA00013AACDED1A8ACDED1B8ACDED1C8A06F073
:100DB00013FD042800F0F883304643491DAB13AA05
:100DC000CDED1D8A06F008FD022804D028A93F4871
:100DD00004F070F826E40025DDED1D7A0924274B88
:100DE0009DF84C601B78B0EE689AB342B0EE688A0A
:100DF000F0EE689ACDED0B8A18EE909ACDED0C7A54
:100E0000CDED247AA8468DF87D608DF87C400E9556
:100E10007FF4EBAD1E4F00E01C4F2D4828A9023C8B
:100E200004F048F8072C00F2338401A353F824F0AF
:100E3000650C0010330C0010FD0B0010B30C0010FB
:100E4000850B00102B0B0010190A0010890C0010E4
:100E5000204B11241F930B9B0AE50F9B109946EA28
:100E600003260C9B1A0402F440325B09324343EA26
:100E7000C10342EA83430C93B2E400BFA9160020E9
:100E8000A8160020482000206820002078160020A6
:100E90009016002088E10010ECE100104CE10010F9
:100EA00038E1001018E2001078E10010C0E00010F6
:100EB000CCE00010D8E00010E8E00010F4E00010F2
:100EC000FCE000100CE100101CE10010A8E0001094
:100ED0007CE30010052C020064236522CDE90E237B
:100EE00063230C9362231093012366240B936123E5
:100EF00002E401249DF84C60BDF95080B0EE689A80
:100F0000B0EE688AF0EE689ACDED0C8ACDED0B8AD2
:100F100018EE909A8DF87D60ADF884808DF87C4055
:100F20000E955DE501F04CFB89467F4B0B901D93C0
:100F30007E4B1DAD1E937E4B1CAF1B788DF8703021
:100F40007C4B1B788DF8713055F8044B0B9A236954
:100F50007949D21A636969EB0303914278EB030381
:100F6000C0F2C780724B17F8016B1B78B34200F0D8
:100F7000D280704B1B78B34200F0EA802378013BAB
:100F8000062B39D8DFE803F09A8E04663838400023
:100F90000022D4ED017A9FED697AB4F908C0B4F962
:100FA0000A3067484FEAEC7180FB0C4C80FB034031
:100FB000DB17C1EBAC01C3EBA0031BB241F307206D
:100FC00023EAE37360F3070209B261F30F221912F7
:100FD00061F3174263F31F6267EE877A0823304696
:100FE000209246F4C0611FAAFDEEE77A17EE904A00
:100FF00024BA1F94FFF75EF91FABAB42A4D10A20BD
:1010000001F050FAFFF70CBBD4ED037AF5EEC07A8D
:10101000F1EE10FA00F12882B2EE047AF4EEC77A0B
:10102000F1EE10FA00F3D1829FED467A67EE877AEF
:10103000FDEEE77A17EE903A1BBA1F933046042371
:101040001FAA46F40071FFF735F91FABAB427FF4DE
:101050007BAFD4E7D4ED037AB8EE007AF4EEC77A2A
:10106000F1EE10FA00F1FE81B0EE007AF4EEC77AEC
:10107000F1EE10FA00F3A7829FED327A67EE877ADD
:10108000FDEEE77A17EE903A1BBA1F933046042321
:101090001FAA46F48071FFF70DF91FABAB427FF436
:1010A00053AFACE7D4ED017A9FED247A04233046A8
:1010B00067EE877A1FAA46F4806195E70023B4F9AA
:1010C00008203046111661F30703111461F30F2352
:1010D000111261F3174362F31F631F931FAA0423C6
:1010E00046F44071FFF7E6F81FABAB427FF42CAF3C
:1010F00085E7387804231FAA40F48071CDF87C80FE
:10110000FFF7D8F806232370094B17F8016B1B78FB
:10111000B3427FF42EAF0C4B1B78002B3FF42EAF65
:10112000DFF824A0094B1BE0901600207816002061
:10113000A9160020A81600200087930300401C4633
:101140006766666600007A444820002088200020F8
:10115000C84B1B78002B3FF411AFDFF818A3C64B28
:101160001A780C93002A3FF447AF0B9BDAF8102053
:10117000981ADAF8142069EB020101F0ABFF9FED39
:10118000CD7A06EE100AC6EE076AF5EEC06ADAED11
:10119000037AF1EE10FA0C9BF4EECA7A00F1988112
:1011A000F1EE10FA00F38C8186EE8A7AF0EE4A7A3C
:1011B000B1EE045AF7EE005A36EEC55AB4EE657A2F
:1011C00085EE276AF1EE10FAB5EEC06A35FE877A31
:1011D000F1EE10FA00F13882B4EEE56AF1EE10FAA1
:1011E00040F33482DAED027A93ED019A9AF80130F5
:1011F000B0EE678A002B40F074819AED018A37EED9
:10120000C86AF0EE489A38EE068AE7EE069A39EE9A
:10121000C87AB5EEC07AF1EE10FAB4EEC98AC0F21F
:10122000DF81F1EE10FA00F3DF81B0EE678A78EE2D
:10123000497AB7EE007AF0EEE77AF4EEC77AF1EE8B
:1012400010FA3FF6D9AE19EE100A0CF0A5FE0246D0
:101250000B4618EE100ACDE90C230CF09DFEDDE9DB
:101260000C23CDE900013146844803F023FE00231E
:10127000AAF800301FABAB42CAED068A7FF464AE19
:10128000BDE69DF84C60DDF85490B0EE689AB0EE83
:10129000688AF0EE689A0446CDED0C8ACDED0B8A93
:1012A000A8468DF87C008DF87D60CDF880900E9575
:1012B000FFF796BB9DED177ADDED167ABDEEC77A86
:1012C000FDEEE77A17EE103A0FFA83F817EE903A30
:1012D00003249DF84C60DDF854901BB2B0EE689A80
:1012E000B0EE688AF0EE689ACDED0C8ACDED0B8AEF
:1012F0008DF87D60CDF880908DF87C40ADF88480CD
:101300000E93ADF88630FFF76BBB5D4B1C4618782B
:10131000FFF780F821785B4803F0CCFDFFF7ADB90B
:10132000594B1F461878FFF775F83978574803F07E
:10133000C1FD71047FF59BA9534B1E461878FFF73A
:1013400069F85348317803F0B5FDAA047FF592A9F6
:101350004B4B1D461878FFF75DF829784D4803F090
:10136000A9FDFFF787B92E4604240E959DF860501D
:10137000B0EE689AB0EE688AF0EE689ACDED0C8A0D
:10138000CDED0B8A18EE909AB0468DF888508DF806
:101390007C40FFF725BB404AA2FB00239C09FFF7D6
:1013A000B1BAB0EE689AB0EE688AF0EE689A052499
:1013B0009DF84C60CDED0C8ACDED0B8A18EE909A1D
:1013C000A8468DF87D608DF87C400E95FFF708BB30
:1013D000F4EEEA7AF1EE10FA35D49FED307A19EE98
:1013E000105AC7EE876AFFF741BB2D4B88E42C4C9F
:1013F000FFF71DBB0025DDED197A07249DF84C6031
:10140000B0EE689AB0EE688AF0EE689ACDED0B7A8D
:10141000CDED237ACDED0C8A18EE909AA8468DF882
:101420007D608DF87C400E95FFF7DABAF2EE047A13
:10143000B3EE057AFFF736BBF0EE687AFFF749BBEB
:10144000184CFFF785BAB5EEC09ADFED177AF1EECA
:1014500010FADFED166A54BF1AEE905A17EE905A42
:10146000FFF704BB124B10E60023E6E5F0EE6B7AC3
:10147000FFF72FBB68200020A020002058E30010B9
:10148000A9160020C8E20010A81600202CE20010C7
:1014900060E2001094E20010D34D62100000704230
:1014A0004820002088200020CDCCCCBD0E74DA3A34
:1014B000FFFFF83000247449CDCC4C3E00401C4660
:1014C00086EEA77AB5EEC07AF1EE10FA7FF570AE2F
:1014D00093ED019A9AF801309AED028A002B3FF4BD
:1014E000A6AE23690B9AD01A636969EB030101F078
:1014F000F1FD1FED107A06EE900AC6EE877AF5EE42
:10150000C07AF1EE10FA68D41FED157AF4EEC77ABE
:10151000F1EE10FA5EDCB5EE007A67EE877A9AEDAE
:10152000067A77EE877AF5EEC07AF1EE10FA0B9B29
:10153000C4E904394BD4B7EE007AF4EE477AF1EE01
:1015400010FA77FE277A38EE498AB0EE497ADAED5A
:10155000076AA7EE887A1FED276AFDEEE66ACAEDF4
:10156000067A67EE067A16EE904AFDEEE77ADFF825
:1015700058C124B28CFB04CEE417C4EBAE0464BAA9
:1015800042F60143ADF8804017EE904AADF8823044
:10159000304608231FAA46F4C06124BA1F94FEF700
:1015A00089FE9AED028A42E6DDED1A9A9DED1B8ACC
:1015B0009DED1C9ACDED259A8DED268A8DED279A0D
:1015C00008240025F4E63A4B5FE53A4B35E5DFEDBC
:1015D0003A7AB8E7F0EE4A7AA1E7F0EE687A9EE749
:1015E000F1EE10FA7FF521AE0B9B16EE900AC4E9DE
:1015F00004390123CAED068A8AF801300CF0CCFCCC
:1016000002460B4619EE900ACDE90C230CF0C4FCFF
:10161000CDE9040118EE100A0CF0BEFCCDE9020180
:1016200019EE100A0CF0B8FCDDE90C23CDE900013D
:101630003146224803F03EFC9AF801309AED028AC6
:10164000002B3FF4F4AD4CE79FED1B6ADAED027A14
:1016500093ED019A9AF80130B0EE678A002B7FF47F
:1016600040AFF1EE045AF4EEE56AF1EE10FAFFF63F
:10167000DEAD9AED018A77EEC85AF0EE489AA5EEF3
:10168000868AE5EE879AC2E5DFED0D7AFFF721BA8B
:101690000123A7F808803B7000F092FFC7E904011E
:1016A00042463146074803F005FCFEF7BBBF00BFCA
:1016B000000007D0000027100000000020E3001009
:1016C000000000C728E100106766666610B44FF49A
:1016D00080740C4B53F8202003EB8003C00082F091
:1016E000400200F1804003F5805C02F0C00200F58A
:1016F000203003F54053CCF8002041601C605DF8B9
:10170000044B70470480034010B4084CC90041EA00
:10171000820154F8202004EB8003514003F58053EC
:1017200001F00C015DF8044B196070470480034020
:1017300030B44FF0000343EC440043EC4000052577
:101740004FF480740B4BC20053F8201003EB800061
:1017500081F0400102F1804303F5203301F0C00223
:1017600000F5805100F540500A605D60046030BCB7
:10177000704700BF048003400FB400B583B0049CE1
:10178000074803F015FB3CB105A92046019103F081
:10179000A7F8044803F00CFB012003F0B9F800BFE0
:1017A0008CE3001088E3001070B58646EFF31085D7
:1017B00072B6124CD4E8CF6F0120002EFAD1C4E8E3
:1017C000460F002EF6D1BFF35F8F4FF0010CC80813
:1017D00001F007030CFA03F31EF800C01CEA03062D
:1017E00008D14CEA030C0EF800C0C4E88F6F85F3F3
:1017F000108870BD1046FFF7BFFF00BFCB2400204C
:10180000F8B5EFF3108572B6234CD4E8CF7F0126EC
:10181000002FFAD1C4E8476F002FF6D1BFF35F8FD6
:101820009A4227D80126D70810F807E002F0070CE3
:1018300006FA0CFC1EEA0C0F00EBD2070DD125E0D6
:101840004FEAD20E10F80EE002F0070C06FA0CFC7C
:101850001EEA0C0F00EBD20718D001329342EFD2F0
:101860004FF0FF300023C4E88F3F85F31088984283
:1018700007DBF8BD0023C4E88F3F85F310884FF0E5
:10188000FF300029F5D00698FFF776FF4EEA0C0EE0
:10189000104687F800E0E5E7CB240020044A1078E2
:1018A000431CDBB2182B28BF10231370704700BFF6
:1018B000AA16002010B5054C82B001461F2318223D
:1018C00000940348FFF79CFF02B010BD9CE300109A
:1018D000DC2800204FF0E022936843F0005393602F
:1018E000704700BF0021044B03F12002C3E88F1FA3
:1018F00001339342FAD17047C02400204FF0E02317
:101900004FF08032C3F80024C3F80424C3F808243D
:10191000C3F80C24C3F81024C3F81424C3F8182403
:10192000C3F81C24C3F82024C3F82424C3F82824B3
:10193000C3F82C24C3F83024704700BF012300F003
:101940001F029340400941B1800000F1604000F562
:101950006140C0F8803103607047024A203042F88D
:101960002030704700E100E00123064A410952F8A7
:10197000212000F01F008340134214BF01200020EB
:10198000704700BF00E100E001224309034900F075
:101990001F008240403341F82320704700E100E0FF
:1019A000054A10309268054B52F82000C01A2F28C3
:1019B0008CBF00200120704700ED00E0AC16002035
:1019C000F8B50D46EFF3108772B6124ED6E8CF2F5A
:1019D0000123002AFAD1C6E8423F002AF6D1BFF31C
:1019E0005F8F0D4B00F110049B680C4A53F82430B4
:1019F000934203D0994201D000F0A2FF064B9B68AE
:101A000043F82450BFF35F8F0023C6E88F3F87F36E
:101A10001088F8BDC924002000ED00E01D01001071
:101A20002DE9F04F81468B46164683B0EFF31083C5
:101A300072B6DFF8D0A10093DAE8CF1F01230029A6
:101A4000FAD1CAE8413F0029F6D1BFF35F8F664B58
:101A500093F90040002CC0F2A080644D04EB4407D1
:101A600005EB870898F8061009F110091970604B0A
:101A7000BF009B6853F829006300411B2F292FD911
:101A80005C49884240F0A4801C445B4B02372F44E1
:101A9000043BDB1BC3F34A036FEAC3434FF421410A
:101AA0006FEAD34325F8241005EB840463804BF6DA
:101AB0000153A380FF2348F00100E671C4F808B089
:101AC000A3714B4B9B6843F82900BFF35F8F002342
:101AD000CAE88F3F009B83F3108803B0BDE8F08F06
:101AE00020F0010E9EF80710B1422ED84FF421438A
:101AF000EB53414BB91C2944043B04375B1A2F4478
:101B0000AEF104013D4CC91BC1F34A012143A8F8C1
:101B10000410C3F34A033A492343A8F802304AF6B3
:101B2000AA2073465B1B5B415843000D88F8076091
:101B300088F80600C8F808B048F00100CEF8001098
:101B4000BFE7D179B1422ED996469EF906C00CEB7B
:101B50004C02BCF1000F05EB8202F2DA4BF60151A8
:101B60000EF10402A8F10407BF1AC7F34A076FEA8F
:101B7000C7476FEAD7478EF8064003EB0408204CAE
:101B800005EB8803AEF8047045F82840998083F887
:101B900006C0DE71C3F808B093E700F0D1FE124B27
:101BA00093F9004059E7724632F8041F490514D4EE
:101BB0004915023102EB410101916FF00701C91B88
:101BC000019F491B3944C1F34A0141F46041C9E70F
:101BD000019300F0B5FE019B56E701F5FF1101F5F9
:101BE000FF511F31E4E700BF242E0020AC16002077
:101BF00000ED00E01D010010DC16002000E0FFFFFA
:101C000001488047C9240020F0B5EFF30585EDB207
:101C1000EFF3108C72B62649D1E8CF2F0123002AAA
:101C2000FAD1C1E8423F002AF6D1BFF35F8F214EBF
:101C300040F0010EB4684AF6AA2354F825701E4AF3
:101C40000446A41A644163431B0D77455BB21BD065
:101C500092F906409C421CD092F912409C4223D03B
:101C600092F91E409C4221D092F92A409C4208BF22
:101C700003240FD0114A0024157813708571C1E830
:101C80008F4F8CF31088F0BDB2680D4C42F82540A0
:101C9000F0E7002404EB440402EB8402FF24947177
:101CA0004BF601549480E5E70124F3E70224F1E7C1
:101CB000C924002000ED00E0AC160020242E0020F6
:101CC0001D01001010B5074C82B00146052300220B
:101CD00000940548FFF794FD0028A8BFC0F1330029
:101CE00002B010BDB8E30010282E0020014B0B44B9
:101CF00003607047C024002070B5104C104DAC42FA
:101D00000ED2FF26236863B1FFF7C8FD01462046C7
:101D1000FFF7ECFFA680BFF35F8F0834AC42F1D32E
:101D200070BDFFF7BBFD01462046FFF7DFFF2671C0
:101D3000BFF35F8F0834AC42E4D370BDF81D0020C0
:101D4000001E002010B50446FFF7A8FD01462046FE
:101D5000FFF7CCFFFF232371BFF35F8F10BD00BFE0
:101D600010B504460120FFF7A5FD034B0344236093
:101D7000BFF35F8F10BD00BFC0240020024B0B4497
:101D80000360BFF35F8F7047C02400200D4B1A68BB
:101D9000EFF3108172B6D2E8CFCF0120BCF1000F73
:101DA000F9D1C2E84C0FBCF1000FF4D1BFF35F8F43
:101DB00000221B68C3E88F2F81F3108840BF0020EA
:101DC00000217047042E00202DE9F04F2DED028BED
:101DD00085B0EFF30583DBB2103B9A0818BF0122F0
:101DE0004FF0010103F0030018BFAF4DAF4B08BF28
:101DF000AF4D00EB820253F8226001FA00FB05F5BB
:101E000041539FEDA78B0190C3F804B02EE0B38837
:101E1000180440F19280B379002B40F0DC80B6F9D1
:101E200008100029C0F21D81736901EB410103EB29
:101E3000C103D3E90247B7F1FF3F08BFB4F1FF3F49
:101E40000DD0019B05EB8301AB6A0A69D21AE31A34
:101E5000934203D32B6A13EA0B0F00D10C6128467F
:101E600000F0A6FBA042B941C0F2FB80B6F90830F1
:101E7000C5F83CB0002B0093C9DBD6F8149003EBF7
:101E8000430A284609EBCA07D7E9024800F090FB4D
:101E9000A04271EB0801BADBB8F1000FC0F2C380B9
:101EA000D7E90431834A934200F0ED807A88B6F98D
:101EB000080092B242EA0040984702460B4652EAB6
:101EC000030100F0B080002B80F2D180B4EB020E51
:101ED00068EB030839F93A30C7E902E8002B96DBD2
:101EE000716903EB430201EBC202D2E90270BE4505
:101EF00078EB000C4FEA430289DBB4462CF8083F2C
:101F00000BE031F93230A446002B0DDB03EB43002C
:101F100001EBC0005A00D0E90270BE451A4478EBCC
:101F2000000001EBC204ECDA29F83A30009BACF86F
:101F30000030B38818043FF56EAF3369EFF31082B9
:101F400072B6D3E8CF0F01210028FAD1C3E8401FB1
:101F50000028F6D1BFF35F8F4FF6FF74B0880023DF
:101F6000316900B2B480C1E88F3F82F31088984293
:101F7000FFF651AF0746A946746906F1080807EB5A
:101F8000470E04EBCE03D3E90250B6F90830C4463D
:101F9000002B13DBB246009704E034F93630944648
:101FA000002B09DB03EB430604EBC602D2E9027106
:101FB000BD4270EB0101F0DA5646009FACF80070AC
:101FC00034F93E7024F83E30002FD8DAB3794D460C
:101FD000002B3FF424AF0023B371B6F9083006F1AB
:101FE0000808591C3DD01946776903E080465A1C01
:101FF0003FF417AF03EB430207EBC200B0F802C097
:102000001C461CF4004F9E4637F93230EED08C420D
:1020100080ED028B05D0A8F80030318927F8321006
:1020200034817146E3E739F83A3033813369EFF3AD
:10203000108272B6D3E8CF0F01210028FAD1C3E88D
:10204000401F0028F6D1BFF35F8F7388316929F8EC
:102050003A30009B73800023C1E88F3F82F31088E1
:10206000D5E640BF05B0BDEC028BBDE8F08F284639
:10207000CDE9022300F09CFA029A039B10EB020EBA
:1020800043EB010826E708460B69029198470028B0
:10209000C9D00299D1E9002311E700BFAFF3008056
:1020A000FFFFFFFFFFFFFFFF00800B40DC2D002044
:1020B00000000B40C91D00102DE9F84F364C256972
:1020C0002DB1BDE8F84F0A213448FFF70FBEDFF805
:1020D000E4800321404600F059FA0326C4F80C803E
:1020E000FFF7DCFB4FF0504C2D4B2670034423616F
:1020F000DCF800300F216370636961801D834FF04D
:102100000405A3F878504FF00505A3F890504FF060
:102110000605A3F8A8504FF007050E214FF6FF72F1
:1021200008274FF00A0EA3F8C0504FF001094FF0F6
:102130000C0C4FF0020B4FF0090A0D204FF00B056D
:10214000A3F868111749A280A3F808E1A160A3F8D9
:1021500048B0A3F8F0A0A3F82051A3F838C1A3F821
:102160005001A3F83090A3F86060A3F8D8701A80EB
:102170000D4B3046C8F820700C49DC60FFF720FC9E
:1021800049463046FFF7DAFB094B0A211F64034832
:10219000BDE8F84FFFF7AABDF4160020042E00207A
:1021A000C0240020FFFF1000DC2D0020C91D0010FE
:1021B00000200B4000000B4000487047F416002040
:1021C000F8B59DF82070044616461D4637B900F054
:1021D000F7F9864265EB010100295CDB2369EFF327
:1021E000108772B6D3E8CF1F01220029FAD1C3E8C5
:1021F000412F0029F6D1BFF35F8FB4F902C06369A4
:102200000CEB4C01BCF1000F4FEAC10203EBC10122
:1022100038DB985A4FF0000E60802069C0E88FEFDD
:1022200087F310880698C1E902650861079848613C
:1022300048880130C0F30E00012838BF01204880D3
:1022400040EA0C402169EFF3108572B6D1E8CF7FE8
:102250000126002FFAD1C1E8476F002FF6D1BFF356
:102260005F8FA1889952A4F804C02369C3E88FEF57
:1022700085F310880122E368217803F501538A4031
:102280005A60F8BD00232269C2E88F3F87F31088A7
:102290004FF0FF30F8BD3846F8BD00BF0146F0B53D
:1022A0000069EFF3108772B6D0E8CF5F0124002DEC
:1022B000FAD1C0E8454F002DF6D1BFF35F8FB1F9D9
:1022C00002E04C690EEB4E0CBEF1000F4FEACC055C
:1022D00004EBCC0C3DDB605B002648800869C0E85D
:1022E0008F6F87F31088BCF80200CCE9022301301D
:1022F000C0F30E00012838BF0120059BACF8020096
:10230000CCF81030069B40EA0E40CCF814300B6934
:10231000EFF3108272B6D3E8CFCF0127BCF1000FE4
:10232000F9D1C3E84C7FBCF1000FF4D1BFF35F8F4C
:102330008B886353A1F804E00B69C3E88F6F82F3C5
:1023400010880122CB68097803F501538A405A604E
:10235000F0BD00230A69C2E88F3F87F310884FF071
:10236000FF30F0BD03464089B0EB214F37DD58699F
:102370000A1402EB420210B500EBC2001C69EFF335
:10238000108C72B6D4E8CFEF0122BEF1000FF9D164
:10239000C4E84E2FBEF1000FF4D1BFF35F8F428827
:1023A00089B292B28A4207D000221B69C3E88F2FFC
:1023B0008CF31088002010BD42F4004242800121BD
:1023C000002218699971C0E88F2F8CF310881C784F
:1023D000DA68084602F50153A140596010BD00209B
:1023E000704700BF407870472DE9F041861F41F1EA
:1023F000FF35B04271EB050338BF002682B038BF0D
:10240000354604460F4600F0DBF8301A65EB010351
:10241000012873F1000306DA2046394602B0BDE810
:10242000F04100F009B900F0CBF8864265EB0101FC
:1024300000290ADB0021174B3246009316482B4631
:102440000191FFF72BFF0028E6DB4FF0000C13484B
:10245000134A436A9D4204D8816AB142DCD29D424C
:10246000DAD11368EFF3108172B6D3E8CF8F5FF043
:10247000010EB8F1000FF8D1C3E848EFB8F1000F32
:10248000F3D1BFF35F8F1368C3E88FCF81F3108858
:1024900020BFDEE78D1D0010F416002000000B4069
:1024A000042E002010B5044600F08AF84FF47A7329
:1024B0004FF0FF3C6FF00042E4FB0301BDE8104029
:1024C000844572EB01033CBF60461146FFF78CBFA9
:1024D0002DE9F04306460D4683B0EFF30584E4B2E0
:1024E0003CB1274B586AA8421CD2002003B0BDE87B
:1024F000F083244FD7F80C9097F80080484600F0FE
:1025000057F808F1040859F828301B1A301A65EBFF
:102510000101984271F1000111DB20BF184B586A8C
:10252000A842E2D39B6AB34203D3012003B0BDE8C3
:10253000F083401B18BF012003B0BDE8F08300F01A
:102540003FF8864265EB01010029CADB0E4B384695
:10255000CDE9003432462B46FFF7A0FE011EC0DD58
:10256000074B5A6AAA4208D39B6AB34203D3054871
:10257000FFF7F8FEB5E7AA42F9D120BFF7E700BFA1
:1025800000000B40F41600208D1D001010B4054B08
:10259000054C064AA04214BF1846581C5DF8044B6F
:1025A000FFF702B9E028002000800B40D4E30010C0
:1025B0000346416A0A46986A596A8A42FAD17047C4
:1025C000034B596A0A46986A596A9142FAD1704790
:1025D00000000B4010B4174A536A9C46946A536A31
:1025E0006345FAD1001959414FF0000228BF01227A
:1025F0000346CAB10F4B596A4B1C08BF0B4608D0A3
:102600004FF0FF310B460B48426A8A42FCD38A42A4
:1026100007D1084A02E0506A884202D1906A984283
:10262000F9D35DF8044B7047024A526A9142EAD8E6
:10263000EDE700BF00000B40074A536A9942FCD8FF
:10264000994207D1044B02E05A6A914202D19A6A38
:102650008242F9D3704700BF00000B4000EB400CF2
:102660004FEA8C0C0CF1804C0CF5803CF0B5164612
:10267000DCF80420051FB2F5803F38BF4FF48032EC
:10268000EDB238BFCCF80420012D2AD94FF40067F1
:10269000254C0CF54052176054F82020B2B9DCF8F4
:1026A0000020012D82EA461202F0E0020CF580566D
:1026B00032602AD94FF4006144F820304FF480335F
:1026C0000CF500521160CCF80430F0BD6769B7FB1F
:1026D000F2FE0EF1010E0EEB4E0EBEF1030EFCD219
:1026E000DDE70129D2D103240CF540521460DCF857
:1026F0000820D207FBD5DCF800200B4C82EA4612FA
:1027000002F0E0020CF5805632600122DCF8005045
:102710004D4005F00305356002FA01F1DCF80820B0
:102720000A42FBD0C6E700BFE4280020014B53F863
:1027300020007047E428002070B4039D04682D0336
:1027400045EA03451B4B002CB3FBF1F3B2FBF3F658
:102750001FDB194A194B904214BF4FF480424FF4CB
:102760000042174C1A6003F580531A60A36832EADE
:102770000303FBD1212200F540530433016086603E
:102780001A600268002AFCDA0822C5601A6070BC70
:102790007047036803F03F038B42DAD18368C3F3C9
:1027A0000B03B342D5D1C36803F4EE23AB42D0D1BF
:1027B000EDE700BF001BB70000800540002002408D
:1027C0000000024030B44FF080441C4B1C60E0B16C
:1027D0001B4CA3F54053DC611A4C40F0010044400F
:1027E0001C62596298624FF080454FF0E061134BD4
:1027F0001548164C1D60846019604AB930BC4FF012
:102800000042A3F580531A607047114BD861EAE784
:102810004FF47A7303FB02F2B2F1807F2ABF6FF0AC
:102820007F4313461A464FF080410A4C0848236004
:10283000094B426030BC1960704700BF00B00D40CA
:10284000D3C007B02D3FF84F00A00140F3FFFF01B8
:1028500000800D40C82D002000A00D40012300EB9A
:102860004000800000F1804000F58410416003606A
:10287000704700BF002370B5DB8A04460D46002276
:1028800042E800F2520254BF1021042144F25220C7
:10289000984786462B462246F446BDE870400A21FA
:1028A0004FF48170604700BF0023DB8A002242E8BA
:1028B00000F2520201D4102118470421184700BF2A
:1028C00008B503460846191E02DB1AB140F0300075
:1028D000FFF7D0FF40F02000FAE700BF034AD2F82C
:1028E0002838002BFBD0BFF35F8F704700000E40ED
:1028F0000021044B044ABFF35F8F43F8041B93424B
:10290000F9D170470C080E402C080E4010B44FF45B
:102910008D704FF42A64064A064B07491460D06054
:1029200019605368002BFCDA5DF8044B704700BF58
:102930000080044000A0044000B0FA00704700BFCF
:1029400008B50148FEF718FFF8E3001038B5054C4C
:10295000054DAC4204D254F8043B9847AC42FAD33C
:1029600038BD00BFF0DF001030E0001010B40748A1
:10297000074C084B084A094904601A608B6832EA20
:102980000303FBD15DF8044B704700BF00200240F9
:102990007F3BEFEF00300240F6FFF3030000024000
:1029A000044BDB6CB3F5004F03D14FF48022024B94
:1029B000DA64704700001150002011504FF0E022FF
:1029C000044BD2F8881D0B43C2F8883D10EE30044A
:1029D000704700BF030330006FF06041044B054AAD
:1029E00019609368DB4333F06043FAD1704700BF4E
:1029F000003002400000024010B545F25320FFF7BE
:102A000053FFBDE8104003460420184710B545F2B7
:102A10005320FFF749FFBDE8104003460120184747
:102A2000FEF760BF10B5054B054C4FF48872184691
:102A3000A16806F0E1FCA06010BD00BF000000200E
:102A400000ED00E0002370B52B4C82B0C4F8843058
:102A5000FFF75CFF0122294BDA63636C012BFCD189
:102A60000321264A244B11639C6B012CFCD10226C6
:102A7000052521460523224A22480096FFF75CFEE1
:102A800021462B46204A21480095FFF755FE00229B
:102A9000042031461E4BFFF7E1FD21462846002267
:102AA0001C4BFFF7DBFD0022082011461A4BFFF7F5
:102AB000D5FD002209201146174BFFF7CFFD00225C
:102AC00006201146134BFFF7C9FD0022114B0720CA
:102AD0001146FFF7C3FD0420FFF728FE00240F4B2B
:102AE000A3FB0035AD0CE0B229460134FFF7B6FE7A
:102AF000062CF8D102B070BD00000140003001404A
:102B0000002F685900000540008C86470080054072
:102B1000001BB70080D1F008006CDC0283DE1B4391
:102B200086B003B451FC0804CDE9020151FC09044C
:102B3000CDE9040151EC0A04CDE9060103BCF047DC
:102B4000BDE800504EEC00C4BDE800504EEC01C49E
:102B5000BDE800504EEC02C400BD000000B5FFF718
:102B6000DFFF02E010FE30F4F8D441EC100443EC37
:102B7000112400EE010410EE010480EE200451EC5B
:102B80001004704700B5FFF7CBFF02E010FE30F4F1
:102B9000F8D441EC100443EC112400EE010410EED3
:102BA000210480EE200451EC3004704700B5FFF79B
:102BB000B7FF02E010FE30F4F8D410B541EC100479
:102BC00043EC112451EC040453EC0524A0FB024C0B
:102BD0005FF0000EE0FB03CEE1FB02CE4CEC2044A4
:102BE0000024E1FB03E444EC30E480EE200451ECEB
:102BF0005004BDE81040704700B5FFF791FF02E0B8
:102C000010FE30F4F8D441EC100443EC112451ECE4
:102C10002104A0FB01126FEA820252FB100052FB5A
:102C200012F252FB1000A0EBD07C53EC04245CFBAE
:102C300013F153EC1524A1FB022001FB030053EC1C
:102C40004424A2EB000050FB1CF24FEA111312EBDC
:102C5000017043EBE27140EA515020EA915020F0BC
:102C6000070053EC7524A0FB023C53EC752400FBD9
:102C700003CC01FB02CC53EC0424ACEB824C40EAC5
:102C80005C70A0F1010041EC400480EE200451ECA6
:102C90007004704700B5FFF743FF02E010FE30F408
:102CA000F8D441EC100480EE220410EEB204704718
:102CB00000B5FFF735FF02E010FE30F4F8D440EC29
:102CC000700400EE010410EE210480EE200451ECAB
:102CD0003004704700B5FFF723FF02E010FE30F428
:102CE000F8D440EC600400EE010410EE210480EE04
:102CF000200451EC3004704700B5FFF711FF02E0EB
:102D000010FE30F4F8D441EC800400EE010410EE23
:102D1000010480EE400410EE1304704700B5FFF785
:102D2000FFFE02E010FE30F4F8D441EC800400EE27
:102D3000010410EE010480EE400410EE33047047ED
:102D400000B5FFF7EDFE02E010FE30F4F8D441ECE0
:102D5000100443EC112400EE010410EE3004C0F323
:102D60000070704700B5FFF7DBFE02E010FE30F4A4
:102D7000F8D441EC100443EC112400EE010410EEF1
:102D80003004C0F38070704700B5FFF7C9FE02E061
:102D900010FE30F4F8D443EC102441EC110400EEA2
:102DA000010410EE30F48CBF01200020704700BFFA
:102DB00000B5FFF7B5FE02E010FE30F4F8D443ECA6
:102DC000102441EC110400EE010410EE30F42CBF8D
:102DD00001200020704700BF00B5FFF7A1FE02E010
:102DE00010FE30F4F8D441EC100443EC112400EE52
:102DF000010410EE30F42CBF01200020704700BF0A
:102E000000B5FFF78DFE02E010FE30F4F8D441EC7F
:102E1000100443EC112400EE010410EE30F48CBFDA
:102E200001200020704700BF0022002950DA4042F4
:102E300061EB4101C9B1B1FA81F30B3B17D4D3F176
:102E4000200C30FA0CFC9840994051EA0C011A44CD
:102E5000524202F2324201EB025141F0004140F293
:102E6000FE739A4238BF704721E011467EE003F1BD
:102E7000210310FA03FCA3F1010301FA03FCC3F1DF
:102E8000200320FA03F021FA03F140EA0C00A3EB3F
:102E9000020202F2324214D050F1000041EB025122
:102EA00041F0004140F2FE739A4238BF70474FF044
:102EB0000001A8BFC7F6F0714FF000007047002175
:102EC0007047EBD350F1000020F00100E6E700224C
:102ED000B9B1B1FA81F30B3B16D4D3F1200C30FA1F
:102EE0000CFC9840994051EA0C011A44524202F2FB
:102EF000324201EB025140F2FE739A4238BF7047F2
:102F000020E0114600F066B803F1210310FA03FC3B
:102F1000A3F1010301FA03FCC3F1200320FA03F03B
:102F200021FA03F140EA0C00A3EB020202F2324262
:102F300012D050F1000041EB025140F2FE739A4270
:102F400038BF70474FF00001A8BFC7F6F0714FF0CF
:102F50000000704700217047EDD350F1000020F0D1
:102F60000100E8E7002880F235804042B0FA80F3A3
:102F70000B3B11D4984001EB0302524202F2124281
:102F800000EB025141F000414FF0000040F2FE73AF
:102F90009A4238BF704713E0C3F1000330FA03FCD4
:102FA000C3F120029040A3EB010202F212420CEBAB
:102FB000025141F0004140F2FE739A4238BF70471F
:102FC0004FF00041A8BFCFF6F0714FF000007047FE
:102FD0000021704760B3B0FA80F30B3B0FD49840E8
:102FE00001EB0302524202F2124200EB02514FF097
:102FF000000040F2FE739A4238BF704710E05B4217
:1030000030FA03FCC3F120029040A3EB010202F26C
:1030100012420CEB025140F2FE739A4238BF7047E5
:103020004FF00001A8BFC7F6F0714FF000007047E5
:10303000002170470022A2F232425FEA215CACF12B
:103040000103A1EB03515B0513F5800F32D212EBA4
:10305000535210D40B2A36DA9140D2F1200330FAC1
:1030600003F319439040BCF1000FA8BF70474042E2
:1030700061EB4101704720320EDD01FA02F3D2F11B
:103080002002D140D0401843BCF1000FA8BF7047C8
:10309000404261EB41017047524282F3050231FA2E
:1030A00002F00021BCF1000FA8BF7047404261EB65
:1030B0004101704702D000200021704750EA0131E1
:1030C00018BF4FF0000C6FF0004101EBDC716FEAAC
:1030D000EC7070470022002980F2A980404261EB29
:1030E0004101B1B3B1FA81F3083B16D4994010FA0B
:1030F00003FCC3F1200320FA03F040EA0100A2EB35
:103100000302C2F195021CEB0C0C40EBC25040F0E4
:10311000004020D0FE2A16D2704703F1210311FA95
:1031200003FC5CEA000CC3F1210321FA03F0A3EBDA
:10313000020202F1B50240EBC25040F000400AD05A
:10314000FE2A38BF70474FF00040A8BFCFF680700E
:10315000704711460AE028BF20F00100FE2A38BF60
:103160007047F0E7002880F233804042B0FA80F3E5
:10317000083B0CD4984001EB0302C2F1950200EB2E
:10318000C25040F00040FE2A38BF704713E003F100
:10319000210310FA03FCC3F1210320FA03F0A3EB8F
:1031A000010202F1950240EBC25040F0004008D00D
:1031B000FE2A38BF70474FF00040A8BF40F0FF40E4
:1031C000704728BF20F00100FE2A38BF7047F2E7A1
:1031D00020B3B0FA80F3083B0AD4984001EB030215
:1031E000C2F1950200EBC250FE2A38BF704711E0D1
:1031F00003F1210310FA03FCC3F1210320FA03F0C9
:10320000A3EB010202F1950240EBC25007D0FE2A67
:1032100038BF7047ACBF4FF0FF400020704728BF59
:1032200020F00100FE2A38BF7047F3E7002289B37F
:10323000B1FA81F3083B14D4994010FA03FCC3F1AE
:10324000200320FA03F040EA0100A2EB0302C2F1DE
:1032500095021CEB0C0C40EBC2501ED0FE2A14D27F
:10326000704703F1210311FA03FC5CEA000CC3F17F
:10327000210321FA03F0A3EB020202F1B50240EBB5
:10328000C2500AD0FE2A38BF7047ACBF4FF0FF4093
:10329000002070471146FFF79BBF28BF20F00100B8
:1032A000FE2A38BF7047F0E79A4238BF885470470B
:1032B000704700BF2DE9F04F83B09946DDE90DABB3
:1032C0000F9B884611469A07074616D1DA453AD22F
:1032D0000C460D46ABEB0A060E4422464B464146D1
:1032E00020200134B847B442F7D12946BAF1000F83
:1032F00008D1204603B0BDE8F08F0C46BAF1000FAC
:1033000010D00E4655460C9B2E449A440191721BD8
:103310004B46013D41461AF8010D3446B847002D91
:10332000F5D101990F9B9B07E3D5651AAB45E0D911
:1033300022464B46414620200135B8475D4504F101
:103340000104F5D3D5E7BAF1000FDAD10C46D0E786
:103350002DE9F04F0F9FDDF824E017F0020F0A9CD3
:103360009DF82C900E9DDDE90C8629D1002D6FD1A2
:10337000B44225D2202C07F0010B00F0128104F199
:10338000FF3C4FF0300AF44401E0202C7AD00134A5
:10339000A6420CF801AFF8D8BBF1000F10D0AC4238
:1033A0000ED2202C74D004F1FF3C4FF0300AF444CC
:1033B00001E0202C29D00134AC420CF801AFF8D147
:1033C00017F0100F3AD017F4806F28D11CBBB8F15A
:1033D000100F00F0CA80B8F1020F00F0D480302442
:1033E0008EF800400124B9F1000F67D17E0740F14B
:1033F000AA802B260EF804600134CDE90B57CDE9E5
:1034000009E4BDE8F04FFFF755BFFC0640F18980A5
:103410007C0535D42024A6426AD0AC4268D0B8F1ED
:10342000100F00F08780B8F1020F5AD0202CE4D0A2
:10343000264601344FF0300C0EF806C0202CD2D1B5
:10344000CDE90B57CDE909E4BDE8F04FFFF732BFF6
:1034500017F0010B3ED0B9F1000F47D117F00C0F58
:1034600044D1B4429BD2202C89D1202D10D8FC0607
:1034700057D57C0555D4202E00F0B980202D10D0D2
:103480002024CCE7BBF1000F00F0A580202DBCD993
:10349000FC0646D57C0544D4202E00F0A880202DC3
:1034A0003FD12C461F26B8F1100F7FD0B8F1020F84
:1034B000C0D14FF0620C0EF806C0B7E72D260EF80B
:1034C00004600134CDE90B57CDE909E4BDE8F04FC4
:1034D000FFF7F0BEB442BFF473AF202C7FF44FAFC0
:1034E000D6E7202C89D026460134E2E7013DB8E733
:1034F000661ED8D1B8F1100F64D0B8F1020F7FF476
:103500006EAF62268EF80060302644468EF8016069
:10351000B9F1000F3FF46AAFD0E7B8F1100F7FF4B4
:103520006CAF2024CDE90B57CDE909E4BDE8F04F9D
:10353000FFF7C0BEBE060ED4202CF2D078260EF8BF
:103540000460013472E73E077FF557AF20260EF87E
:103550000460013451E7202CE3D04FF0580C0EEBFF
:10356000040686F800C0013460E7BE0617D558246B
:103570008EF8004030248EF801400224B9F1000F8B
:103580003FF434AF9AE762248EF8004030248EF87E
:1035900001400224B9F1000F3FF428AF8EE77824F0
:1035A000F2E7BBF1000F7FF462AF71E717F0200F75
:1035B0000CBF4FF0780C4FF0580CA61E0EF806C04A
:1035C000013C35E7BC06EAD558248EF8004030248B
:1035D0008EF80140DDE717F0100F3FF40EAF17F43F
:1035E000806F9AD1202E7FF418AF1F265BE73446F8
:1035F0001F2658E700B9704701F098BB10B1D1E918
:1036000000311847704700BF2DE9F04F9FB09DED86
:10361000287BDDE92AA558EC177B83461E460D91D1
:10362000109243463A46384641468DED087B2C9C25
:10363000FFF78AFB002840F0D880384641464FF01B
:10364000FF32754BFFF7E0FB002840F0CE80384694
:1036500041464FF0FF326FF48013FFF799FB0028CB
:1036600040F0C380DDE90878002238464146002357
:10367000FFF78EFB002840F0C081CDE90A78DDE934
:103680000A2390461F4614F4806308BF4FF0060AD1
:10369000139304F4006258EA0703119240F0C080CB
:1036A000002A00F0A2819FED5A7B00278DED0E7B52
:1036B0004FF00009BA45CCBFAAEB070A4FF0000A49
:1036C0004F46C8BF0AF1FF3A44F480644D4594BFA9
:1036D0004FF00008A5EB090814F00203119304D081
:1036E000B9F1000F18BF4FF000083FB1DDE90A0142
:1036F000DDE90E23FFF784FACDE90A01DDE90801CF
:1037000000220023FFF744FB30B1DDE90A01024645
:1037100001F10043CDE90A239DED0A7BCDE902A822
:10372000DDF834A024F4006304938DED007B334670
:1037300051465846109A00F097F98046B9F1000FAB
:103740004FD014F0200F024600F1010433460CBFA5
:10375000652045205146D84709F1FF3087EAE77CCC
:103760000DF1580900224B46DFF8B080ACEBE77C46
:103770004FEAD77E01E0202A10D0E246A8FB0C7168
:10378000C90801EB8107ACEB47073037BAF1090FE5
:103790008C4602F1010203F8017BECD80523059069
:1037A000069300200A230D9FCDE90330CDE9012EB9
:1037B0003346224639465846CDF80090FFF7C8FDFB
:1037C000119B80466BB1109BC41AA54209D9424691
:1037D0003346394620200134D847A54208F1010874
:1037E000F5D840461FB0BDE8F08F9DED087B33460D
:1037F0005846109A0D998DED287BCDE92B54CDF8C4
:10380000A8A01FB0BDE8F04F00F02EB9AFF30080C4
:103810000000000000000000FFFFEF7FCDCCCCCC0B
:10382000C7F30A50A0F2FF30FFF746FA8AA3D3E9A4
:103830000023FFF7BFF98AA3D3E90023FFF792F92A
:10384000C7F31307CDE90E0147F07F514046002230
:103850007B4B41F44011FFF799F96BA3D3E90023A7
:10386000FFF7A8F902460B46DDE90E01FFF77AF9EA
:10387000FFF746FA0746FFF71FFA65A3D3E90023CF
:1038800080468946FFF796F900226E4BFFF76AF9EA
:10389000FFF736FA03464946404612935EA3D3E942
:1038A0000023FFF787F9804612988946FFF704FA4C
:1038B0005BA3D3E90023FFF77DF902460B464046A0
:1038C0004946FFF763F902460B4680468946FFF7F3
:1038D00071F942464B46CDE90E0140464946FFF795
:1038E00041F90022CDE91401DDE90E01564BFFF745
:1038F00087F90022554BFFF735F902460B46DDE903
:103900000E01FFF77DF90022514BFFF72BF902461C
:103910000B46DDE90E01FFF773F942464B46804640
:10392000894600204FF08041FFF730F902460B46F0
:1039300040464946FFF716F902460B46DDE91401F9
:10394000FFF75EF90022434BFFF70CF9129B0022B0
:1039500003F2FF3C4FEA0C53FFF72CF980468946EF
:10396000DDE90A0142464B46CDE90E89FFF710FA20
:1039700068BB4346494607F16302C62A119A8CBFC9
:103980004FF005094FF00409002A3FF49FAE0B43A6
:103990003FF48EAEDDE90A0123A3D3E90023FFF74C
:1039A0001FFA48B1DDE90A0121A3D3E90023FFF79B
:1039B000EFF900287FF47CAEBAF1000F3FF486AE39
:1039C000139B002B3FF482AE0AF1FF3A7EE6002201
:1039D0001E4B40464946FFF713F90A460146034687
:1039E000CDE90E12013F1146C5E79FED137B174647
:1039F0004FF004098DED0E7B68E608F100430A974D
:103A00000B933CE6AFF3008061436F63A787D23F1F
:103A100071A379094F930A401655B5BBB16B0240AB
:103A2000EF39FAFE422EE63F2D431CEBE2361A3FF9
:103A30000000000080842E41000000000000000013
:103A40000000F83F0000E03F00002C400000244050
:103A5000000018400000F03FFB799F501344D33F13
:103A6000B3C8608B288AC63F2DE9F04F97B0DDE9D7
:103A70002089CDE90401DDE9224BCDE9062340464A
:103A800042464B464946DDF890A0FFF75DF9002815
:103A900040F0C581404649464FF0FF326FF4801335
:103AA000FFF776F9002840F01D81404649464FF067
:103AB000FF32C14BFFF7A8F9002840F0E380B8A31C
:103AC000D3E9002340464946FFF79EF9002840F01D
:103AD000CB80B5A3D3E9002340464946FFF758F908
:103AE000002840F0C1804046494600220023FFF7ED
:103AF0004FF9002840F0E0801AF480650D9000F046
:103B0000E980092C40F296810EAB1A460C933021C5
:103B10000023A4F109050133202B02F8011BA4EBBB
:103B2000030600F03A81AB42F5D19FED9D7B8DED10
:103B3000087B49464046FFF7E3F80446FFF7BCF828
:103B400002460B4640464946FFF720F8DDE90823C8
:103B5000FFF730F802460B46CDE90A23FFF7E2F8FB
:103B60000746FFF7BBF802460B46DDE90A01FFF7FF
:103B70000DF802460B46CDE90A2300228F4BFFF7D2
:103B800043F9002800F0DB8001373846FFF7A6F83C
:103B9000DDE90823FFF724F908B100270134002EDE
:103BA00040F0B1802046FFF787F802460B464046BA
:103BB0004946FEF7EBFF0022804B06460F46FFF713
:103BC000E7F840B93046394600227C4BFFF71CF934
:103BD000002800F015810C9B691E7948194410E0FB
:103BE00080FB0462C3EBA20303EB8302A4EB420459
:103BF00004F1300201351C4601F8012F002B00F0C2
:103C0000AB80202D4FEAE473EAD10AF00303012BC5
:103C10001CD1BBF1000F19D00D9B002B40F0F98097
:103C20001AF00C0F40F0F580AB4540F2D380202D08
:103C30000BD030220C996B1E0B4401355D4503F807
:103C4000012F00F08D80202DF7D12025DDE90623FE
:103C5000DDE904010C9CCDE902BA01950094FFF75F
:103C600029FB17B0BDE8F08FCDE92089DDE90623F7
:103C7000DDE90401CDE923BA229417B0BDE8F04F85
:103C8000FFF7C2BC4F4DCDF88CA00AF0040ABAF180
:103C9000000F4D4C18BF2C46DDE90623DDE9040179
:103CA00020940CBF03240424CDF888B0219417B0CD
:103CB000BDE8F04FFFF7FEBA4B4642460020002118
:103CC000FEF764FF01231AF48065804689460D9350
:103CD0007FF417AF9FED367B0EAB06268DED087B8C
:103CE0000C9326E70424DDE90623DDE90401374DC2
:103CF000CDF88CA0CDF888B02095219417B0BDE800
:103D0000F04FFFF7D7BA0C9B681EDFF8C4C0184409
:103D10000DE0ACFB0721C90801EB8102A7EB4202D1
:103D20003032092F00F8012F27D90F461D46202DCC
:103D300005F1010306F1FF36EBD120254BE7002208
:103D4000DDE90A011D4BFFF723F800287FF427AFB8
:103D5000002F5AD1013722E70AF00303012B75D057
:103D6000202D3FF473AF0D9BBBB32D2205F15803FB
:103D70006B4403F8202C013568E7202BDDD0AEB36F
:103D80000C9A1E441544302201E0B3422ED0013378
:103D9000202B05F8012FF8D1CFE71D46C5E600BF5F
:103DA0000000000065CDCD410000000065CDCDC113
:103DB0000000000080842E41FFFFEF7F0000E03F05
:103DC0006766666644E400104CE4001054E400109A
:103DD000CDCCCCCC202D3FF439AF1AF0040F0DD14F
:103DE0001AF0080F3FF432AF2022BFE72E2103F173
:103DF00058026A4402F8201C5D1CECE62B22B5E751
:103E0000E3077FF5E8AE0134E5E6FA077FF5C7AED4
:103E1000A0E70BF1FF3BAB453FF609AFA0E703245A
:103E2000DDE90623DDE904010A4DCDF88CA0CDF8CB
:103E300088B061E7084B264603EBC40393ED007B93
:103E40000EAB8DED087B00250C9372E6BBF1000FE5
:103E500086D0E1E650E4001038E600102DE9F04F7E
:103E60009A469BB0249C964D0B94964C0B1E18BF03
:103E7000834625609AF80000934C0A9308BFA34636
:103E80000992002800F0BC824FF000090AE04A467F
:103E9000099B0A9909F10109D8479AF800000028FE
:103EA00000F0CE8025280AF1010AF0D10023524605
:103EB00012F8010BA0F1200110290AD8DFE801F067
:103EC0004009093C0909090909090938093409099E
:103ED0003000A0F13001092940F28C802A2800F03E
:103EE000F58000210C912E2800F099800027A0F188
:103EF000680112292DD8DFE811F057012C0051017B
:103F00002C0045012C002C002C002C002C002C0037
:103F10002C0027002C002C002C002C002C0027004B
:103F2000924643F00103C2E7924643F00203BEE724
:103F3000924643F00403BAE7924643F01003B6E713
:103F4000924643F00803B2E79AF8010043F4807305
:103F500001326728924600F28280242840F2C6800F
:103F6000A0F12502422A00F2C180DFE812F05F01D1
:103F7000BF00BF00BF00BF00BF00BF00BF00BF0049
:103F8000BF00BF00BF00BF00BF00BF00BF00BF0039
:103F9000BF00BF00BF00BF00BF00BF00BF00BF0029
:103FA000BF00BF00BF00BF00BF00BF00BF002601B1
:103FB00045012601BF00BF00BF00BF00BF00BF001A
:103FC000BF00BF00BF00BF00BF00BF00BF00BF00F9
:103FD000BF00BF00D301BF00BF00BF00BF00BF00D4
:103FE000BF00BF00BF00BF00D3016701D30126019E
:103FF00045012601002100E0013201EB810100EBC7
:10400000410110789246A0F13004092CA1F1300151
:10401000F2D92E280C9102F101027FF467AF9AF8D1
:1040200001001146A0F13006092E43F4806340F2EE
:1040300031812A2800F03E8192460027013256E75E
:104040004C46099B994501D303F1FF394A460020AC
:10405000099B0A99D84720461BB0BDE8F08FA0F114
:104060006902D2B20F2A41D8012649F24101964095
:104070000E4040F001810A2A3FD0072A36D10B9C1E
:1040800054F8042B002A00F0288143F021010DF19F
:10409000480E704603E0202E00F029811A4602F0F7
:1040A0000F052B46092D94BF303337330F2A00F804
:1040B000013B06F101064FEA1213ECD817E100BFED
:1040C0005D3E0010442D0020B13200100B9C9AF888
:1040D000010054F8045B9246002DBDBF694243F0D5
:1040E00002030C910C950B940132FCE64A46099BA5
:1040F0000A9909F10109D847CFE60B9951F8048BC9
:1041000098F800201046002F40F0E18072B16FF067
:10411000010C0CF1010C4646C44401E0664503D095
:1041200016F8014F002CF9D1A6EB080613F4806CA9
:1041300002D0BE4228BF3E4613F0020400F0878141
:10414000002A00F02B81BCF1000F00F041810B949C
:104150000D964A46DDE909540E464F4408E02B46C9
:104160002146D84718F8010F09F1010910B14A4654
:104170004F45F4D131460B9C0D9E002C40F00E8132
:104180000B918AE69AF801006C287FF4DFAE9AF86A
:10419000020043F440730AF10302DAE69AF80100E0
:1041A00043F400730132D4E69AF80100682800F065
:1041B000208143F080030132CBE6672800F0E780DE
:1041C000472800F00081452800F0FF800B9C0493F5
:1041D0000C9B0734CDE9027324F007031C46DDE98C
:1041E0000931F4E802674A465846CDE900670B9466
:1041F000FFF70AFA814650E646280B9C08BF43F0B9
:10420000200304930C9B0734CDE9027324F00703C9
:104210001C46DDE90931F4E802674A465846CDE913
:1042200000670B94FFF720FC814636E64A462520BE
:10423000099B0A9909F10109D8472EE60B9A9C07B8
:1042400002F1040709F1010640F1E6801078099BAC
:104250004A460A99D8470C9B012B40F22C81DDE994
:104260000954994432462B46214620200136D8472E
:104270004E45F7D10B9710E66F2800F08B8040F287
:104280006581782800F008814FF00A0823F01003B8
:10429000C44647E0002707EB870700EB4700A0F183
:1042A000300711F8010FA0F13002092AF3D98A462C
:1042B0004A1C1CE60B9C9AF8020054F8047B0AF195
:1042C000020A0AF101020B9427EAE7770FE6002AB7
:1042D0003FF42CAF07F1FF3C1BE723F0100113F470
:1042E000806241F021013FF4D2AE0DF1480E082367
:1042F0001020059300234A46CDE902300691584626
:10430000DDE90931CDE900E60497FFF721F80B94C8
:104310008146C2E5582879D0622840F051824FF09A
:104320000208C44613F480606DD123F00C0313F42B
:10433000007240F0C2800B9904310D9113F480712A
:1043400040F02E825E060B9A40F1AA801278002A75
:1043500040F0DA8023F01003002800F0D5801146E9
:104360000DF1480E06930C9BCDF80CC0CDE90473FB
:10437000019100234A4602935846DDE90931CDF800
:1043800000E0FEF7E5FF0D9B81460B9385E543F4C6
:1043900000631BE74FF00808C446C3E70C9B4C467C
:1043A000B3427FF6EDAE0F464B44A3EB0609DDE9C1
:1043B000096522463346294620200134D8474C451A
:1043C000F7D13946DCE643F4006343F02003FDE611
:1043D0000F460B94DDE909544A462B462146D8473F
:1043E00018F8010F09F101090028F5D139460B9C95
:1043F000C3E69AF8020043F0C0030AF10302A8E5FD
:10440000044681461DE623F00D0390E74FF01008A7
:1044100043F02003C44685E70C9B012B45D9DDE919
:1044200009544E4609F1FF38984432462B4621463E
:1044300020200136D8474645F7D10C9B3246994497
:104440000B9B1878DDE90931D8470B9725E50C9BC4
:10445000B34240F2EE81CDE90D48DDE909548846CA
:104460004B449E1BCDF82CC04A462B4621462020AB
:1044700009F10109D847B145F6D14146DDF8388048
:104480000C9BDDF82CC00D9C98F800205E1C10469B
:10449000002A7FF458AE73E64FF01008C44641E797
:1044A0001D064CBF1288126851E713464A46187819
:1044B000DDE90931D847B146DCE60B9C073424F02E
:1044C00007042246656852F8084B0B9254EA05022D
:1044D00040F02C8123F01003002800F027810026F3
:1044E0000DF1480E06930C9B4A46CDE90473002358
:1044F000CDE900E6CDF80CC002935846DDE909315C
:10450000FEF726FF8146C8E413F0200F14BF4120B8
:1045100061200DF1480E7646A0F10A0803E020293B
:104520003FF420AF2246B2FBFCF40CFB1425E8B2AA
:10453000092D00F130058ABF4044E8B2C0B262459F
:1045400006F8010B01F10101E9D20BE723F010029B
:1045500069280D9240F06F8113F4806204D04FF40B
:10456000806223F011030D930D9B13F4007640D16C
:104570000B9B03F104080D9B13F4807040F09880AE
:10458000590640F1C6800B9B19780C46CB0F0029C9
:1045900000F0B98022460DF1480E74461646DFF849
:1045A000A0C201E020280FD03546ACFB0621C90887
:1045B00001EB8102A6EB42023032092D0E4600F1DA
:1045C000010004F8012BEDD80D9ACDE90103069204
:1045D0000C9ACDE904720A234A4603935846DDE952
:1045E0000931CDF800E0FEF7B3FECDF82C8081460E
:1045F00053E40B9C073424F0070421460846636803
:1046000050F8081BDC0F0B9051EA030000F0C38048
:104610000A46191E48DB13460DF1480EF4460026E3
:10462000CDE90E94DFF8188201E0202E2DD05A1823
:1046300042F10002A8FB025929F0030505EB990598
:10464000521B1C469B1A61F1000508464FF0CC3105
:1046500001FB03F108FB0511A3FB085319440523D3
:1046600005F00109A9FB03399B180A2C03F130035B
:104670004FEA550570F100000CF8013B06F1010608
:1046800045EAC1734FEA5101CFD2DDE90E940D9B8B
:104690004A4606930C9BCDE90164CDE904730A23D5
:1046A000CDF800E0039328E7524261EB4101B2E705
:1046B0000B9B1968CB0F002900F0AB8081EAE172F7
:1046C000A2EBE1720DF1480E7046DFF874C101E013
:1046D000202E10D01546ACFB0241C90801EB810425
:1046E000A2EB440404F13002092D00F8012B06F17D
:1046F00001060A46ECD80D9ACDE9016306920C9AA0
:10470000CDE9047267E7002A3FF445AF0DF1480E8A
:104710005AE713F0800F0B9B00F08180B3F9001073
:1047200081EAE174A4EBE174A4B22FE713F0200F47
:1047300014BF412261220DF1480E0A3ACDE90D97CE
:10474000CDF844B000267746F3469146CDE90F3CBC
:1047500003E0202E17D004460D462946424600238A
:10476000204609F021FCD2B2092A02F1300388BFA9
:1047700002EB09034445DBB275F1000507F8013B84
:1047800006F10106E5D2DE46DDE90D97DDE90F3CD5
:10479000DDF844B0A6E6002A47D1134611463BE7B0
:1047A0000B990968A1B923F0100388B10DF1480EE7
:1047B00006930C9BCDF80CC0CDE904730192D8E5AB
:1047C00013F480627FF4CBAE23F010030D93CBE69D
:1047D00013F0200F14BF412061200DF1480E7646E2
:1047E000A0F10A0802E0202AE2D02146B1FBFCF445
:1047F0000CFB1415E8B2092D00F130058ABF4044C6
:10480000E8B2C0B2614506F8010B02F10102EAD23A
:10481000CEE7002A3FF456AF0DF1480E6BE719685A
:1048200081EAE174A4EBE174B0E600260DF1480ED4
:104830002DE701362BE64FF00A081346C44671E512
:10484000CDCCCCCC0EB410B585B007AC54F8043B3D
:1048500001464FF0FF32009404480394FFF7FEFA3C
:1048600005B0BDE8104003B0704700BFA93200108A
:1048700070B594461E4605460C4684B04FF0FF3294
:10488000634602A900960348CDE90254FFF7E6FA11
:1048900004B070BDFD3500100FB410B50E4B84B0E0
:1048A00006A91C6851F8043B03915CB100914FF0DC
:1048B000FF3202A90948A047012004B0BDE810401A
:1048C00004B07047184600F073FA204604B0BDE803
:1048D000104004B0704700BF442D0020F535001093
:1048E00010B5094B84B01C684CB1034600914FF0E1
:1048F000FF3203A90548A047012004B010BD00F015
:1049000057FA204604B010BD442D0020F5350010A4
:1049100000BEFDE7074A0346106838B10649034464
:104920008B428CBF4FF0FF3013607047034908463D
:104930001160F3E740290020000008202C2E002001
:1049400003460846114623B9034BD3E9002300F080
:104950004FB94FF0FF307047D8E50010431E012BD0
:1049600009D810B51446084601230022214600F05C
:10497000C7F8204610BD4FF0FF3070474FF0FF30B2
:10498000704700BF4FF0FF30704700BF08B5FFF71A
:10499000BFFF00BF9C46144600B50B460246614669
:1049A00083B044B1054D064801940095FFF774FFAC
:1049B0000120FFF7ADFF034D2C46F4E75CE4001047
:1049C0006CE4001014E2001038B5064C064DFDF7FB
:1049D000BDFFAC4204D254F8043B9847AC42FAD332
:1049E00038BD00BF30E000103CE00010036808460E
:1049F00011461847437D2DE9F04781460F4616467C
:104A0000002B43D0002A3BDD037D00204D1E0146D4
:104A100015F8012FDFF884800A2A01F101040ED075
:104A2000A6421CD02B782146A3F10D03B3FA83F3E1
:104A300015F8012F5B090A2A01F10104F0D1002BBE
:104A4000EED18142A1EB000138441BDC022140463B
:104A5000D9F800309847A64208D02046E2E78642BF
:104A600004DD311AD9F8003038449847374417F834
:104A7000013CA3F10D03B3FA83F35B0989F8143009
:104A8000BDE8F087D9F800309847DFE73846D9F815
:104A900000301146BDE8F047184700BF88E6001017
:104AA0000B682DE9F041802B0D46064605D05A1CB7
:104AB0002B442A601E71BDE8F0810F4B1C68A4B125
:104AC0000E4F01F1040801E0246974B12368002B42
:104AD000FAD03B680BB1A342F6D1204641462A6882
:104AE000FFF788FF2469002CF0D1002301222B441A
:104AF0002A601E71BDE8F081342900203C29002085
:104B00002DE9F04782B00D46924699460746FDF7DB
:104B100057FD4FF0FF366FF000442F4A821841F1E5
:104B20000003964274EB03013CBF324623462B48F8
:104B300009F04EFA6B1C804603D1384605F062F846
:104B40000546274B274E1C68274BB9F1000F18BFAD
:104B50001E46B4B1BAF1000F1AD1DFF8909001E00F
:104B6000246974B12368002BFAD0D9F800300BB156
:104B70009C42F5D120462A463946B0472469002C8C
:104B8000F0D1B8F1000F1FD1284602B0BDE8F08780
:104B90004FF00A0ADFF8549002E02469002CF0D0AC
:104BA0002368002BF9D0D9F800300BB1A342F4D11F
:104BB0002A4639462046B047012220460DF107011A
:104BC0008DF807A0B047E8E7044809F0F1F9284656
:104BD00002B0BDE8F08700BF40420F00F81D002082
:104BE00034290020ED490010F54900103C2900202F
:104BF0002DE9F04F984607460E4683B0DFF860B0C7
:104C0000DFF86090DFF860A00192DBF8004014B993
:104C100011E024697CB1D9F800500DB1A542F8D15A
:104C2000A268002AF5D03146384690470028F0DDCA
:104C300003B0BDE8F08FDAF8242090450BD8DAF8FD
:104C40002810019B994204D36FF0010003B0BDE826
:104C5000F08F9045F8D101200021FDF7BBFCD4E78F
:104C6000342900203C29002000000B400A4A136828
:104C70004BB1834202D109E0984207D003F1100200
:104C80001B69002BF8D101B1106070470029FCD1DD
:104C900003691360016170473429002000F026BBCE
:104CA0002DE9F04182B00646FDF78AFC4FF0FF3255
:104CB0006FF00043361841F10007B24273EB070171
:104CC0003CBF16461F46DFF86080154DD8F80040FF
:104CD00014B912E0246984B12B680BB19C42F9D15C
:104CE000A368002BF6D0012101A898470028F1DD28
:104CF0009DF8040002B0BDE8F0810A4B5A6A974261
:104D000009D89B6AB34204D36FF0010002B0BDE83A
:104D1000F0819742F8D101200021FDF75BFCD5E737
:104D20003C29002000000B4034290020F0B583B05E
:104D300006468DF80700FDF743FC4FF0FF356FF096
:104D40000044174A821841F10003954274EB0301B5
:104D50003CBF23462A46134809F03AF9124B07464E
:104D60001C689CB1114D01E024697CB12368002BC3
:104D7000FAD02B680BB19C42F6D1204601220DF1EE
:104D80000701FFF737FE2469002CEFD117B9304631
:104D900003B0F0BD034809F00BF9304603B0F0BD95
:104DA00040420F00F81D0020342900203C2900203B
:104DB00038B5044604F026FF012305461A4620466E
:104DC0002946FFF79DFE084B1C682CB163682BB188
:104DD00098472469002CF9D1284638BD2469002C55
:104DE000F4D1284638BD00BF342900202DE9F04118
:104DF000A2B004460D46FDF7E3FB4FF0FF376FF01E
:104E00000046274A821841F10003974276EB0301DE
:104E10003CBF3A463346234809F0DAF800262B46D1
:104E200007462246204801A90196FFF721FD019B74
:104E300006467BB91D4B1C682CB1636843B198478B
:104E40002469002CF9D10FBB304622B0BDE8F081B7
:104E50002469F1E7DFF85480D8F80050EDB1144C24
:104E600001E02D6975B12B68002BFAD023680BB1D6
:104E7000AB42F6D12846019A02A9FFF7BBFD2D6986
:104E8000002DF0D1D8F800400195D5E7054809F08C
:104E90008FF8304622B0BDE8F0810195D3E700BF1E
:104EA00040420F00F81D0020A14A001034290020C4
:104EB0003C2900200FB400B583B004A951F8040BBD
:104EC0000191FFF793FF03B05DF804EB04B0704766
:104ED000704700BF0022014B1A707047252E00203A
:104EE0004B79FF2B0BD1887948B9CB79012B07D1AE
:104EF000082A05D9034B8A7809201A7070470020C8
:104F0000704700BF252E002001207047012901D0E5
:104F10000120704708B5104B91881B78994201D049
:104F2000002008BD5378012B08D0022BF8D10021B6
:104F300064220846FDF746FC012008BD5188CB05D8
:104F40004BBF4A0A4A0A10464FF0FF3002F00102F6
:104F500001F07F01FDF7B4FC252E002000487047CA
:104F600054E70010012907D15378012B02D193880F
:104F7000072B03D000207047012070471146A6235D
:104F8000014A01F041BA00BFACE60010034601221D
:104F900001481A70704700BF8CE6001008B50B6816
:104FA000B3F5966F00D008BD00224FF0FF301146D8
:104FB000FDF786FC024A034B10601960704700BF82
:104FC000D4280020D8280020184B70B51A68002A71
:104FD00028D0EFF3108172B6D2E8CF4F0120002C19
:104FE000FAD1C2E8440F002CF6D1BFF35F8F002244
:104FF0000F4C186859602270C0E88F2F81F3108819
:10500000002400250B4E3078FCF7AEFC20B90024BC
:1050100000252046294670BD3078FCF7B5FC2046B7
:10502000294670BD4FF47A740025EBE7D42D00209B
:10503000272E0020262E0020014B1878FCF7A4BC58
:10504000262E002038B5044600200D4601F008FB4E
:10505000A8B3002001F01AFB88B3FDF7B1FA4FF0B6
:10506000FF3E6FF0004C174A821841F1000396454D
:105070007CEB03013CBF72466346134808F0A8FF6F
:10508000E8B1002001F0ECFA58B900214FF0FF30F0
:1050900000F012FD6FF002040B4808F089FF204673
:1050A00038BD002001F0F2FA0028EED021462A4651
:1050B000002001F0F7FA04460028EDD1EAE76FF08E
:1050C0000204ECE740420F00082E002008B5FDF76F
:1050D00077FA4FF0FF3E6FF0004C0F4A821841F113
:1050E000000396457CEB03013CBF724663460B48C8
:1050F00008F06EFF70B14FF0FF30002100F0DCFCD3
:10510000002001F015FB0028F5D1BDE80840034858
:1051100008F04EBF08BD00BF40420F00082E00201F
:105120002DE9F84307460E46FDF74AFA4FF0FF35E2
:105130006FF00044334A821841F10003954274EB4A
:1051400003013CBF2A4623462F4808F041FF08B917
:10515000BDE8F883002001F083FA002848D0002E33
:1051600041DD0025DFF8A480DFF8A49013E022469B
:10517000002001F023FB002104464FF0FF3000F037
:105180009BFC002001F0D4FAFDF71AFAC8E90001EF
:105190002544AE4227DD002001F032FB741B84421F
:1051A000A8BF04467919002CE1D121464FF0FF3009
:1051B00000F082FC204601F0BBFA204601F050FAD4
:1051C00088B1204601F01CFB0028E2D1FDF7F8F978
:1051D000D8F80030D8F8042013EB090342F100029C
:1051E00083428A41D5D20848BDE8F84308F0E0BEC2
:1051F00000200021054BC3E90001BDE8F843024847
:1052000008F0D6BE40420F00082E0020B820002033
:1052100020A1070030B5002185B02E4808F0E0FE3F
:10522000F0B92D4B1A68CAB1EFF3108172B6D2E80B
:10523000CF5F0124002DFAD1C2E8454F002DF6D1F1
:10524000BFF35F8F254C1D6822785960D3B20122CD
:105250002270C5E88F0F81F31088CBB105B030BD47
:1052600000214FF0FF3000F027FC002001F00EFA83
:105270000446184808F09CFE002CEFD0184B1B6821
:10528000002BEBD0174A106805B0BDE83040184736
:10529000FCF792FF0446FDF793F94FF0FF3C6FF0E7
:1052A000004510F57A7241F10003944575EB030156
:1052B00038BF2B464FF000014FF0010520460A4C45
:1052C00038BF6246CDE901150094FCF779FF05B0BF
:1052D00030BD00BF082E0020D42D0020272E002036
:1052E000D4280020D8280020C94F00104FF0504388
:1052F00030B585B01C68FCF75FFFFDF773F8A0427E
:1053000002D0002005B030BD00212A4B08461B7892
:1053100001F046FD28480368002B47D00120FCF728
:10532000D1FC0346254C2649C0B22370FCF748FB4C
:1053300020780121FCF702FB0E20FCF731FB40BB7B
:10534000204B0125C3E90000FCF736FF0446FDF7BA
:1053500037F94FF0FF3E6FF0004C10F57A7241F1D3
:10536000000396457CEB03014FF000012046164CEC
:105370003CBF72466346CDE901150094FCF720FF5F
:105380000028BEDB01211148FFF770FC012005B0A9
:1053900030BD0120FCF78EFA01460A48FCF7EEFC0E
:1053A00000220E200A49FCF73BFBEBE7FCF7CAFCA6
:1053B000B4E700BF2CEC0010082E0020262E0020A1
:1053C00015520010D42D0020C94F00100C170020DA
:1053D0003950001000487047F0E70010004870474F
:1053E0009CE7001038B5184B04461A780AB344B944
:1053F00040F209424FF44173144D6A8013482B80E8
:1054000038BD052C1AD8124B104D53F824102846DD
:105410000023013903E0132B20F8022F10D011F8DC
:10542000012F0133DBB2002AF5D15B0043F4407356
:10543000E4E71121184600F025F8D8E7002038BD30
:105440004FF44A73DAE700BF102E00200C29002029
:1054500084E7001000B545F247308BB0FDF724FA21
:1054600001220346092101A89847DDE903320449D6
:1054700012BA1BBAC1E900230BB05DF804FB00BFF0
:10548000FC2D0020012901F1FF3300F0B3805D49BC
:105490000A784FEA121C9F2A8CBF0CF1370C0CF1D2
:1054A000300C012B80F800C000F0A78002F00F0242
:1054B000092A8CBF37323032022B427000F09D80B7
:1054C0004A784FEA121C9F2A8CBF0CF1370C0CF162
:1054D000300C032B80F802C000F08F8002F00F0226
:1054E000092A8CBF37323032042BC27000F085801D
:1054F0008A784FEA121C9F2A8CBF0CF1370C0CF1F2
:10550000300C052B80F804C077D002F00F02092A76
:105510008CBF37323032062B42716ED0CA784FEAD8
:10552000121C9F2A8CBF0CF1370C0CF1300C072B8E
:1055300080F806C061D002F00F02092A8CBF373212
:105540003032082BC27158D00A794FEA121C9F2AB8
:105550008CBF0CF1370C0CF1300C092B80F808C013
:105560004BD002F00F02092A8CBF373230320A2B9F
:10557000427242D04A794FEA121C9F2A8CBF0CF12A
:10558000370C0CF1300C0B2B80F80AC035D002F030
:105590000F02092A8CBF373230320C2BC2722CD04A
:1055A0008A794FEA121C9F2A8CBF0CF1370C0CF140
:1055B000300C0D2B80F80CC01FD002F00F02092A0E
:1055C0008CBF373230320E2B427316D0CA79110994
:1055D0009F2A8CBF373130310F2B81730DD002F0F1
:1055E0000F02092A94BF30323732102BC27318BF12
:1055F000103002D00023037070471844002303705A
:10560000704700BFFC2D002070B500F033F90C236B
:1056100040261B4CFF22A3670E201A49FCF700FA14
:10562000194B32460021184602F084F80346002147
:1056300001258020154A58849A60843A5D701E8343
:105640001E875960C2F88410C2F8801002F580727B
:10565000DA60DA62803A83F8211083F83B105962ED
:105660009A624FF0005608F09BFC4FF480320849D4
:10567000084B25642846E664C4F89010DA6470BDCF
:1056800000001150A903002044290020840010507C
:1056900010D001000020115001210E20FCF74EB95E
:1056A00000220248114600F005B900BF642900201D
:1056B000044B197021B14FF40032034BC3F8902012
:1056C000704700BF222E0020002011500B785B068F
:1056D00002D14B78052B00D070474B88014ADBB2D2
:1056E0001360704700001150CB782DE9F04103F0B2
:1056F000030EBEF1010FC3F301005DD0002791F846
:1057000002C0354C0CF07F035E00898806EBDC128A
:1057100004EB42124FEADC15D076C1F30A0185F0A2
:105720000100507082F802C01183D77018B2DA00FD
:105730008DBB2A48043204EB831C02EB0008CCF832
:10574000088017508BB3264ADB001A44CCF804209B
:10575000244B3F311A6821F03F01BEF1020F08BF10
:10576000490011441960204B771904EB47179942FF
:10577000FA602CD82E4404EB4613D97E82F0A04266
:1057800082F480125B6842EA816242F000421A6051
:105790000120BDE8F081DFF844C004EB83186244C7
:1057A000C8F828204CF830704BB900220F4904EBA0
:1057B0004513D9605A60EBE70020BDE8F081DB00BB
:1057C00003F1A04303F58013C8F82430C0E7FDF7C8
:1057D000B7F8FA68CEE700BF4429002080001050D7
:1057E00004001050D02D0020FF0F10500001105069
:1057F00008F0D6BB8C4608B5114607481A460CF08F
:105800007F034FEADC1C0CEB430C00EB4C1000F068
:1058100051F8012008BD00BF44290020CB0911F038
:105820007F0103D1064AC3F102009066054803EBED
:1058300041034FF40062002100EB431008F0C4BBA9
:10584000002011504429002011F07F0300D170473F
:10585000002210B4C809064C00EB430004EB4013CF
:105860006FF4006118465DF8044BDA7008F0ACBBC9
:10587000442900204FF0805209480A4908B50A4BD4
:1058800002600A609968C94311F08051FAD14FF45F
:105890008052064801F04EFF0922054B5A6708BDA9
:1058A0000020024000300240000002400000105082
:1058B0000000115000234FF0010C10B580F81AC001
:1058C0008282C3820161044608F07AFB20B14FF462
:1058D0000032074BC3F89020204608F04DFB10B172
:1058E0000123237710BD2046BDE8104008F050BBCF
:1058F000002011502DE9F04100241D4E054623469D
:105900003278DFF878801B4F0DE03B6813EB4413CF
:1059100025D0DB682846984732780134E4B2511C20
:10592000A142234606DBA242A3EB0203EDD808EB1B
:105930004313EEE7104C54220021204601F0FAFEFA
:105940004FF0FF33251D6360C5E90133EB6004F1BF
:1059500014002022BDE8F041FF2101F0EBBE4FF022
:10596000E023D3F8F03DDB0700D500BEBDE8F081B1
:10597000212E0020E4230020EC24002004E8001065
:10598000704700BF704700BF00207047002070477D
:10599000704700BF704700BF704700BF704700BF2F
:1059A000024B5878003818BF01207047EC240020C3
:1059B000024B1878C0F38000704700BFEC24002031
:1059C0002DE9F047DFF8E8A09AF80030FF2B02D06D
:1059D0000120BDE8F0870E4600293ED00021542268
:1059E0000746294801F0A6FE0022284C284B2046F5
:1059F0001A70FCF7A7F9274B27481C60274CFCF7C7
:105A0000AFF9204601F0B0FD254A264B264D146023
:105A100063B32846FFF7BAFA244B2A7818600024AB
:105A2000DFF890902346DFF884800EE0D8F800304D
:105A300013EB441311D05B687BB198472A7801348B
:105A4000E4B2511CA142234612DBA242EED89B1ABB
:105A500009EB43135B68002BEFD14FF0E023D3F841
:105A6000F03DDB0700D500BE0020B2E72A78D6E77C
:105A7000314638468AF80070FFF7C6FD0028ECD0A2
:105A80003846FFF709FEA3E7EC240020E4240020B9
:105A9000232E002040250020381700202417002046
:105AA000442500208D4F0010212E0020E4230020EB
:105AB0004017002004E800102DE9F04FDFF8C892ED
:105AC0008BB099F80030FF2B00F0F180A84CA94D65
:105AD000DFF8B0A2DFF8B4B226687369EFF3108282
